:020000040000fa
:080000000002040000000000f2
:020000040000fa
:040008004c12000096
:020000040000fa
:04000c004c12000092
:020000040000fa
:040010004c1200008e
:020000040000fa
:040014004c1200008a
:020000040000fa
:040018004c12000086
:020000040000fa
:04001c004c12000082
:020000040000fa
:040020004c1200007e
:020000040000fa
:040024004c1200007a
:020000040000fa
:040028004c12000076
:020000040000fa
:04002c004c12000072
:020000040000fa
:040030004c1200006e
:020000040000fa
:040034006047010020
:020000040000fa
:040038004c12000066
:020000040000fa
:04003c004c12000062
:020000040000fa
:040040004c1200005e
:020000040000fa
:040044004c1200005a
:020000040000fa
:040048004c12000056
:020000040000fa
:04004c004c12000052
:020000040000fa
:040050004c1200004e
:020000040000fa
:040054004c1200004a
:020000040000fa
:040058004c12000046
:020000040000fa
:04005c004c12000042
:020000040000fa
:040060004c1200003e
:020000040000fa
:040064004c1200003a
:020000040000fa
:040068004c12000036
:020000040000fa
:04006c004c12000032
:020000040000fa
:040070004c1200002e
:020000040000fa
:040074004c1200002a
:020000040000fa
:040078004c12000026
:020000040000fa
:04007c004c12000022
:020000040000fa
:040080004c1200001e
:020000040000fa
:040084004c1200001a
:020000040000fa
:040088004c12000016
:020000040000fa
:04008c004c12000012
:020000040000fa
:040090004c1200000e
:020000040000fa
:040094004c1200000a
:020000040000fa
:040098004c12000006
:020000040000fa
:04009c004c12000002
:020000040000fa
:0400a0004c120000fe
:020000040000fa
:0400a4004c120000fa
:020000040000fa
:0400a8004c120000f6
:020000040000fa
:0400ac004c120000f2
:020000040000fa
:0400b0004c120000ee
:020000040000fa
:0400b4004c120000ea
:020000040000fa
:0400b8004c120000e6
:020000040000fa
:0400bc004c120000e2
:020000040000fa
:0400c0004c120000de
:020000040000fa
:0400c4004c120000da
:020000040000fa
:0400c8004c120000d6
:020000040000fa
:0400cc004c120000d2
:020000040000fa
:0400d0004c120000ce
:020000040000fa
:0400d4004c120000ca
:020000040000fa
:0400d8004c120000c6
:020000040000fa
:0400dc004c120000c2
:020000040000fa
:0400e0004c120000be
:020000040000fa
:0400e4004c120000ba
:020000040000fa
:0400e8004c120000b6
:020000040000fa
:0400ec004c120000b2
:020000040000fa
:0400f0004c120000ae
:020000040000fa
:0400f4004c120000aa
:020000040000fa
:0400f8004c120000a6
:020000040000fa
:0400fc004c120000a2
:020000040000fa
:040100004c1200009d
:020000040000fa
:040104004c12000099
:020000040000fa
:040108004c12000095
:020000040000fa
:04010c004c12000091
:020000040000fa
:040110004c1200008d
:020000040000fa
:040114004c12000089
:020000040000fa
:040118004c12000085
:020000040000fa
:04011c004c12000081
:020000040000fa
:040120004c1200007d
:020000040000fa
:040124004c12000079
:020000040000fa
:040128004c12000075
:020000040000fa
:04012c004c12000071
:020000040000fa
:040130004c1200006d
:020000040000fa
:040134004c12000069
:020000040000fa
:040138004c12000065
:020000040000fa
:04013c004c12000061
:020000040000fa
:040140004c1200005d
:020000040000fa
:040144004c12000059
:020000040000fa
:040148004c12000055
:020000040000fa
:04014c004c12000051
:020000040000fa
:040150004c1200004d
:020000040000fa
:040154004c12000049
:020000040000fa
:040158004c12000045
:020000040000fa
:04015c004c12000041
:020000040000fa
:040160004c1200003d
:020000040000fa
:040164004c12000039
:020000040000fa
:040168004c12000035
:020000040000fa
:04016c004c12000031
:020000040000fa
:040170004c1200002d
:020000040000fa
:040174004c12000029
:020000040000fa
:040178004c12000025
:020000040000fa
:04017c004c12000021
:020000040000fa
:040180004c1200001d
:020000040000fa
:040184004c12000019
:020000040000fa
:040188004c12000015
:020000040000fa
:04018c004c12000011
:020000040000fa
:040190004c1200000d
:020000040000fa
:040194004c12000009
:020000040000fa
:040198004c12000005
:020000040000fa
:04019c004c12000001
:020000040000fa
:0401a0004c120000fd
:020000040000fa
:0401a4004c120000f9
:020000040000fa
:0401a8004c120000f5
:020000040000fa
:0401ac004c120000f1
:020000040000fa
:0401b0004c120000ed
:020000040000fa
:0401b4004c120000e9
:020000040000fa
:0401b800e002000061
:020000040000fa
:040208004c12000094
:020000040000fa
:04020c004c12000090
:020000040000fa
:040210004c1200008c
:020000040000fa
:040214004c12000088
:020000040000fa
:040218004c12000084
:020000040000fa
:04021c004c12000080
:020000040000fa
:040220004c1200007c
:020000040000fa
:040224004c12000078
:020000040000fa
:040228004c12000074
:020000040000fa
:04022c004c12000070
:020000040000fa
:040230004c1200006c
:020000040000fa
:040234004c12000068
:020000040000fa
:040238004c12000064
:020000040000fa
:04023c004c12000060
:020000040000fa
:040240004c1200005c
:020000040000fa
:040244004c12000058
:020000040000fa
:040248004c12000054
:020000040000fa
:04024c004c12000050
:020000040000fa
:040250004c1200004c
:020000040000fa
:040254004c12000048
:020000040000fa
:040258004c12000044
:020000040000fa
:04025c004c12000040
:020000040000fa
:040260004c1200003c
:020000040000fa
:040264004c12000038
:020000040000fa
:040268004c12000034
:020000040000fa
:04026c004c12000030
:020000040000fa
:040270004c1200002c
:020000040000fa
:040274004c12000028
:020000040000fa
:040278004c12000024
:020000040000fa
:04027c004c12000020
:020000040000fa
:040280004c1200001c
:020000040000fa
:040284004c12000018
:020000040000fa
:040288004c12000014
:020000040000fa
:04028c004c12000010
:020000040000fa
:040290004c1200000c
:020000040000fa
:040294004c12000008
:020000040000fa
:040298004c12000004
:020000040000fa
:04029c004c12000000
:020000040000fa
:0402a0004c120000fc
:020000040000fa
:0402a4004c120000f8
:020000040000fa
:0402a8004c120000f4
:020000040000fa
:0402ac004c120000f0
:020000040000fa
:0402b0004c120000ec
:020000040000fa
:0402b4004c120000e8
:020000040000fa
:0402b8004c120000e4
:020000040000fa
:0402bc004c120000e0
:020000040000fa
:0402c0004c120000dc
:020000040000fa
:0402c4004c120000d8
:020000040000fa
:0402c8004c120000d4
:020000040000fa
:0402cc004c120000d0
:020000040000fa
:0402d0004c120000cc
:020000040000fa
:0402d4004c120000c8
:020000040000fa
:0402d8004c120000c4
:020000040000fa
:0402dc004c120000c0
:020000040000fa
:0402e0004c120000bc
:020000040000fa
:0402e4004c120000b8
:020000040000fa
:0402e8004c120000b4
:020000040000fa
:0402ec004c120000b0
:020000040000fa
:0402f0004c120000ac
:020000040000fa
:0402f4004c120000a8
:020000040000fa
:0402f8004c120000a4
:020000040000fa
:0402fc004c120000a0
:020000040000fa
:040300004c1200009b
:020000040000fa
:040304004c12000097
:020000040000fa
:040308004c12000093
:020000040000fa
:04030c004c1200008f
:020000040000fa
:040310004c1200008b
:020000040000fa
:040314004c12000087
:020000040000fa
:040318004c12000083
:020000040000fa
:04031c004c1200007f
:020000040000fa
:040320004c1200007b
:020000040000fa
:040324004c12000077
:020000040000fa
:040328004c12000073
:020000040000fa
:04032c004c1200006f
:020000040000fa
:040330004c1200006b
:020000040000fa
:040334004c12000067
:020000040000fa
:040338004c12000063
:020000040000fa
:04033c004c1200005f
:020000040000fa
:040340004c1200005b
:020000040000fa
:040344004c12000057
:020000040000fa
:040348004c12000053
:020000040000fa
:04034c004c1200004f
:020000040000fa
:040350004c1200004b
:020000040000fa
:040354004c12000047
:020000040000fa
:040358004c12000043
:020000040000fa
:04035c004c1200003f
:020000040000fa
:040360004c1200003b
:020000040000fa
:040364004c12000037
:020000040000fa
:040368004c12000033
:020000040000fa
:04036c004c1200002f
:020000040000fa
:040370004c1200002b
:020000040000fa
:040374004c12000027
:020000040000fa
:040378004c12000023
:020000040000fa
:04037c004c1200001f
:020000040000fa
:040380004c1200001b
:020000040000fa
:040384004c12000017
:020000040000fa
:040388004c12000013
:020000040000fa
:04038c004c1200000f
:020000040000fa
:040390004c1200000b
:020000040000fa
:040394004c12000007
:020000040000fa
:040398004c12000003
:020000040000fa
:04039c004c120000ff
:020000040000fa
:0403a0004c120000fb
:020000040000fa
:0403a4004c120000f7
:020000040000fa
:0403a8004c120000f3
:020000040000fa
:0403ac004c120000ef
:020000040000fa
:0403b0004c120000eb
:020000040000fa
:0403b4004c120000e7
:020000040000fa
:0403b8004c120000e3
:020000040000fa
:100400002fb320008efe24000e01880000000000a3
:10041000000020000000e000020032000001200087
:10042000200288000c000700402d2300110020004e
:100430000f000700000020000000e0000200320072
:100440000000020000000000c8420200010000009d
:100450000040da000000fe00801120000000e000f3
:1004600002003200002020009001880000000600f9
:10047000a1028800800078000000eb001a0037001d
:10048000e280400054a0b4009101ba00e280400034
:1004900054a0b4009102ba00e280400054a0b4001d
:1004a0000002eb00472bde00f507b200a601880032
:1004b000602ce10008003a000049eb000201e8006e
:1004c000020039003420ec0002f0a0008301e900b2
:1004d000f9ff3e00040037006128e100010032000e
:1004e0000082eb000b00070011c3ba001101ba0033
:1004f0000604e00003003a000200e000e0ff3a00da
:1005000000000600f607b200a6028800820078000c
:10051000f5ff370004d0a300e20f49001c003900aa
:10052000810278003549ba000201e8000200390072
:100530003420ec0002f0a0008301e9000f0032003b
:100540002549ba000201e800020039003420ec001d
:1005500002f0a0008301e900080032000400e0007e
:100560000600320015c9ba000201e8000200390095
:100570003420ec0002f0a0008301e9008180e80053
:1005800054a0b4000300e000e2ff3a0000000600bf
:100590009102ba00055978008301e900f7ff3200a3
:1005a000c82ade00055978008301e900f3ff320014
:1005b0000400e000f1ff320011d9ba00eeff37006d
:1005c0003200f8003400f800881f7800180020007e
:1005d000a801880008202000980188004f047800b6
:1005e0000a87ab00020032001628ef000a87a90034
:1005f0009080a9003400f9003200f90000400600a4
:100600004487a800f11f2000303a800080806000fd
:1006100000e0220001007000303a880000c0250090
:10062000c0388800603888008038880001142000b5
:10063000a1388800021e2000b238880020398000ce
:100640000000a0000010a1000020a10020398800b7
:100650003ea7ef0000802f00a438800084016000d6
:1006600083817000a3388800f17f2000a5388000c6
:1006700085816000e5388000050260000482710019
:10068000e4388800b4388000840160008301710080
:10069000b3388800b538800085806000f33880006a
:1006a0000301600002817000f23888000439800084
:1006b00084006000011bb300013988002207b600e6
:1006c0002021b3001039880026e7a9002647a90099
:1006d00026c7a9002627a8002607a80026a7a90044
:1006e0002687a90090c1b3002fe7b700f57220005c
:1006f00095427800907220000548780060c7b300ea
:100700002ee7b700e172200091407800827220004d
:1007100001497800a0c0b3002ce7b7007640400044
:100720002ae7b70050c0b3002de7b70000c3b300fd
:100730002be7b7002667a9002727a8002707a800ee
:10074000203880000050a1000060a0000070a100cf
:100750002038880020388000000eb200f1f12f0010
:100760002339800083806000810070002139880077
:1007700005e7a80000e8230001002000c2480400ab
:100780000100000031e7a8000000060030e7b700d4
:100790003107a800913988000100240082398000c7
:1007a00002806000fdff3a003107a900000006004a
:1007b0000627ab00feff3a0000a7ef00000025006f
:1007c00010388800000000000627ab00feff3a004a
:1007d0000027ef00001025001038880000000000fe
:1007e0000627ab00feff3a0080ff24000038880097
:1007f0000020250010388800000000000627ab000c
:10080000feff3a000027ef00008025001038880026
:10081000000000000627ab00feff3a00001e20008b
:100820000038880040912500103888000000000042
:1008300000000600d4408000840f51000100360003
:10084000040178000627ab00feff3a004c0add00e9
:100850000202720004388800c408de0002a02500ed
:1008600001017100123888000000000090407800fb
:100870000104e000120032000001eb000000e8007b
:1008800005382500043025000627ab00feff3a009e
:100890008100fb00013888000304e00002003a00f8
:1008a0001438880001003700153888000000000067
:1008b000e24078000201e8000104e000f2ff3a00a3
:1008c000000006000038880000602600103888000c
:1008d000000006000038880000002500103888005d
:1008e000000006000038880000102500103888003d
:1008f000000006000607ab00feff320060388800eb
:100900007038880080388800903888000000060021
:10091000c0388800d03888000000060030388000d9
:1009200031388000c708de0033388000c619de0089
:10093000323880004511de008180710082807000b5
:10094000e1806000610060000000a2000100700012
:10095000f2ff3a0010002000b04088001608e200c4
:10096000feff3a00000006000627ab00feff3a003b
:1009700004142000048bb90086024000053888006a
:10098000040ab80004004000e0804a000430260059
:100990000482700014388800000000000627ab00b5
:1009a000feff3a004c10dd000300700000388800a4
:1009b0004411de000040260002007000103888005c
:1009c000000000000627ab00feff3a0000062000f2
:1009d00000388800007026001038880000000000f1
:1009e0000000060004142000049bb9000411b800a4
:1009f00083014300020140008381480002388800df
:100a0000003026000080710010388800100021009e
:100a10000038880000402600103888000627ab0008
:100a2000feff3a0000062000003888000070260013
:100a3000103888000000000000000600f0002000d0
:100a4000a0ff0700031e2000f21320006000b80082
:100a5000c5ff3700c0408000cf80de00808fd2000d
:100a60008182d2000002780004f0a10000c02500bd
:100a700001002000920180008001d0000403d0001a
:100a8000068041004220a800858048004200a9005d
:100a90004220ae004200a8000080d300810178000f
:100aa0009301880010407800920188000080fb00cc
:100ab0008000eb00808fd2008180d200000078009f
:100ac00000f0a1008bff0700c040800000f0a700ed
:100ad0000000ea000000e9004f00de00c04088008e
:100ae000d6ff370077ff0700031e2000120020000a
:100af0006000b8009cff0700031e200012002000c9
:100b00008000eb00e013200097ff07001300200097
:100b1000e21320006000b80093ff070013002000dc
:100b2000e2132000f11d20000000eb008eff3700d3
:100b3000f000200063ff0700031e200012002000c9
:100b40008000eb00f013200087ff3700bbff370069
:100b50008000eb00161402000000000002fd2000df
:100b600093042400c01402000000000002002000d2
:100b700043332400101302000000000080017800bd
:100b80000101780003007800820078000000060070
:100b90000400fa00889fbe008a9fbe008c9fbe00a2
:100ba0000204be0084bf9f0095bf9f000606be00e2
:100bb0000801be0050120200000000000005be0047
:100bc0000c01be003fb09700cfb09700501202005a
:100bd000000000000001be000a00be00c0140200b8
:100be000000000000005be000801be000fb897001d
:100bf0009fb8970050120200000000000001be00e4
:100c00000a00be0010130200000000000c01be002c
:100c100052120200000000009813020000000000c1
:100c20004f06be004f05be004f04be000080fa0014
:100c30000000060000000600f4874700889fbe0001
:100c40008a9fbe008c9fbe008e1f780080b79f00d9
:100c50000107780082bf9f00f3b79f000400be0029
:100c60000604be000fb197008e01780050120200fa
:100c70000000000080017800010178000306780080
:100c8000820678000c00be0001f0a100c0b79f00f2
:100c9000d1b79f008fb897007fb09700010178000f
:100ca000800178000800be00501202000000000021
:100cb0008001780001017800030578008205780042
:100cc0000a04be0009f0a1000801be004fb0970061
:100cd000dfb0970094130200000000000000e00065
:100ce00004003400cfb09700e1b79f005fb49700d5
:100cf0000300370008007800e0b79f00090478007f
:100d00006fb19700880178000c00be00101302003c
:100d100000000000c0b79f00b1b79f006fb19700ff
:100d2000880178000a00be001013020000000000d5
:100d3000a0b79f0091b79f00efb19700080178001e
:100d40000300780082007800981302000000000081
:100d5000800678000d00e0003d0032000006eb0048
:100d6000edb79f008fb69700cfb097003fb09700c8
:100d700001017800800178000d0278008e00780073
:100d800004037800810378000600be0052120200be
:100d90000000000080067800010778000d00780050
:100da0008e00780098130200000000006105b90071
:100db000afb097001fb09700010178008001780064
:100dc0000fba9700ffb09700040378008103780002
:100dd0000600be00521202000000000080bf9f000b
:100de000f1b79f00f013200001002000800f550094
:100df000818f5d0012003e008fb997007fb1970090
:100e000003007800820078009813020000000000c0
:100e10006104b900f01d200001002000800f540083
:100e2000818f5c0006003e0030002000a5fe070018
:100e300066014400e0814c000a00be00e9fe0700a4
:100e40000c06e800efb09700810f5600c6ff39008e
:100e50004f0778004f06be004f05be004f04be008e
:100e60004f01b100000006000f10b000889fbe00c7
:100e70008a9fbe008c9fbe008e1f78000204be00b9
:100e80000405be0092ff200093042400c014020059
:100e90000000000002002000433324001013020071
:100ea000000000000006be0092ff20009304240012
:100eb0000800be00c0140200000000000200200074
:100ec00043332400101302000000000000077800e4
:100ed000f1b79f0092ff2000930424000a00be0097
:100ee000c014020000000000020020004333240070
:100ef0001013020000000000a0b79f0091b79f00f0
:100f00000c00be00fa15020000000000f0af9f00c8
:100f100081b79f007fb197000e00780082007800b3
:100f2000fa15020000000000d0af9f00e1af9f0063
:100f3000afb197001fb197000300780082007800de
:100f4000fa150200000000000004be000c01780049
:100f50008d00780002027800810278000400be0053
:100f60000c130200000000000006be000e01780015
:100f7000ffb0970002027800810278000400be00f2
:100f80000c130200000000000005be002fb1970006
:100f90009fb0970002027800810278000400be0032
:100fa0000c130200000000000001be00b0b79f005b
:100fb000c1b79f000c00be00c0140200000000007a
:100fc00000077800c1af9f005fa99700efa99700c5
:100fd0007fa897008fb09700c014020000000000a7
:100fe0000801be00c0140200000000000001be00a5
:100ff000cfaa97000e0078008500780052120200f8
:1010000000000000a0b79f0091b79f00800178000a
:10101000c39f9f0001007800b09f9f000c00be009e
:1010200001f0a2000801be00c01402000000000090
:10103000f0b79f0081bf9f007fa997008fb19700f5
:101040003fb09700cfb09700c0140200000000002e
:101050005fa99700efa99700c014020000000000ec
:101060000001be007fb097008fb8970052120200b7
:1010700000000000a0af9f0091af9f0080017800aa
:10108000a39f9f0001007800909f9f007fa9970079
:101090008fb197000a00be00c014020000000000db
:1010a00080af9f00f1a79f0080007800819f9f0084
:1010b0007fa19700f2979f000801be000a00be00c2
:1010c000c014020000000000b0af9f00c1a79f0045
:1010d0008001780083a79f0001007800f09f9f00a7
:1010e0003fb19700cfb197000a00be00c0140200c4
:1010f00000000000b0a79f00a1a79f00800078001b
:10110000e19f9f002fa19700d29f9f005fa89700ab
:10111000efa8970001f0a200f0b79f0081bf9f00e9
:101120003fb09700cfb0970001f0a2007fa99700d1
:101130008fb19700c014020000000000b0b79f00fc
:10114000c1b79f005fa99700efa997000c00be00f0
:10115000c0140200000000000801be00c01402001c
:10116000000000000001be003fb09700cfb0970024
:101170005212020000000000b0b79f00e1a79f00dc
:1011800080017800e3979f0001007800d0979f00ce
:101190000801be007fa897008fb09700c01402001e
:1011a000000000000004be008e0078004fa89700e9
:1011b00001017800800178005fa89700efa89700f0
:1011c000c0140200000000000001be000800be00c4
:1011d0005212020000000000f0af9f00d1af9f004c
:1011e00080007800c1979f005fa99700b2979f0089
:1011f0000a01be000c00be00c01402000000000086
:10120000c0af9f00d1a79f0080017800a3979f00e7
:101210000104780098979f002fbd9600bfbd9600ef
:101220002f0e9700bf0e97000a01be003fb2970035
:10123000efa297000400be00c014020000000000ee
:101240000004be000c01be007faa9700dfaa970031
:101250000400be00c0140200000000000001be0037
:101260000800be0052120200000000000004be0090
:101270002f199700bf1997004faa9700dfa2970078
:101280000400be00c0140200000000000001be0007
:101290000800be0052120200000000000200200000
:1012a000832c240052120200000000000007780086
:1012b000d1b79f000a01be002fb297009fb29700de
:1012c0000400be00c0140200000000000004be00c4
:1012d0000c01be002faa97009faa97000400be0031
:1012e000c0140200000000000001be000800be00a3
:1012f00052120200000000000004be002f199700e7
:10130000bf1997000faa9700ffa297000400be0024
:10131000c0140200000000000001be000800be0072
:1013200052120200000000000200200003122400fc
:10133000c0140200000000005fb297000e017800a8
:101340008401780010130200000000000200200059
:101350000332240052120200000000000001780055
:10136000b28f9f0081017800a38f9f00a22f9f0062
:10137000b32f9f000a01be00bfaa97004fa297009b
:101380000500780084007800c0140200000000000e
:101390000004be000c01be00bfa297002fa2970060
:1013a0000500780084007800c014020000000000ee
:1013b0000001be000800be00521202000000000042
:1013c0000004be002f199700bf1997007fb0970047
:1013d0008fb89700c0140200000000000001be009a
:1013e0000800be00521202000000000002002000af
:1013f00003272400c0140200000000000e02780041
:10140000dfb1970004037800830378000601be0073
:101410001013020000000000020020000337240027
:101420005212020000000000d08f9f00c18f9f0069
:101430000001be00a23f9f00b33f9f004fbd96003a
:10144000dfbd96004f0e9700df0e97000a01be0029
:101450003fb29700efa297000400be00c014020044
:10146000000000000004be000c01be007faa97002f
:10147000dfaa97000400be00c014020000000000b4
:101480000001be000800be00521202000000000071
:101490000004be004f199700df1997004faa97006c
:1014a000dfa297000400be00c0140200000000008c
:1014b0000001be000800be00521202000000000041
:1014c00002002000832c24005212020000000000c1
:1014d00000077800d1b79f000a01be002fb2970025
:1014e0009fb297000400be00c0140200000000007c
:1014f0000004be000c01be002faa97009faa97000f
:101500000400be00c0140200000000000001be0084
:101510000800be0052120200000000000004be00dd
:101520004f199700df1997000faa9700ffa29700a5
:101530000400be00c0140200000000000001be0054
:101540000800be005212020000000000020020004d
:1015500003122400c0140200000000005fb29700d4
:101560000e017800840178001013020000000000d2
:10157000020020000332240052120200000000008a
:10158000c02f9f00d12f9f000a01be00bfaa970065
:101590004fa297000500780084007800c014020074
:1015a000000000000004be000c01be00bfa29700b6
:1015b0002fa297000500780084007800c014020074
:1015c000000000000001be000800be005212020030
:1015d000000000000004be004f199700df199700bb
:1015e0007fb097008fb89700c01402000000000081
:1015f0000001be000800be00521202000000000000
:101600000200200003272400c01402000000000094
:101610000e027800dfb1970004037800830378009e
:101620000601be00101302000000000002002000ae
:10163000033724005212020000000000c03f9f0048
:10164000d13f9f006fbd9600ffbd96006f0e9700c3
:10165000ff0e97000a01be003fb29700efa297006d
:101660000400be00c0140200000000000004be0020
:101670000c01be007faa9700dfaa97000400be00fd
:10168000c0140200000000000001be000800be00ff
:1016900052120200000000000004be006f19970003
:1016a000ff1997004faa9700dfa297000400be0021
:1016b000c0140200000000000001be000800be00cf
:1016c000521202000000000002002000832c2400bf
:1016d000521202000000000000077800d1b79f00fe
:1016e0000a01be002fb297009fb297000400be000f
:1016f000c0140200000000000004be000c01be0087
:101700002faa97009faa97000400be00c0140200f1
:10171000000000000001be000800be0052120200de
:10172000000000000004be006f199700ff19970029
:101730000faa9700ffa297000400be00c014020089
:10174000000000000001be000800be0052120200ae
:10175000000000000200200003122400c014020058
:10176000000000005fb297000e017800840178004d
:1017700010130200000000000200200003322400c9
:101780005212020000000000e02f9f00f12f9f0086
:101790000a01be00bfaa97004fa29700050078007b
:1017a00084007800c0140200000000000004be00a5
:1017b0000c01be00bfa297002fa297000500780081
:1017c00084007800c0140200000000000001be0088
:1017d0000800be0052120200000000000004be001b
:1017e0006f199700ff1997007fb097008fb8970087
:1017f000c0140200000000000001be000800be008e
:101800005212020000000000020020000327240002
:10181000c0140200000000000e027800dfb1970043
:1018200004037800830378000601be001013020051
:1018300000000000020020000337240052120200c2
:1018400000000000e03f9f00f13f9f000f05970060
:101850009f0597000f1697009f1697000a01be007c
:101860003fb29700efa297000400be00c014020030
:10187000000000000004be000c01be007faa97001b
:10188000dfaa97000400be00c014020000000000a0
:101890000001be000800be0052120200000000005d
:1018a0000004be000f2197009f2197004faa9700c8
:1018b000dfa297000400be00c01402000000000078
:1018c0000001be000800be0052120200000000002d
:1018d00002002000832c24005212020000000000ad
:1018e00000077800d1b79f000a01be002fb2970011
:1018f0009fb297000400be00c01402000000000068
:101900000004be000c01be002faa97009faa9700fa
:101910000400be00c0140200000000000001be0070
:101920000800be0052120200000000000004be00c9
:101930000f2197009f2197000faa9700ffa2970001
:101940000400be00c0140200000000000001be0040
:101950000800be0052120200000000000200200039
:1019600003122400c0140200000000005fb29700c0
:101970000e017800840178001013020000000000be
:101980000200200003322400521202000000000076
:1019900080379f0091379f000a01be00bfaa9700c1
:1019a0004fa297000500780084007800c014020060
:1019b000000000000004be000c01be00bfa29700a2
:1019c0002fa297000500780084007800c014020060
:1019d000000000000001be000800be00521202001c
:1019e000000000000004be000f2197009f21970017
:1019f0007fb097008fb89700c0140200000000006d
:101a00000001be000800be005212020000000000eb
:101a10000200200003272400c01402000000000080
:101a20000e027800dfb1970004037800830378008a
:101a30000601be001013020000000000020020009a
:101a400003372400521202000000000080879f002c
:101a500091879f002f059700bf0597002f169700cd
:101a6000bf1697000a01be003fb29700efa2970091
:101a70000400be00c0140200000000000004be000c
:101a80000c01be007faa9700dfaa97000400be00e9
:101a9000c0140200000000000001be000800be00eb
:101aa00052120200000000000004be002f21970027
:101ab000bf2197004faa9700dfa297000400be0045
:101ac000c0140200000000000001be000800be00bb
:101ad000521202000000000002002000832c2400ab
:101ae00052120200000000000007780091a79f003a
:101af0000a01be002fb297009fb297000400be00fb
:101b0000c0140200000000000004be000c01be0072
:101b10002faa97009faa97000400be00c0140200dd
:101b2000000000000001be000800be0052120200ca
:101b3000000000000004be002f219700bf21970085
:101b40000faa9700ffa297000400be00c014020075
:101b5000000000000001be000800be00521202009a
:101b6000000000000200200003122400c014020044
:101b7000000000001fa297000e0178008401780089
:101b800010130200000000000200200003322400b5
:101b90005212020000000000e08f9f00e1b79f009a
:101ba0000001be00a2379f00b3379f000a01be00ac
:101bb000bfaa97004fa29700050078008400780024
:101bc000c0140200000000000004be000c01be00b2
:101bd000bfa297002fa2970005007800840078002c
:101be000c0140200000000000001be000800be009a
:101bf00052120200000000000004be002f219700d6
:101c0000bf2197007fb097008fb89700c0140200e3
:101c1000000000000001be000800be0052120200d9
:101c2000000000000200200003272400c01402006e
:101c3000000000000e0278009fa1970004037800c6
:101c4000830378000601be001013020000000000ac
:101c5000020020000337240052120200000000009e
:101c60000001780082979f0081017800f38f9f0028
:101c7000a2879f00b3879f004f059700df0597005d
:101c80004f169700df1697000a01be003fb297007b
:101c9000efa297000400be00c01402000000000084
:101ca0000004be000c01be007faa9700dfaa9700c7
:101cb0000400be00c0140200000000000001be00cd
:101cc0000800be0052120200000000000004be0026
:101cd0004f219700df2197004faa9700dfa29700be
:101ce0000400be00c0140200000000000001be009d
:101cf0000800be0052120200000000000200200096
:101d0000832c24005212020000000000000778001b
:101d100091a79f000a01be002fb297009fb29700c3
:101d20000400be00c0140200000000000004be0059
:101d30000c01be002faa97009faa97000400be00c6
:101d4000c0140200000000000001be000800be0038
:101d500052120200000000000004be004f21970054
:101d6000df2197000faa9700ffa297000400be0092
:101d7000c0140200000000000001be000800be0008
:101d80005212020000000000020020000312240092
:101d9000c0140200000000001fa297000e0178008e
:101da00084017800101302000000000002002000ef
:101db000033224005212020000000000c0379f00ce
:101dc000d1379f000a01be00bfaa97004fa297001b
:101dd0000500780084007800c014020000000000b4
:101de0000004be000c01be00bfa297002fa2970006
:101df0000500780084007800c01402000000000094
:101e00000001be000800be005212020000000000e7
:101e10000004be004f219700df2197007fb097009c
:101e20008fb89700c0140200000000000001be003f
:101e30000800be0052120200000000000200200054
:101e400003272400c0140200000000000e027800e6
:101e50009fa1970004037800830378000601be0069
:101e600010130200000000000200200003372400cd
:101e70005212020000000000c0879f00d1879f001f
:101e80006f059700ff0597006f169700ff169700e4
:101e90000a01be003fb29700efa297000400be0007
:101ea000c0140200000000000004be000c01be00cf
:101eb0007faa9700dfaa97000400be00c0140200aa
:101ec000000000000001be000800be005212020027
:101ed000000000000004be006f219700ff21970062
:101ee0004faa9700dfa297000400be00c0140200b2
:101ef000000000000001be000800be0052120200f7
:101f00000000000002002000832c24005212020076
:101f10000000000000077800b1b79f000a01be0072
:101f20002fb297009fb297000400be00c0140200b9
:101f3000000000000004be000c01be002faa9700a4
:101f40009faa97000400be00c01402000000000019
:101f50000001be000800be00521202000000000096
:101f60000004be006f219700ff2197000faa970081
:101f7000ffa297000400be00c01402000000000091
:101f80000001be000800be00521202000000000066
:101f90000200200003122400c01402000000000010
:101fa0003fb297000e017800840178001013020000
:101fb0000000000002002000033224005212020040
:101fc00000000000e0379f00f1379f000a01be00cb
:101fd0008fa297007f9a9700050078008400780010
:101fe000c0140200000000000004be000c01be008e
:101ff000ef9a97005f9a97000500780084007800b8
:10200000c0140200000000000001be000800be0075
:1020100052120200000000000004be006f21970071
:10202000ff2197007fb097008fb89700c01402007f
:10203000000000000001be000800be0052120200b5
:10204000000000000200200003272400c01402004a
:10205000000000000e027800bfb197000403780072
:10206000830378000601be00101302000000000088
:10207000020020000337240052120200000000007a
:10208000e0879f00f1879f000f0d97009f0d97003d
:102090000f1e97009f1e97000a01be006f929700c7
:1020a000df9297000400be00c01402000000000090
:1020b0000004be000c01be004f929700bf92970033
:1020c0000400be00c0140200000000000001be00b9
:1020d0000800be0052120200000000000004be0012
:1020e0000f2997009f2997002f9297009f929700a2
:1020f0000400be00c0140200000000000001be0089
:102100000800be0052120200000000000200200081
:10211000832c240052120200000000000007780007
:1021200091b79f000a01be004f9a9700bf9a97008f
:102130000400be00c0140200000000000004be0045
:102140000c01be002f9a97009f9a97000400be00d2
:10215000c0140200000000000001be000800be0024
:1021600052120200000000000004be000f29970078
:102170009f2997000f9a9700ff9297000400be00d6
:10218000c0140200000000000001be000800be00f4
:10219000521202000000000002002000031224007e
:1021a000c0140200000000001fb297000e0178006a
:1021b00084017800101302000000000002002000db
:1021c000033224005212020000000000803f9f00f2
:1021d000913f9f000a01be008fa297007f9a97004f
:1021e0000500780084007800c014020000000000a0
:1021f0000004be000c01be00ef9a97005f9a9700a2
:102200000500780084007800c0140200000000007f
:102210000001be000800be005212020000000000d3
:102220000004be000f2997009f2997007fb09700f8
:102230008fb89700c0140200000000000001be002b
:102240000800be0052120200000000000200200040
:1022500003272400c0140200000000000e027800d2
:102260009fb1970004037800830378000601be0045
:1022700010130200000000000200200003372400b9
:102280005212020000000000808f9f00918f9f007b
:102290008f959700ff8e97006f8f97005f8c970048
:1022a0004f8d97003f8e9700af8c97000b037800ff
:1022b0008d0378000e027800efb2970008017800d5
:1022c0008a0178000c007800890078005afa07002b
:1022d0004f3b9700df3b97004f2a9700df2a97007c
:1022e000080178008a0178000c00780089007800e5
:1022f00051fa07004f839700df8397004f32970012
:10230000df3297000b0178008d0178000e00780015
:10231000efb0970048fa07004f869700df869700d6
:102320004f309700df309700f0b79f0081bf9f00cc
:102330004f3c9700df3c97004f2d9700df2d970013
:102340000c03be000002be000801be000a00be0071
:1023500039fa07006f3b9700ff3b97006f2a970001
:10236000ff2a97000801be000a00be0032fa0700eb
:102370006f839700ff8397006f329700ff329700bb
:102380000c01be007fb097008fb897002afa0700b3
:102390006f869700ff8697006f319700ff31970097
:1023a000f2b79f0083bf9f006f3c9700ff3c9700f0
:1023b0006f2d9700ff2d97000c03be000202be0098
:1023c0000801be000a00be001bfa07000f83970039
:1023d0009f8397000f3297009f3297000801be003d
:1023e0000a00be0014fa07000f8b97009f8b97001e
:1023f0000f3a97009f3a97000c01be007fb09700fc
:102400008fb897000cfa07000f8e97009f8e9700e9
:102410000f3897009f389700f0b79f0081bf9f004b
:102420000f8497009f8497000f3597009f35970082
:102430000c03be000002be000801be000a00be0080
:10244000fdf907002f3b9700bf3b97002f2a97000d
:10245000bf2a97000801be000a00be00f6f9070077
:102460002f839700bf8397002f329700bf329700ca
:102470000c01be007fb097008fb89700eef90700ff
:102480004f0778004f06be004f05be004f04be0048
:102490000f10b100000006000040da000000fe004e
:1024a00003f0a200889fbe008a9fbe008c1f7800a8
:1024b0001b010700220133006450e1004f0032008d
:1024c0006420e1005200320003826c0007003b00f0
:1024d0000905d0000306d000820f54000c065d00f1
:1024e00002003900020032008901780003067800fa
:1024f0008582550004003d000003fd008103fd00be
:102500008502ea008b854200840f720002003b00c6
:1025100060001000e08018006011b8000005eb00ba
:102520007a28e1000a00390006007800c75ddd0066
:10253000f707b200878075002d0037008281710097
:102540000a017800610560008180d1000080d3001d
:102550008502e900f9ff3b0006044000878448003b
:1025600002003b0060041400e0841c000988a30002
:10257000070032008a81710082817100610164006c
:102580008904d1000884d3008b05e80017003700c8
:102590000978a30013003a000b00e0001300340098
:1025a0008b05e9000804440089844c000a44740047
:1025b0000978a3000d003a000b00e000070034008a
:1025c0008b05e9000804440089844c0001003a00ae
:1025d0000b0020000978a300f7ff32000001eb0098
:1025e00002003700828171000a0178009100070023
:1025f0000cf0a70001f0a000da0037006420e10031
:1026000002003a00838f6c00da0033000801be003c
:102610000200be00d30037000081eb000c01370040
:10262000889fbe008a9fbe008c1f7800bc000700f8
:10263000c300330003866c006450e1002e003200ba
:102640006420e100330032006150e1002f003200cd
:102650006120e1003100320085855500eb07b000b4
:102660000900200008042000050037000804440089
:1026700089844c000a0031000603430087834b0025
:102680000001530081815b00f8ff33000203be00ac
:102690000800a0000804440089844c00f6ff3900bb
:1026a000c639dd00830173000100320013002000f1
:1026b0008904d1000884d3000998a30005003200e2
:1026c0000800a7000300a0008904d1000884d300fb
:1026d0008b05e8008904d1000884d3000001eb00d9
:1026e0000281d2005300070001f0a1000cf0a70006
:1026f00001f0a0009b0037006420e1009d00320043
:102700000801be000200be00f7ff37006120e100b3
:10271000980032006000b800f3ff3700000020008e
:1027200001f82700f0ff3700f4ff2f0036013700d3
:102730000001be00650007000470a70003f0a100bf
:102740006509b100160032000d0035006828e1006f
:1027500006003500f0ff2f00f1ff27000300e00026
:1027600013003b00010028000000050000004000ad
:10277000818048008502e900fcff3a00080037002c
:10278000f88f420002003c008000eb0000000500d2
:102790008100d1000080d3008502e800fcff3a00f0
:1027a0000300e00002003b0060001000e080180021
:1027b000000006000001be00440007000470a700ee
:1027c00003f0a10003f8a30013003a006509b1006b
:1027d00010003200090035006928e10002003500d0
:1027e0000100280000000500000040008180480032
:1027f0008502e900fcff3a0000000600f88f420065
:10280000050035008100d1000080d3008502e8007a
:10281000fcff3a00000006008000eb00000005000d
:102820004f89de0082017800140137006011b80082
:102830002201370081002000618055000b003d001f
:102840000b00200061fe2f000100e1001d0034009c
:1028500082817100610164008904d1000884d30081
:102860000000e800faff3a007100200061006400f7
:10287000030070000200600009003200610444009f
:10288000e0844c000988a500050032008b05e800b3
:102890006808e10002003a008904d1000884d300ee
:1028a000f20f20000258e10005003d00c75ddd0089
:1028b000f907b20089807500080078000000060062
:1028c0000bf827008b00780000000500c70ade0027
:1028d000f107b200f50fb20008003200e1cf42006c
:1028e000020032000170a00024000500810f70007a
:1028f000010032000408050044000500810f70004b
:1029000002003a00140005008502e90000004000c2
:1029100081c04800fcff3b000170a00024000500be
:102920000004be00e9ff07000003be000405be006e
:102930000200be00e5ff0700844f7500000006009e
:102940000200be006450e100050036006420e10092
:10295000020036000968a30001003a000800be002a
:102960000160a0004f0678004f05be004f04be0076
:1029700000000600f0ff2f00f1ff2700f9ff3700ed
:10298000889fbe008a9fbe008c1f7800e4ff07006e
:10299000ebff330003866c006450e100240032003a
:1029a0006420e100270032006150e1002200320083
:1029b0006120e100210032008b854200eb07b1006d
:1029c0000134b800003ab8000804420089844a0083
:1029d000013ab8000030b8008880400009014a0080
:1029e00004003300000040008180480002014900db
:1029f0008b05e900c909dd00830170000100320088
:102a000013002000c814de004814dd004709de0072
:102a10001200b200c808de000884700085ff0700bd
:102a200001f0a1000cf0a70001f0a000cdff3700dd
:102a30006120e100cfff32000801be000200be00ad
:102a4000f7ff37006150e100fcff3a00c9ff370093
:102a5000889fbe008a9fbe008c9fbe0082057800c2
:102a60000004be0099ff07000800be006420e100da
:102a70000700390002003a00f1ff2700f0ff2f00a5
:102a80000160a000120220000241880055003700ba
:102a90006120e10003003a000b00a70001f82300c9
:102aa0005000370001f0a1000200210093642400cf
:102ab000700007000800be0004003500b2fd2000d1
:102ac000930c2400ac0007000004be000005eb00de
:102ad0000b00a6004f0dde0001f0a1000004be00b7
:102ae00032982f0023ea2300a5ff07000001eb0026
:102af00003f023000b00a70003f8230069fe070082
:102b00000bff07000000a7000a00a20044ff070017
:102b10000b00e000030032000200200003f023005d
:102b20005ffe070001f0a2000006be0002002000c8
:102b30009304240092ff07000801be0059fe07001d
:102b4000809fbe000c00be0022a22a00d3a7230053
:102b50008bff07004f01be0052fe07000004be00bd
:102b600001f0a100020020000398230041000700ab
:102b70000800be00190035000001be0080ff0700fc
:102b80000006be00b2c52900e36223007cff0700f7
:102b900022222b00f3942b0042fe07000c01be0002
:102ba00077ff0700e273280083c023003dfe070083
:102bb0000c01be0072ff070042aa2a00a3e22b000c
:102bc00038fe07000c01be006dff07000801be00c3
:102bd0006bff07000801be0032fe07000a00a700d5
:102be00001f0a2004f06be004f05be004f04be001c
:102bf000000006000001eb0095ff3700af00070062
:102c00000400be0000000600889fbe008a9fbe0030
:102c1000841f780042ff07004f0078001100330046
:102c2000f0ff2f00838f6c0006003b000405650059
:102c30000a00a7000800370009f0a60010002000d5
:102c400008003700820f5400838f5c0003003900b6
:102c50001000200001003e000000200009f0a70045
:102c60000000ea004f05be004f04be000000e00077
:102c70000000060014002000e3ff3700881f7800e2
:102c8000030478000300e00007003d00600010002e
:102c9000e080180060011900e081190002003b008b
:102ca00001f02d00030037000400070008f0a70022
:102cb00001f0a0004f04780000000600889fbe00cd
:102cc0008a9fbe00008270000402710004827100bd
:102cd000260032000004be000200be006011b800f1
:102ce0006b092000950220000182cf000a00390004
:102cf0000541b1000082cf00070039000541b10055
:102d00000982cf00040039000541b1000882cf00dc
:102d1000010039000541b1000542520012003200a5
:102d20000a003b0082817100610164008100d100d2
:102d30000080d3008984d3000884d3008b05e80089
:102d40000442e800f7ff3a00070037000804440097
:102d500089844c0000004800818048008b05e90010
:102d60000442e900f9ff3a00b2fe07004f05be0039
:102d70004f04be00000006000400200000003700e1
:102d8000889fbe008a9fbe008c1f78004f26dd0002
:102d9000e3fe0700eafe33006120e1004300320059
:102da0006250e10041003e003e0039006420e10035
:102db0003c003200058255000f003b000402e80091
:102dc00038003a00800f5300818f5b0035003400db
:102dd0000800be0003f0a10001f0a60003f0a0006f
:102de0000cf0a700affd0700defe3700060343002e
:102df00087834b000c4646000005530081855b002d
:102e0000020033000a03be000c00a0000402e90027
:102e1000f6ff3b00850578000602430087824b00e1
:102e200004003a006000b80009f0a70001f0a0001b
:102e3000ccfe37000002520081825a000704e000f5
:102e4000040033000603430087834b008b05e90031
:102e5000faff3700090578000604be000203be0031
:102e60006011b80073fe0700e00f5200e08f5a00b7
:102e70000700350002003c000c08a30004003200eb
:102e80000601be0003f0a0000cf0a70085fd0700be
:102e90000a85680001f0a1000af0a70001f0a00077
:102ea000b0fe37000800be00aefe37001002200062
:102eb0000cf0a60000418800aefe37006022b8008a
:102ec000060220000000d0008180d2000482d200df
:102ed0008582d2000000a0000202520083825a00c4
:102ee000030031000202420083824a000000a10078
:102ef0000603e900f3ff3a00000006008000eb0043
:102f0000705988008159880011c0b300c0b22000f8
:102f10000148780000000600c0b220001004e00064
:102f200002003a0010002000f4ff0700d2e624005f
:102f3000631c24007059800081598000090007003b
:102f40009203230003002000000141008181490019
:102f500072598800835988000300780000f0a100ae
:102f600000000600020ab900001bb9000200b80008
:0c2f7000810042008100430000000600c8
:020000040000fa
:102f7c004120000066610000746100006c200000bc
:102f8c0065780000636500007065000074690000de
:102f9c006f6e0000203000007832000034440000d6
:102fac002068000061730000206f00006363000064
:102fbc0075720000726500006420000061740000ee
:102fcc0020300000304600004300000020090000c3
:102fdc002a2000004375000072720000656e00002c
:102fec007420000061700000706c000069630000c8
:102ffc0061740000696f00006e20000077690000aa
:10300c006c6c0000206200006520000074650000fc
:10301c00726d0000696e0000617400006564000050
:10302c002e000000200900002a200000455200005c
:10303c00524f0000523a000020430000505500004f
:10304c002072000065660000757300006564000066
:10305c00207400006f2000006c6f000061640000a1
:10306c002073000068690000742000006465000093
:10307c006d6f0000732e000000200000092a000074
:10308c002050000072650000737300002061000086
:10309c006e790000206b000065790000206f000045
:1030ac00722000006a750000737400002067000035
:1030bc00697600006520000075700000206100003a
:1030cc006c72000065610000647900002e00000045
:1030dc00200900002a2000005072000065730000d7
:1030ec007320000043540000524c0000202b0000c1
:1030fc00204100004c540000202b00002044000014
:10310c00454c0000206600006f7200002066000035
:10311c00756e0000210000002a2a00002a20000001
:10312c005348000049540000444500004d4f000036
:10313c002e45000058450000202d000020200000e6
:10314c00416400006472000065730000732000008d
:10315c00307800003439000044550000434600002c
:10316c0041000000507200006573000073200000e5
:10317c00616e0000792000006b6500007920000072
:10318c00746f0000206300006f6e00007469000013
:10319c006e750000652e00002e2e00000000000051
:020000040000fa
:1031ac000000000000000000000000000000000013
:1031bc000000000000000000000000000000000003
:1031cc0000000000000000000000000000000000f3
:1031dc0000000000000000000000000000000000e3
:1031ec0000000000000000000000000000000000d3
:1031fc0000000000000000000000000000000000c3
:10320c0000000000000100000202000002020000a9
:10321c00020100000000000000000000000000009f
:10322c000000000000000000000000000000000092
:10323c000000000000000000000000000000000082
:10324c000000000000000000000000000101000070
:10325c000101000001030000030300000303000050
:10326c000302000001010000020000000000000049
:10327c000000000000000000000000000000000042
:10328c000000000000000000000000000000000032
:10329c00000000000000000001010000030300001a
:1032ac0003030000030300000303000003030000fa
:1032bc0003030000030300000301000001000000f1
:1032cc0000000000000000000001000000000000f1
:1032dc0000000000000000000000000000000000e2
:1032ec0000000000000100000303000003030000c5
:1032fc0003030000030300000302000003030000ab
:10330c00030300000303000003030000030200009a
:10331c00000000000000000001030000000000009d
:10332c000000000000000000000000000000000091
:10333c00000000000000000000000000030300007b
:10334c000303000003030000030300000303000059
:10335c000404000003030000020300000303000048
:10336c000303000000010000030300000000000044
:10337c000000000000000000000000000000000041
:10338c000000000000000000000000000001000030
:10339c00010100000303000003030000030200000e
:1033ac0004040000020300000202000002020000fc
:1033bc0003030000020300000303000000000000f0
:1033cc0000000000000000000000000000000000f1
:1033dc0000000000000000000000000000000000e1
:1033ec0000000000010300000303000003040000c0
:1033fc0004040000040200000302000002020000aa
:10340c00020300000303000003030000000000009f
:10341c0000000000000000000000000000000000a0
:10342c000000000000000000000000000000000090
:10343c000000000000020000030300000304000071
:10344c000404000004040000030200000202000057
:10345c000202000003030000030300000000000050
:10346c000000000000000000000000000000000050
:10347c000000000000000000000000000000000040
:10348c00000000000303000003030000030400001d
:10349c00040200000303000002020000020200000c
:1034ac000202000002030000030300000000000001
:1034bc000000000000000000000000000000000000
:1034cc0000000000000000000000000002030000eb
:1034dc0003030000030300000303000003030000c8
:1034ec0003030000030200000202000001010000bf
:1034fc0002020000030300000303000000000000b0
:10350c0000000000000000000000000000000000af
:10351c000000000000000000020200000303000095
:10352c00030300000303000002020000020300007a
:10353c00020200000202000003030000030300006b
:10354c00030200000202000003030000020100005d
:10355c00000000000000000000000000000000005f
:10356c000000000000020000030300000303000041
:10357c00030200000303000003020000020100002c
:10358c00010200000203000003030000020200001d
:10359c00020200000203000003030000030100000c
:1035ac00000000000000000000000000000000000f
:1035bc0000000000020300000303000003020000ef
:1035cc0003030000030200000303000002050000d7
:1035dc0002030000030300000301000005050000c6
:1035ec0005020000030300000303000002000000ba
:1035fc0000000000000000000000000000000000bf
:10360c00000200000303000003030000030300009a
:10361c000303000003030000030300000302000087
:10362c000203000003030000010500000505000073
:10363c000505000003030000030200000200000067
:10364c00000000000000000000000000000000006e
:10365c000003000003030000030300000303000049
:10366c000303000003030000030300000303000036
:10367c000303000003030000010500000505000022
:10368c000505000005030000030300000100000015
:10369c00000000000000000000000000000000001e
:1036ac000001000001010000010100000102000006
:1036bc0003030000030300000303000002030000e7
:1036cc0003030000030300000105000005050000d2
:1036dc0005050000060200000203000001000000c6
:1036ec0000000000000000000000000000000000ce
:1036fc0000000000000000000000000000010000bd
:10370c000101000003030000030300000303000099
:10371c000203000003030000020100000505000085
:10372c00050500000606000002060000020000006d
:10373c00000000000000000000000000000000007d
:10374c00000000000000000000000000000000006d
:10375c00000000000303000003030000030300004b
:10376c000303000002020000020100000505000036
:10377c000505000006020000020400000302000020
:10378c00000000000000000000000000000000002d
:10379c00000000000000000000000000000000001d
:1037ac0001030000030300000303000003030000f7
:1037bc0003010000040400000404000001040000e4
:1037cc0005050000050400000401000006060000c9
:1037dc0002000000000000000000000000000000db
:1037ec0000000000000000000000000000010000cc
:1037fc0003030000030200000303000003030000a6
:10380c00040400000404000004040000040400008c
:10381c00010100000404000004060000060600007c
:10382c00010000000000000000000000000000008b
:10383c000000000000000000000000000103000078
:10384c000303000003030000030300000303000054
:10385c00040400000404000004040000040400003c
:10386c000404000004040000040600000100000031
:10387c00000000000000000000000000000000003c
:10388c000000000000000000000100000303000025
:10389c000303000003030000030300000303000004
:1038ac0003040000040400000404000004040000ed
:1038bc0004040000040400000404000000000000e4
:1038cc0000000000000000000000000000000000ec
:1038dc0000000000000000000003000003030000d3
:1038ec0002030000020200000303000003030000b7
:1038fc00030300000404000004040000040400009e
:10390c000404000004040000040000000000000097
:10391c00000000000000000000000000000000009b
:10392c000000000000000000000300000302000083
:10393c000000000000000000010300000303000071
:10394c000303000003030000040200000404000051
:10395c000404000000000000000000000000000053
:10396c00000000000000000000000000000000004b
:10397c00000000000000000000000000000000003b
:10398c00000000000002000003030000030300001d
:10399c000303000003030000030300000303000003
:1039ac000300000000000000000000000000000008
:1039bc0000000000000000000000000000000000fb
:1039cc0000000000000000000000000000000000eb
:1039dc0000000000000200000303000003040000cc
:1039ec0004040000040300000303000004010000b1
:1039fc0001040000000000000101000001000000b3
:103a0c0000000000000000000000000000000000aa
:103a1c00000000000000000000000000000000009a
:103a2c000000000001030000030300000404000078
:103a3c00040400000303000003040000040400005d
:103a4c000504000002010000050100000101000056
:103a5c00000000000000000000000000000000005a
:103a6c00000000000000000000000000000000004a
:103a7c000000000003030000030400000404000025
:103a8c00040200000302000004040000040500000e
:103a9c000505000002020000050500000101000000
:103aac000100000000000000000000000000000009
:103abc0000000000000000000000000000000000fa
:103acc0000000000030100000404000002010000db
:103adc0001050000050500000404000004040000ba
:103aec0005040000020200000102000002010000b7
:103afc0001000000000000000000000000000000b9
:103b0c0000000000000000000000000000000000a9
:103b1c000000000000000000010200000101000094
:103b2c000101000005050000010400000404000070
:103b3c000404000002020000010200000101000068
:103b4c000100000000000000000000000000000068
:103b5c000000000000000000000000000000000059
:103b6c000000000000020000030200000101000040
:103b7c000101000005010000050100000404000023
:103b8c000403000003020000020100000101000018
:103b9c000100000000000000000000000000000018
:103bac000000000000000000000000000000000009
:103bbc0000000000000100000302000001010000f1
:103bcc0001010000010100000101000002020000df
:103bdc0002010000020200000201000002020000cb
:103bec0000000000000000000000000000000000c9
:103bfc0000000000000000000000000000000000b9
:103c0c0000000000000000000203000002010000a0
:103c1c00010100000101000002020000020300008b
:103c2c00030000000202000002020000020100007a
:103c3c000000000000000000000000000000000078
:103c4c000000000000000000000000000000000068
:103c5c000000000000000000010200000202000051
:103c6c000101000001020000020200000303000039
:103c7c00030000000002000003020000000000002e
:103c8c000000000000000000000000000000000028
:103c9c000000000000000000000000000000000018
:103cac000000000000000000000100000302000002
:103cbc0002020000020200000305000001030000e4
:103ccc0003000000000000000000000000000000e5
:103cdc0000000000000000000000000000000000d8
:103cec0000000000000000000000000000000000c8
:103cfc0000000000000000000000000000020000b6
:103d0c000202000002030000020500000203000092
:103d1c000300000000000000000000000000000094
:103d2c000000000000000000000000000000000087
:103d3c000000000000000000000000000000000077
:103d4c000000000000000000000000000003000064
:103d5c00030300000201000005050000020300003f
:103d6c000300000000000000000000000000000044
:103d7c000000000000000000000000000000000037
:103d8c000000000000000000000000000000000027
:103d9c000000000000000000000000000103000013
:103dac0003030000020500000505000003030000ea
:103dbc0003010000000000000000000000000000f3
:103dcc0000000000000000000000000000000000e7
:103ddc0000000000000000000000000000000000d7
:103dec0000000000000000000001000002010000c3
:103dfc00030300000205000005010000020300009f
:103e0c0003010000000000000000000000000000a2
:103e1c000000000000000000000000000000000096
:103e2c000000000000000000000000000000000086
:103e3c000000000000000000010200000101000071
:103e4c00010100000101000002020000010100005c
:103e5c000101000000000000000000000000000054
:103e6c000000000000000000000000000000000046
:103e7c000000000000000000000000000000000036
:103e8c00000000000000000001030000020200001e
:103e9c00010100000102000002020000010100000b
:103eac000102000002000000000000000000000001
:103ebc0000000000000000000000000000000000f6
:103ecc0000000000000000000000000000000000e6
:103edc0000000000000000000106000006060000c3
:103eec0006060000060600000702000001010000a3
:103efc000703000007070000070000000000000097
:103f0c0000000000000000000000000000000000a5
:103f1c000000000000000000000000000000000095
:103f2c00000000000000000002060000070700006f
:103f3c000707000007020000060200000202000052
:103f4c00060700000707000007010000010700003a
:103f5c000000000000000000000000000000000055
:103f6c000000000000000000000000000000000045
:103f7c00000000000006000006070000010500001c
:103f8c0005050000050500000707000007060000f6
:103f9c0007070000070700000101000001070000ef
:103fac0007000000000000000000000000000000fe
:103fbc0000000000000000000000000000000000f5
:103fcc0000000000000600000701000007070000c9
:103fdc0007070000070700000507000006070000a0
:103fec0007070000020100000101000007070000a4
:103ffc0007070000070000000000000000000000a0
:10400c0000000000000000000000000000000000a4
:10401c000000000000060000070700000707000072
:10402c000707000001070000070700000607000053
:10403c00070700000201000001070000070700004d
:10404c000707000001070000070000000000000047
:10405c000000000000000000000000000000000054
:10406c000000000000060000070700000707000022
:10407c0007070000070700000707000006070000fd
:10408c000702000002020000010700000707000001
:10409c0007070000070700000700000000000000f1
:1040ac000000000000000000000000000000000004
:1040bc0000000000000600000607000007070000d3
:1040cc0007070000070700000706000006070000ae
:1040dc0007020000020200000207000007070000b0
:1040ec000707000007070000070700000700000093
:1040fc0000000000000000000000000000000000b4
:10410c00000000000000000006060000060600008b
:10411c000606000006060000060600000606000063
:10412c000606000006060000060600000606000053
:10413c000606000006060000060600000600000049
:10414c000000000000000000000000000000000063
:10415c000000000000000000000000000000000053
:10416c000000000000000000000000000000000043
:10417c000000000000000000000000000000000033
:10418c000000000000000000000000000000000023
:10419c000000000000000000000000000000000013
:1041ac000000000000000000000000000000000003
:1041bc0000000000000000000000000000000000f3
:1041cc0000000000000000000000000000000000e3
:1041dc0000000000000000000000000000000000d3
:1041ec0000000000000000000000000000000000c3
:1041fc0000000000000000000000000000000000b3
:10420c0000000000000000000000000000000000a2
:10421c000000000000000000000000000000000092
:10422c000000000000000000000000000000000082
:10423c000000000000000000000000000000000072
:10424c000000000000000000000000000000000062
:10425c000000000000000000000000000000000052
:10426c000000000000000000000000000000000042
:10427c000000000000000000000000000000000032
:10428c000000000000000000000000000000000022
:10429c000000000000000000010000000000000011
:1042ac000000000000000000000000000000000002
:1042bc0000000000000000000000000000000000f2
:1042cc0000000000000000000000000000000000e2
:1042dc0000000000000000000000000000000000d2
:1042ec0000000000000000000000000000000000c2
:1042fc0000000000000000000000000000000000b2
:10430c0000000000000000000000000000000000a1
:10431c000000000000000000000000000000000091
:10432c000000000000000000000000000000000081
:10433c000000000000000000000000000000000071
:10434c000000000000000000000000000000000061
:10435c000000000000000000000000000000000051
:10436c000000000000000000000000000000000041
:10437c000000000000000000000000000000000031
:10438c000000000000000000000000000000000021
:10439c000000000000000000000000000000000011
:1043ac000000000000000000000000000000000001
:1043bc0000000000000000000000000000000000f1
:1043cc0000000000000000000000000000000000e1
:1043dc0000000000000000000000000000000000d1
:1043ec0000000000000000000000000000000000c1
:1043fc0000000000000000000000000000000000b1
:10440c0000000000000000000000000000000000a0
:10441c00000000000001000001010000000000008d
:10442c000000000000000000000000000000000080
:10443c000000000000000000000000000000000070
:10444c00020000000000000000000000000000005e
:10445c000000000000000000000000000000000050
:10446c000000000000000000000000000000000040
:10447c000000000000000000000000000000000030
:10448c000000000000000000000000000000000020
:10449c000000000000000000000000000000000010
:1044ac000000000000000000000000000000000000
:1044bc0000000000000000000000000000000000f0
:1044cc0000000000000000000000000000000000e0
:1044dc0000000000000000000000000000000000d0
:1044ec0000000000000000000000000000000000c0
:1044fc0000000000000000000000000000000000b0
:10450c00000000000000000000000000000000009f
:10451c00000000000000000000000000000000008f
:10452c00000000000000000000000000000000007f
:10453c00000000000000000000000000000000006f
:10454c00000000000000000000000000000000005f
:10455c00000000000000000000000000000000004f
:10456c00000000000000000000000000000000003f
:10457c00000000000000000000000000000000002f
:10458c00000000000000000000000000010100001d
:10459c00000000000001000000000000000000000e
:1045ac0000000000000000000000000000000000ff
:1045bc0000000000000000000202000000000000eb
:1045cc0000000000000000000000000000000000df
:1045dc0001010000000000000000000000000000cd
:1045ec0000000000000000000000000000000000bf
:1045fc0000000000000000000000000000000000af
:10460c00000000000000000000000000000000009e
:10461c00000000000000000000000000000000008e
:10462c00000000000000000000000000000000007e
:10463c00000000000000000000000000000000006e
:10464c00000000000000000000000000000000005e
:10465c00000000000000000000000000000000004e
:10466c00000000000000000000000000000000003e
:10467c00000000000000000000000000000000002e
:10468c00000000000000000000000000000000001e
:10469c00000000000000000000000000000000000e
:1046ac0000000000000000000000000000000000fe
:1046bc0000000000000000000000000000000000ee
:1046cc0000000000000000000000000000000000de
:1046dc0000000000000000000000000000000000ce
:1046ec0000000000000000000000000000000000be
:1046fc0000000000000000000001000000000000ad
:10470c00000000000000000000000000000000009d
:10471c000101000001010000000100000101000086
:10472c00010000000000000000000000000000007c
:10473c000101000001010000000100000101000066
:10474c000101000001010000010100000000000057
:10475c00000000000000000000000000010000004c
:10476c00000000000000000000000000000000003d
:10477c00000000000000000000000000000000002d
:10478c00000000000000000000000000000000001d
:10479c00000000000000000000000000000000000d
:1047ac0000000000000000000000000000000000fd
:1047bc0000000000000000000000000000000000ed
:1047cc0000000000000000000000000000000000dd
:1047dc0000000000000000000000000000000000cd
:1047ec0000000000000000000000000000000000bd
:1047fc0000000000000000000000000000000000ad
:10480c00000000000000000000000000000000009c
:10481c00000000000000000000000000000000008c
:10482c00000000000000000000000000000000007c
:10483c00000000000000000000000000000000006c
:10484c00000000000000000000000000000000005c
:10485c00000000000000000000000000000000004c
:10486c00000000000000000000000000000000003c
:10487c00000000000000000000000000000000002c
:10488c00000000000000000000010000000000001b
:10489c00000000000000000001000000000000000b
:1048ac0001010000030100000301000001010000f0
:1048bc0001010000010100000000000001000000e7
:1048cc0000000000040400000404000004040000c4
:1048dc0004040000020000000001000001010000bf
:1048ec0000000000000000000001000001010000b9
:1048fc0000000000000000000000000000000000ac
:10490c00000000000000000000000000000000009b
:10491c00000000000000000000000000000000008b
:10492c00000000000000000000000000000000007b
:10493c00000000000000000000000000000000006b
:10494c00000000000000000000000000000000005b
:10495c00000000000000000000000000000000004b
:10496c00000000000000000000000000000000003b
:10497c00000000000000000000000000000000002b
:10498c00000000000000000000000000000000001b
:10499c00000000000000000000000000000000000b
:1049ac0000000000000000000000000000000000fb
:1049bc0000000000000000000000000000000000eb
:1049cc0000000000000000000000000000000000db
:1049dc0000000000000000000000000000000000cb
:1049ec0000000000000000000000000000000000bb
:1049fc0000000000000000000000000000000000ab
:104a0c00000000000000000000000000000000009a
:104a1c000000000000010000010000000000000088
:104a2c000000000000000000010100000103000074
:104a3c00010300000103000001010000030300005a
:104a4c000101000001000000010100000000000055
:104a5c000000000005060000060600000706000026
:104a6c00070600000606000006040000060400000d
:104a7c000202000002000000020000000000000022
:104a8c00000000000000000000000000000000001a
:104a9c00000000000000000000000000000000000a
:104aac0000000000000000000000000000000000fa
:104abc0000000000000000000000000000000000ea
:104acc0000000000000000000000000000000000da
:104adc0000000000000000000000000000000000ca
:104aec0000000000000000000000000000000000ba
:104afc0000000000000000000000000000000000aa
:104b0c000000000000000000000000000000000099
:104b1c000000000000000000000000000000000089
:104b2c000000000000000000000000000000000079
:104b3c000000000000000000000000000000000069
:104b4c000000000000000000000000000000000059
:104b5c000000000000000000000000000000000049
:104b6c000000000000000000000000000000000039
:104b7c000000000000000000000000000000000029
:104b8c000000000000000000000000000000000019
:104b9c000000000000000000000000000002000007
:104bac0000010000000000000202000002000000f2
:104bbc0003000000010100000303000003010000da
:104bcc0003010000030100000301000001010000cb
:104bdc0001010000000000000100000000000000c6
:104bec000000000002040000080800000808000093
:104bfc00080800000807000008080000070700006c
:104c0c000606000006060000040400000402000072
:104c1c000000000000000000010000000000000087
:104c2c000000000000000000000000000000000078
:104c3c000000000000000000000000000000000068
:104c4c000000000000000000000000000000000058
:104c5c000000000000000000000000000000000048
:104c6c000000000000000000000000000000000038
:104c7c000000000000000000000000000000000028
:104c8c000000000000000000000000000000000018
:104c9c000000000000000000000000000000000008
:104cac0000000000000000000000000000000000f8
:104cbc0000000000000000000000000000000000e8
:104ccc0000000000000000000000000000000000d8
:104cdc0000000000000000000000000000000000c8
:104cec0000000000000000000000000000000000b8
:104cfc0000000000000000000000000000000000a8
:104d0c000000000000000000000000000000000097
:104d1c000000000000000000000000000000000087
:104d2c000000000000000000000000000101000075
:104d3c00000000000004000009070000040400004b
:104d4c000201000003030000010300000103000046
:104d5c000103000001030000030100000103000037
:104d6c000101000000000000010000000000000034
:104d7c000000000002050000060600000607000007
:104d8c0006060000060700000708000008080000df
:104d9c0008080000080700000707000007060000cd
:104dac0009040000020000000000000000010000e7
:104dbc0000000000000000000000000000000000e7
:104dcc0000000000000000000000000000000000d7
:104ddc0000000000000000000000000000000000c7
:104dec0000000000000000000000000000000000b7
:104dfc0000000000000000000000000000000000a7
:104e0c000000000000000000000000000000000096
:104e1c000000000000000000000000000000000086
:104e2c000000000000000000000000000000000076
:104e3c000000000000000000000000000000000066
:104e4c000000000000000000000000000000000056
:104e5c000000000000000000000000000000000046
:104e6c000000000000000000000000000000000036
:104e7c000000000000000000000000000000000026
:104e8c000000000000000000000000000101000014
:104e9c000101000000000000000000000000000004
:104eac0000000000000000000000000000000000f6
:104ebc0000000000010100000000000002000000e2
:104ecc0004040000060700000704000003030000b0
:104edc0003030000030300000301000003010000b2
:104eec0003010000030100000101000001010000aa
:104efc0001010000010000000000000000000000a3
:104f0c00020200000205000009060000060600006f
:104f1c000606000006060000060600000707000053
:104f2c00040700000807000007080000080800003c
:104f3c00080600000606000009040000000000003e
:104f4c000001000001000000000000000100000052
:104f5c000000000000000000000000000000000045
:104f6c000000000000000000000000000000000035
:104f7c000000000000000000000000000000000025
:104f8c000000000000000000000000000000000015
:104f9c000000000000000000000000000000000005
:104fac0000000000000000000000000000000000f5
:104fbc0000000000000000000000000000000000e5
:104fcc0000000000000000000000000000000000d5
:104fdc0000000000000000000000000000000000c5
:104fec0000000000000000000000000000000000b5
:104ffc0000000000000000000000000000000000a5
:10500c000000000000000000000000000000000094
:10501c000000000000000000000000000000000084
:10502c000000000000000000000000000000000074
:10503c000000000000010000000100000000000062
:10504c00010100000002000003040000060600003d
:10505c0007080000080a0000030100000303000019
:10506c000303000003030000030100000301000020
:10507c000303000001030000010100000301000014
:10508c000101000000000000000000000000000012
:10509c0002020000020200000906000006060000e1
:1050ac0006060000040300000704000001000000d5
:1050bc0002090000060600000706000006070000b3
:1050cc000808000008080000070600000609000098
:1050dc0002000000000100000000000000000000c1
:1050ec0000000000000000000000000000000000b4
:1050fc0000000000000000000000000000000000a4
:10510c000000000000000000000000000000000093
:10511c000000000000000000000000000000000083
:10512c000000000000000000000000000000000073
:10513c000000000000000000000000000000000063
:10514c000000000000000000000000000000000053
:10515c000000000000000000000000000000000043
:10516c000000000000000000000000000000000033
:10517c000000000000000000000000000000000023
:10518c000000000000000000000000000000000013
:10519c000000000000000000000000000000000003
:1051ac0000000000000000000000000000000000f3
:1051bc0000000000000000000000000000000000e3
:1051cc0001010000000000000000000001000000d0
:1051dc000202000006060000070800000808000094
:1051ec00080700000200000001030000010300009a
:1051fc000103000001030000030300000103000091
:10520c000101000003010000030100000101000086
:10521c000100000000000000000000000000000081
:10522c00020200000205000006060000060600004f
:10523c000607000001000000000000000001000053
:10524c00010300000409000004060000060600002b
:10525c000606000007080000080800000807000008
:10526c00060600000402000000010000010000001e
:10527c000101000000000000000000000000000020
:10528c000000000000000000000000000000000012
:10529c000000000000000000000000000000000002
:1052ac0000000000000000000000000000000000f2
:1052bc0000000000000000000000000000000000e2
:1052cc0000000000000000000000000000000000d2
:1052dc0000000000000000000000000000000000c2
:1052ec0000000000000000000000000000000000b2
:1052fc0000000000000000000000000000000000a2
:10530c000000000000000000000000000000000091
:10531c000000000000000000000000000000000081
:10532c000000000000000000000000000000000071
:10533c00000000000000000000010000030100005c
:10534c000103000001030000010100000000000047
:10535c000000000000000000000200000406000035
:10536c0007070000080800000808000007080000f4
:10537c00040000000303000003030000030300000b
:10538c0003030000030300000301000003010000fd
