:020000040000fa
:080000000002040000000000f2
:020000040000fa
:04000800b41200002e
:020000040000fa
:04000c00b41200002a
:020000040000fa
:04001000b412000026
:020000040000fa
:04001400b412000022
:020000040000fa
:04001800b41200001e
:020000040000fa
:04001c00b41200001a
:020000040000fa
:04002000b412000016
:020000040000fa
:04002400b412000012
:020000040000fa
:04002800b41200000e
:020000040000fa
:04002c00b41200000a
:020000040000fa
:04003000b412000006
:020000040000fa
:04003400345801003b
:020000040000fa
:04003800b4120000fe
:020000040000fa
:04003c00b4120000fa
:020000040000fa
:04004000b4120000f6
:020000040000fa
:04004400b4120000f2
:020000040000fa
:04004800b4120000ee
:020000040000fa
:04004c00b4120000ea
:020000040000fa
:04005000b4120000e6
:020000040000fa
:04005400b4120000e2
:020000040000fa
:04005800b4120000de
:020000040000fa
:04005c00b4120000da
:020000040000fa
:04006000b4120000d6
:020000040000fa
:04006400b4120000d2
:020000040000fa
:04006800b4120000ce
:020000040000fa
:04006c00b4120000ca
:020000040000fa
:04007000b4120000c6
:020000040000fa
:04007400b4120000c2
:020000040000fa
:04007800b4120000be
:020000040000fa
:04007c00b4120000ba
:020000040000fa
:04008000b4120000b6
:020000040000fa
:04008400b4120000b2
:020000040000fa
:04008800b4120000ae
:020000040000fa
:04008c00b4120000aa
:020000040000fa
:04009000b4120000a6
:020000040000fa
:04009400b4120000a2
:020000040000fa
:04009800b41200009e
:020000040000fa
:04009c00b41200009a
:020000040000fa
:0400a000b412000096
:020000040000fa
:0400a400b412000092
:020000040000fa
:0400a800b41200008e
:020000040000fa
:0400ac00b41200008a
:020000040000fa
:0400b000b412000086
:020000040000fa
:0400b400b412000082
:020000040000fa
:0400b800b41200007e
:020000040000fa
:0400bc00b41200007a
:020000040000fa
:0400c000b412000076
:020000040000fa
:0400c400b412000072
:020000040000fa
:0400c800b41200006e
:020000040000fa
:0400cc00b41200006a
:020000040000fa
:0400d000b412000066
:020000040000fa
:0400d400b412000062
:020000040000fa
:0400d800b41200005e
:020000040000fa
:0400dc00b41200005a
:020000040000fa
:0400e000b412000056
:020000040000fa
:0400e400b412000052
:020000040000fa
:0400e800b41200004e
:020000040000fa
:0400ec00b41200004a
:020000040000fa
:0400f000b412000046
:020000040000fa
:0400f400b412000042
:020000040000fa
:0400f800b41200003e
:020000040000fa
:0400fc00b41200003a
:020000040000fa
:04010000b412000035
:020000040000fa
:04010400b412000031
:020000040000fa
:04010800b41200002d
:020000040000fa
:04010c00b412000029
:020000040000fa
:04011000b412000025
:020000040000fa
:04011400b412000021
:020000040000fa
:04011800b41200001d
:020000040000fa
:04011c00b412000019
:020000040000fa
:04012000b412000015
:020000040000fa
:04012400b412000011
:020000040000fa
:04012800b41200000d
:020000040000fa
:04012c00b412000009
:020000040000fa
:04013000b412000005
:020000040000fa
:04013400b412000001
:020000040000fa
:04013800b4120000fd
:020000040000fa
:04013c00b4120000f9
:020000040000fa
:04014000b4120000f5
:020000040000fa
:04014400b4120000f1
:020000040000fa
:04014800b4120000ed
:020000040000fa
:04014c00b4120000e9
:020000040000fa
:04015000b4120000e5
:020000040000fa
:04015400b4120000e1
:020000040000fa
:04015800b4120000dd
:020000040000fa
:04015c00b4120000d9
:020000040000fa
:04016000b4120000d5
:020000040000fa
:04016400b4120000d1
:020000040000fa
:04016800b4120000cd
:020000040000fa
:04016c00b4120000c9
:020000040000fa
:04017000b4120000c5
:020000040000fa
:04017400b4120000c1
:020000040000fa
:04017800b4120000bd
:020000040000fa
:04017c00b4120000b9
:020000040000fa
:04018000b4120000b5
:020000040000fa
:04018400b4120000b1
:020000040000fa
:04018800b4120000ad
:020000040000fa
:04018c00b4120000a9
:020000040000fa
:04019000b4120000a5
:020000040000fa
:04019400b4120000a1
:020000040000fa
:04019800b41200009d
:020000040000fa
:04019c00b412000099
:020000040000fa
:0401a000b412000095
:020000040000fa
:0401a400b412000091
:020000040000fa
:0401a800b41200008d
:020000040000fa
:0401ac00b412000089
:020000040000fa
:0401b000b412000085
:020000040000fa
:0401b400b412000081
:020000040000fa
:0401b800e002000061
:020000040000fa
:04020800b41200002c
:020000040000fa
:04020c00b412000028
:020000040000fa
:04021000b412000024
:020000040000fa
:04021400b412000020
:020000040000fa
:04021800b41200001c
:020000040000fa
:04021c00b412000018
:020000040000fa
:04022000b412000014
:020000040000fa
:04022400b412000010
:020000040000fa
:04022800b41200000c
:020000040000fa
:04022c00b412000008
:020000040000fa
:04023000b412000004
:020000040000fa
:04023400b412000000
:020000040000fa
:04023800b4120000fc
:020000040000fa
:04023c00b4120000f8
:020000040000fa
:04024000b4120000f4
:020000040000fa
:04024400b4120000f0
:020000040000fa
:04024800b4120000ec
:020000040000fa
:04024c00b4120000e8
:020000040000fa
:04025000b4120000e4
:020000040000fa
:04025400b4120000e0
:020000040000fa
:04025800b4120000dc
:020000040000fa
:04025c00b4120000d8
:020000040000fa
:04026000b4120000d4
:020000040000fa
:04026400b4120000d0
:020000040000fa
:04026800b4120000cc
:020000040000fa
:04026c00b4120000c8
:020000040000fa
:04027000b4120000c4
:020000040000fa
:04027400b4120000c0
:020000040000fa
:04027800b4120000bc
:020000040000fa
:04027c00b4120000b8
:020000040000fa
:04028000b4120000b4
:020000040000fa
:04028400b4120000b0
:020000040000fa
:04028800b4120000ac
:020000040000fa
:04028c00b4120000a8
:020000040000fa
:04029000b4120000a4
:020000040000fa
:04029400b4120000a0
:020000040000fa
:04029800b41200009c
:020000040000fa
:04029c00b412000098
:020000040000fa
:0402a000b412000094
:020000040000fa
:0402a400b412000090
:020000040000fa
:0402a800b41200008c
:020000040000fa
:0402ac00b412000088
:020000040000fa
:0402b000b412000084
:020000040000fa
:0402b400b412000080
:020000040000fa
:0402b800b41200007c
:020000040000fa
:0402bc00b412000078
:020000040000fa
:0402c000b412000074
:020000040000fa
:0402c400b412000070
:020000040000fa
:0402c800b41200006c
:020000040000fa
:0402cc00b412000068
:020000040000fa
:0402d000b412000064
:020000040000fa
:0402d400b412000060
:020000040000fa
:0402d800b41200005c
:020000040000fa
:0402dc00b412000058
:020000040000fa
:0402e000b412000054
:020000040000fa
:0402e400b412000050
:020000040000fa
:0402e800b41200004c
:020000040000fa
:0402ec00b412000048
:020000040000fa
:0402f000b412000044
:020000040000fa
:0402f400b412000040
:020000040000fa
:0402f800b41200003c
:020000040000fa
:0402fc00b412000038
:020000040000fa
:04030000b412000033
:020000040000fa
:04030400b41200002f
:020000040000fa
:04030800b41200002b
:020000040000fa
:04030c00b412000027
:020000040000fa
:04031000b412000023
:020000040000fa
:04031400b41200001f
:020000040000fa
:04031800b41200001b
:020000040000fa
:04031c00b412000017
:020000040000fa
:04032000b412000013
:020000040000fa
:04032400b41200000f
:020000040000fa
:04032800b41200000b
:020000040000fa
:04032c00b412000007
:020000040000fa
:04033000b412000003
:020000040000fa
:04033400b4120000ff
:020000040000fa
:04033800b4120000fb
:020000040000fa
:04033c00b4120000f7
:020000040000fa
:04034000b4120000f3
:020000040000fa
:04034400b4120000ef
:020000040000fa
:04034800b4120000eb
:020000040000fa
:04034c00b4120000e7
:020000040000fa
:04035000b4120000e3
:020000040000fa
:04035400b4120000df
:020000040000fa
:04035800b4120000db
:020000040000fa
:04035c00b4120000d7
:020000040000fa
:04036000b4120000d3
:020000040000fa
:04036400b4120000cf
:020000040000fa
:04036800b4120000cb
:020000040000fa
:04036c00b4120000c7
:020000040000fa
:04037000b4120000c3
:020000040000fa
:04037400b4120000bf
:020000040000fa
:04037800b4120000bb
:020000040000fa
:04037c00b4120000b7
:020000040000fa
:04038000b4120000b3
:020000040000fa
:04038400b4120000af
:020000040000fa
:04038800b4120000ab
:020000040000fa
:04038c00b4120000a7
:020000040000fa
:04039000b4120000a3
:020000040000fa
:04039400b41200009f
:020000040000fa
:04039800b41200009b
:020000040000fa
:04039c00b412000097
:020000040000fa
:0403a000b412000093
:020000040000fa
:0403a400b41200008f
:020000040000fa
:0403a800b41200008b
:020000040000fa
:0403ac00b412000087
:020000040000fa
:0403b000b412000083
:020000040000fa
:0403b400b41200007f
:020000040000fa
:0403b800b41200007b
:020000040000fa
:10040000afb320008efe24000e0188000000000023
:10041000000020000000e000020032000001200087
:10042000200288000c000700a05d240011002000bd
:100430000f000700000020000000e0000200320072
:100440000000020000000000324e02000100000027
:100450000040da000000fe00e04b20000000e00059
:1004600002003200002020009001880000000600f9
:10047000a1028800800078000000eb001a0037001d
:10048000e280400054a0b4009101ba00e280400034
:1004900054a0b4009102ba00e280400054a0b4001d
:1004a0000002eb00472bde00f507b200a601880032
:1004b000602ce10008003a000049eb000201e8006e
:1004c000020039003420ec0002f0a0008301e900b2
:1004d000f9ff3e00040037006128e100010032000e
:1004e0000082eb000b00070011c3ba001101ba0033
:1004f0000604e00003003a000200e000e0ff3a00da
:1005000000000600f607b200a6028800820078000c
:10051000f5ff370004d0a300e20f49001c003900aa
:10052000810278003549ba000201e8000200390072
:100530003420ec0002f0a0008301e9000f0032003b
:100540002549ba000201e800020039003420ec001d
:1005500002f0a0008301e900080032000400e0007e
:100560000600320015c9ba000201e8000200390095
:100570003420ec0002f0a0008301e9008180e80053
:1005800054a0b4000300e000e2ff3a0000000600bf
:100590009102ba00055978008301e900f7ff3200a3
:1005a000c82ade00055978008301e900f3ff320014
:1005b0000400e000f1ff320011d9ba00eeff37006d
:1005c0003200f8003400f800881f7800180020007e
:1005d000a801880008202000980188004f047800b6
:1005e0000a87ab00020032001628ef000a87a90034
:1005f0009080a9003400f9003200f90000400600a4
:100600004487a800f11f2000303a800080806000fd
:1006100000e0220001007000303a880000c0250090
:10062000c0388800603888008038880001142000b5
:10063000a1388800021e2000b238880020398000ce
:100640000000a0000010a1000020a10020398800b7
:100650003ea7ef0000802f00a438800084016000d6
:1006600083817000a3388800f17f2000a5388000c6
:1006700085816000e5388000050260000482710019
:10068000e4388800b4388000840160008301710080
:10069000b3388800b538800085806000f33880006a
:1006a0000301600002817000f23888000439800084
:1006b00084006000011bb300013988002207b600e6
:1006c0002021b3001039880026e7a9002647a90099
:1006d00026c7a9002627a8002607a80026a7a90044
:1006e0002687a90090c1b3002fe7b700f57220005c
:1006f00095427800907220000548780060c7b300ea
:100700002ee7b700e172200091407800827220004d
:1007100001497800a0c0b3002ce7b7007640400044
:100720002ae7b70050c0b3002de7b70000c3b300fd
:100730002be7b7002667a9002727a8002707a800ee
:10074000203880000050a1000060a0000070a100cf
:100750002038880020388000000eb200f1f12f0010
:100760002339800083806000810070002139880077
:1007700005e7a80000e8230001002000b6590400a6
:100780000100000031e7a8000000060030e7b700d4
:100790003107a800913988000100240082398000c7
:1007a00002806000fdff3a003107a900000006004a
:1007b0000627ab00feff3a0000a7ef00000025006f
:1007c00010388800000000000627ab00feff3a004a
:1007d0000027ef00001025001038880000000000fe
:1007e0000627ab00feff3a0080ff24000038880097
:1007f0000020250010388800000000000627ab000c
:10080000feff3a000027ef00008025001038880026
:10081000000000000627ab00feff3a00001e20008b
:100820000038880040912500103888000000000042
:100830000000060014418000840f510001003600c2
:10084000040178000627ab00feff3a004c0add00e9
:100850000202720004388800c408de0002a02500ed
:1008600001017100123888000000000090407800fb
:100870000104e000120032000001eb000000e8007b
:1008800005382500043025000627ab00feff3a009e
:100890008100fb00013888000304e00002003a00f8
:1008a0001438880001003700153888000000000067
:1008b000e24078000201e8000104e000f2ff3a00a3
:1008c000000006000038880000602600103888000c
:1008d000000006000038880000002500103888005d
:1008e000000006000038880000102500103888003d
:1008f000000006000607ab00feff320060388800eb
:100900007038880080388800903888000000060021
:10091000c0388800d03888000000060030388000d9
:1009200031388000c708de0033388000c619de0089
:10093000323880004511de008180710082807000b5
:10094000e1806000610060000000a2000100700012
:10095000f2ff3a0010002000b04088001608e200c4
:10096000feff3a00000006000627ab00feff3a003b
:1009700004142000048bb90086024000053888006a
:10098000040ab80004004000e0804a000430260059
:100990000482700014388800000000000627ab00b5
:1009a000feff3a004c10dd000300700000388800a4
:1009b0004411de000040260002007000103888005c
:1009c000000000000627ab00feff3a0000062000f2
:1009d00000388800007026001038880000000000f1
:1009e0000000060004142000049bb9000411b800a4
:1009f00083014300020140008381480002388800df
:100a0000003026000080710010388800100021009e
:100a10000038880000402600103888000627ab0008
:100a2000feff3a0000062000003888000070260013
:100a3000103888000000000000000600f0002000d0
:100a4000a0ff0700031e2000f21320006000b80082
:100a5000c5ff3700c0408000cf80de00808fd2000d
:100a60008182d2000002780004f0a10000c02500bd
:100a700001002000920180008001d0000403d0001a
:100a8000068041004220a800858048004200a9005d
:100a90004220ae004200a8000080d300810178000f
:100aa0009301880010407800920188000080fb00cc
:100ab0008000eb00808fd2008180d200000078009f
:100ac00000f0a1008bff0700c040800000f0a700ed
:100ad0000000ea000000e9004f00de00c04088008e
:100ae000d6ff370077ff0700031e2000120020000a
:100af0006000b8009cff0700031e200012002000c9
:100b00008000eb00e013200097ff07001300200097
:100b1000e21320006000b80093ff070013002000dc
:100b2000e2132000f11d20000000eb008eff3700d3
:100b3000f000200063ff0700031e200012002000c9
:100b40008000eb00f013200087ff3700bbff370069
:100b50008000eb007e1402000000000002fd200077
:100b60009304240028150200000000000200200069
:100b70004333240078130200000000008001780055
:100b80000101780003007800820078000000060070
:100b90000400fa00889fbe008a9fbe008c9fbe00a2
:100ba0000204be0084bf9f0095bf9f000606be00e2
:100bb0000801be00b8120200000000000005be00df
:100bc0000c01be003fb09700cfb09700b8120200f2
:100bd000000000000001be000a00be00281502004f
:100be000000000000005be000801be000fb897001d
:100bf0009fb89700b8120200000000000001be007c
:100c00000a00be0078130200000000000c01be00c4
:100c1000ba120200000000000014020000000000f0
:100c20004f06be004f05be004f04be000080fa0014
:100c30000000060000000600f6874700889fbe00ff
:100c40008a9fbe008c9fbe008e1f780080b79f00d9
:100c50000107780082bf9f00f3b79f000400be0029
:100c60000604be000fb197008e017800b812020092
:100c70000000000080017800010178000306780080
:100c8000820678000c00be0001f0a100c0b79f00f2
:100c9000d1b79f008fb897007fb09700010178000f
:100ca000800178000800be00b812020000000000b9
:100cb0008001780001017800030578008205780042
:100cc0000a04be0009f0a1000801be004fb0970061
:100cd000dfb09700fc130200000000000000e000fd
:100ce00004003400cfb09700e1b79f005fb49700d5
:100cf0000300370008007800e0b79f00090478007f
:100d00006fb19700880178000c00be0078130200d4
:100d100000000000c0b79f00b1b79f006fb19700ff
:100d2000880178000a00be0078130200000000006d
:100d3000a0b79f0091b79f00efb19700080178001e
:100d40000300780082007800001402000000000018
:100d5000800678000d00e0003f0032000006eb0046
:100d60006fd097000080fb00f0af9f00edb79f00b1
:100d70008fb69700cfb097003fb097000101780081
:100d8000800178000d0278008e007800040378005e
:100d9000810378000600be00ba12020000000000c5
:100da00080067800010778000d0078008e0078003a
:100db00000140200000000006105b900afb0970008
:100dc0001fb0970001017800800178000fba9700ea
:100dd000ffb0970004037800810378000600be008e
:100de000ba1202000000000080bf9f00f1b79f0010
:100df000f013200001002000800f5500818f5d005e
:100e000011003e008fb997007fb197000300780072
:100e10008200780000140200000000006104b900a4
:100e2000f11d2000810f5400e08f5c0006003e00a1
:100e30007fa89700a3fe070066014400e0814c00f4
:100e40000a00be00e7fe07000c06e8006fb097003e
:100e5000800f5600c7ff39004f0778004f06be00cd
:100e60004f05be004f04be006f01b1000000060038
:100e7000ef0eb000889fbe008a9fbe008c9fbe0010
:100e80008e1f78000204be000405be0092ff200001
:100e90009304240028150200000000000200200036
:100ea000433324007813020000000000000678009d
:100eb0000107780092ff2000930424000800be0080
:100ec0002815020000000000020020004333240027
:100ed0007813020000000000f0b79f00b1b79f0038
:100ee00092ff2000930424000a00be00281502008f
:100ef00000000000020020004333240078130200a9
:100f000000000000a0b79f00d1af9f000c00780048
:100f10008e007800621602000000000080b79f007b
:100f200091b79f00ffb197003fb197000300780091
:100f3000820078006216020000000000e0af9f000f
:100f4000f1af9f00afb197005fa997000300780051
:100f50008200780062160200000000000004be005b
:100f60000c0178008e00780002027800810278007f
:100f70000400be0074130200000000000006be0062
:100f80007fb19700bfb0970002027800810278001d
:100f90000400be0074130200000000000005be0043
:100fa0002fb19700dfa89700020278008102780035
:100fb0000400be0074130200000000000001be0027
:100fc000d0b79f00e1b79f000c00be0028150200bb
:100fd0000000000000077800c1af9f006fa99700d4
:100fe000ffa997000fb097009fb097002815020047
:100ff000000000000801be002815020000000000eb
:101000000001be00cfaa97000e007800850078008e
:10101000ba12020000000000b0b79f00a1b79f0005
:1010200080017800e39f9f0001007800d09f9f001f
:101030000c00be0001f0a2000801be00281502004d
:1010400000000000f0b79f0081bf9f000fb1970024
:101050009fb197005fb09700efb09700281502008e
:10106000000000006fa99700ffa997002815020053
:10107000000000000001be007fb097008fb897000d
:10108000ba12020000000000d0af9f00a1af9f0085
:1010900080017800c39f9f0001007800b09f9f00ef
:1010a0000fb197009fb197000a00be0028150200fb
:1010b0000000000090af9f0081af9f00800078008b
:1010c000a19f9f000fa99700929f9f000801be005b
:1010d0000a00be002815020000000000b0af9f000b
:1010e000d1a79f0080017800a3a79f00010078008e
:1010f00090a79f005fb19700efb197000a00be0074
:101100002815020000000000c0a79f00b1a79f00a3
:101110008000780081a79f003fa19700f29f9f0069
:101120006fa89700ffa8970001f0a200f0b79f00fa
:1011300081bf9f005fb09700efb0970001f0a20061
:101140000fb197009fb19700281502000000000022
:10115000d0b79f00e1b79f006fa99700ffa9970044
:101160000c00be0028150200000000000801be00af
:1011700028150200000000000001be005fb09700cb
:10118000efb09700ba12020000000000d0b79f0035
:10119000f1a79f0080017800839f9f0001007800e5
:1011a000f0979f000801be000fb097009fb0970016
:1011b00028150200000000000004be008e00780028
:1011c0004fa8970001017800800178006fa8970070
:1011d000ffa8970028150200000000000001be00d3
:1011e0000800be00ba1202000000000080b79f0095
:1011f000e1af9f0080007800e1979f006fa9970002
:10120000d2979f000a01be000c00be002815020004
:1012100000000000c0af9f00e1a79f0080017800a0
:10122000c3979f0001007800b0979f003f0597008b
:10123000cf0597003f169700cf1697000a01be0012
:101240005fb29700ffa297000400be0028150200bd
:10125000000000000004be000c01be000fb29700a9
:10126000efaa97000400be0028150200000000004d
:101270000001be000800be00ba120200000000001b
:101280000004be003f219700cf2197004faa97008e
:10129000efa297000400be00281502000000000025
:1012a0000001be000800be00ba12020000000000eb
:1012b00002002000832c2400ba120200000000006b
:1012c00000077800c1b79f000a01be003fb2970037
:1012d000afb297000400be00281502000000000015
:1012e0000004be000c01be005faa9700afaa9700e1
:1012f0000400be0028150200000000000001be002e
:101300000800be00ba120200000000000004be0087
:101310003f219700cf2197001faa97008faa97001f
:101320000400be0028150200000000000001be00fd
:101330000800be00ba1202000000000002002000f7
:101340000312240028150200000000004fb297008d
:101350000e0178008401780078130200000000007c
:101360000200200003322400ba1202000000000034
:10137000b0379f00c1379f000a01be00bfaa970087
:101380005fa297000500780084007800281502000d
:10139000000000000004be000c01be00cfa29700b8
:1013a0003fa297000500780084007800281502000d
:1013b000000000000001be000800be00ba120200da
:1013c000000000000004be003f219700cf219700dd
:1013d0007fb097008fb8970028150200000000002a
:1013e0000001be000800be00ba12020000000000aa
:1013f000020020000327240028150200000000003e
:101400000e027800cfb197000403780083037800c0
:101410000601be0078130200000000000200200058
:1014200003372400ba12020000000000b0879f00ba
:10143000c1879f005f059700ef0597005f16970033
:10144000ef1697000a01be005fb29700ffa2970057
:101450000400be0028150200000000000004be00c9
:101460000c01be000fb29700efaa97000400be0067
:1014700028150200000000000001be000800be00a8
:10148000ba120200000000000004be005f219700b5
:10149000ef2197004faa9700efa297000400be002b
:1014a00028150200000000000001be000800be0078
:1014b000ba1202000000000002002000832c240069
:1014c000ba1202000000000000077800c1b79f00b8
:1014d0000a01be003fb29700afb297000400be0001
:1014e00028150200000000000004be000c01be0030
:1014f0005faa9700afaa97000400be00281502005b
:10150000000000000001be000800be00ba12020088
:10151000000000000004be005f219700ef2197004b
:101520001faa97008faa97000400be00281502008a
:10153000000000000001be000800be00ba12020058
:101540000000000002002000031224002815020001
:10155000000000004fb297000e017800840178006f
:101560007813020000000000020020000332240073
:10157000ba12020000000000d0379f00e1379f0040
:101580000a01be00bfaa97005fa29700050078007d
:101590008400780028150200000000000004be004e
:1015a0000c01be00cfa297003fa297000500780073
:1015b0008400780028150200000000000001be0031
:1015c0000800be00ba120200000000000004be00c5
:1015d0005f219700ef2197007fb097008fb89700a9
:1015e00028150200000000000001be000800be0037
:1015f000ba120200000000000200200003272400ad
:1016000028150200000000000e027800cfb19700fc
:1016100004037800830378000601be0078130200fb
:10162000000000000200200003372400ba1202006c
:1016300000000000d0879f00e1879f007f05970092
:101640008f0d97007f1697008f1e97000a01be002e
:101650005fb29700ffa297000400be0028150200a9
:10166000000000000004be000c01be000fb2970095
:10167000efaa97000400be00281502000000000039
:101680000001be000800be00ba1202000000000007
:101690000004be007f2197008f2997004faa970072
:1016a000efa297000400be00281502000000000011
:1016b0000001be000800be00ba12020000000000d7
:1016c00002002000832c2400ba1202000000000057
:1016d00000077800c1b79f000a01be003fb2970023
:1016e000afb297000400be00281502000000000001
:1016f0000004be000c01be005faa9700afaa9700cd
:101700000400be0028150200000000000001be0019
:101710000800be00ba120200000000000004be0073
:101720007f2197008f2997001faa97008faa970003
:101730000400be0028150200000000000001be00e9
:101740000800be00ba1202000000000002002000e3
:101750000312240028150200000000004fb2970079
:101760000e01780084017800781302000000000068
:101770000200200003322400ba1202000000000020
:10178000f0379f00813f9f000a01be00bfaa97006b
:101790005fa29700050078008400780028150200f9
:1017a000000000000004be000c01be00cfa29700a4
:1017b0003fa29700050078008400780028150200f9
:1017c000000000000001be000800be00ba120200c6
:1017d000000000000004be007f2197008f299700c1
:1017e0007fb097008fb89700281502000000000016
:1017f0000001be000800be00ba1202000000000096
:101800000200200003272400281502000000000029
:101810000e027800cfb197000403780083037800ac
:101820000601be0078130200000000000200200044
:1018300003372400ba12020000000000f0879f0066
:10184000818f9f001f0d9700af0d97001f1e9700ff
:10185000af1e97000a01be005fb29700ffa297007b
:101860000400be0028150200000000000004be00b5
:101870000c01be000fb29700efaa97000400be0053
:1018800028150200000000000001be000800be0094
:10189000ba120200000000000004be001f299700d9
:1018a000af2997004faa9700efa297000400be004f
:1018b00028150200000000000001be000800be0064
:1018c000ba1202000000000002002000832c240055
:1018d000ba1202000000000000077800c1b79f00a4
:1018e0000a01be003fb29700afb297000400be00ed
:1018f00028150200000000000004be000c01be001c
:101900005faa9700afaa97000400be002815020046
:10191000000000000001be000800be00ba12020074
:10192000000000000004be001f299700af299700a7
:101930001faa97008faa97000400be002815020076
:10194000000000000001be000800be00ba12020044
:1019500000000000020020000312240028150200ed
:10196000000000004fb297000e017800840178005b
:10197000781302000000000002002000033224005f
:10198000ba12020000000000903f9f00a13f9f009c
:101990000a01be00bfaa97005fa297000500780069
:1019a0008400780028150200000000000004be003a
:1019b0000c01be00cfa297003fa29700050078005f
:1019c0008400780028150200000000000001be001d
:1019d0000800be00ba120200000000000004be00b1
:1019e0001f299700af2997007fb097008fb8970005
:1019f00028150200000000000001be000800be0023
:101a0000ba12020000000000020020000327240098
:101a100028150200000000000e027800cfb19700e8
:101a200004037800830378000601be0078130200e7
:101a3000000000000200200003372400ba12020058
:101a400000000000908f9f00a18f9f003f0d970026
:101a5000cf0d97003f1e9700cf1e97000a01be00d2
:101a60005fb29700ffa297000400be002815020095
:101a7000000000000004be000c01be000fb2970081
:101a8000efaa97000400be00281502000000000025
:101a90000001be000800be00ba12020000000000f3
:101aa0000004be003f299700cf2997004faa970056
:101ab000efa297000400be002815020000000000fd
:101ac0000001be000800be00ba12020000000000c3
:101ad00002002000832c2400ba1202000000000043
:101ae00000077800c1b79f000a01be003fb297000f
:101af000afb297000400be002815020000000000ed
:101b00000004be000c01be005faa9700afaa9700b8
:101b10000400be0028150200000000000001be0005
:101b20000800be00ba120200000000000004be005f
:101b30003f299700cf2997001faa97008faa9700e7
:101b40000400be0028150200000000000001be00d5
:101b50000800be00ba1202000000000002002000cf
:101b60000312240028150200000000004fb2970065
:101b70000e01780084017800781302000000000054
:101b80000200200003322400ba120200000000000c
:101b9000b03f9f00c13f9f000a01be00bfaa97004f
:101ba0005fa29700050078008400780028150200e5
:101bb000000000000004be000c01be00cfa2970090
:101bc0003fa29700050078008400780028150200e5
:101bd000000000000001be000800be00ba120200b2
:101be000000000000004be003f299700cf299700a5
:101bf0007fb097008fb89700281502000000000002
:101c00000001be000800be00ba1202000000000081
:101c10000200200003272400281502000000000015
:101c20000e027800cfb19700040378008303780098
:101c30000601be0078130200000000000200200030
:101c400003372400ba12020000000000b08f9f008a
:101c5000c18f9f005f0d9700ef0d97005f1e9700eb
:101c6000ef1e97000a01be005fb29700ffa2970027
:101c70000400be0028150200000000000004be00a1
:101c80000c01be000fb29700efaa97000400be003f
:101c900028150200000000000001be000800be0080
:101ca000ba120200000000000004be005f29970085
:101cb000ef2997004faa9700efa297000400be00fb
:101cc00028150200000000000001be000800be0050
:101cd000ba1202000000000002002000832c240041
:101ce000ba1202000000000000077800c1b79f0090
:101cf0000a01be003fb29700afb297000400be00d9
:101d000028150200000000000004be000c01be0007
:101d10005faa9700afaa97000400be002815020032
:101d2000000000000001be000800be00ba12020060
:101d3000000000000004be005f299700ef29970013
:101d40001faa97008faa97000400be002815020062
:101d5000000000000001be000800be00ba12020030
:101d600000000000020020000312240028150200d9
:101d7000000000004fb297000e0178008401780047
:101d8000781302000000000002002000033224004b
:101d9000ba12020000000000d03f9f00e13f9f0008
:101da0000a01be00bfaa97005fa297000500780055
:101db0008400780028150200000000000004be0026
:101dc0000c01be00cfa297003fa29700050078004b
:101dd0008400780028150200000000000001be0009
:101de0000800be00ba120200000000000004be009d
:101df0005f299700ef2997007fb097008fb8970071
:101e000028150200000000000001be000800be000e
:101e1000ba12020000000000020020000327240084
:101e200028150200000000000e027800cfb19700d4
:101e300004037800830378000601be0078130200d3
:101e4000000000000200200003372400ba12020044
:101e500000000000d08f9f00e18f9f007f0d970052
:101e60008f1597007f1e97008f2697000a01be00ee
:101e70005fb29700ffa297000400be002815020081
:101e8000000000000004be000c01be000fb297006d
:101e9000efaa97000400be00281502000000000011
:101ea0000001be000800be00ba12020000000000df
:101eb0000004be007f2997008f3197004faa97003a
:101ec000efa297000400be002815020000000000e9
:101ed0000001be000800be00ba12020000000000af
:101ee00002002000832c2400ba120200000000002f
:101ef00000077800d1b79f000a01be003fb29700eb
:101f0000afb297000400be002815020000000000d8
:101f10000004be000c01be005faa9700afaa9700a4
:101f20000400be0028150200000000000001be00f1
:101f30000800be00ba120200000000000004be004b
:101f40007f2997008f3197001faa97008faa9700cb
:101f50000400be0028150200000000000001be00c1
:101f60000800be00ba1202000000000002002000bb
:101f70000312240028150200000000005fb2970041
:101f80000e01780084017800781302000000000040
:101f90000200200003322400ba12020000000000f8
:101fa000f03f9f0081879f000a01be00afa297000b
:101fb0001fa2970005007800840078002815020011
:101fc000000000000004be000c01be008fa29700bc
:101fd0007f9a970005007800840078002815020099
:101fe000000000000001be000800be00ba1202009e
:101ff000000000000004be007f2997008f31970089
:102000007fb097008fb897002815020000000000ed
:102010000001be000800be00ba120200000000006d
:102020000200200003272400281502000000000001
:102030000e027800dfb19700040378008303780074
:102040000601be007813020000000000020020001c
:1020500003372400ba12020000000000f08f9f0036
:1020600081979f001f159700af1597001f269700b7
:10207000af2697000a01be000f9a9700ff929700c3
:102080000400be0028150200000000000004be008d
:102090000c01be006f929700df9297000400be0013
:1020a00028150200000000000001be000800be006c
:1020b000ba120200000000000004be001f319700a9
:1020c000af3197004f929700bf9297000400be0077
:1020d00028150200000000000001be000800be003c
:1020e000ba1202000000000002002000832c24002d
:1020f000ba1202000000000000077800a1b79f009c
:102100000a01be006f9a9700df9a97000400be0094
:1021100028150200000000000004be000c01be00f3
:102120004f9a9700bf9a97000400be00281502003e
:10213000000000000001be000800be00ba1202004c
:10214000000000000004be001f319700af3197006f
:102150002f9a97009f9a97000400be00281502004e
:10216000000000000001be000800be00ba1202001c
:1021700000000000020020000312240028150200c5
:10218000000000002fb297000e0178008401780053
:102190007813020000000000020020000332240037
:1021a000ba1202000000000090879f00a1879f00e4
:1021b0000a01be00afa297001fa297000500780099
:1021c0008400780028150200000000000004be0012
:1021d0000c01be008fa297007f9a9700050078003f
:1021e0008400780028150200000000000001be00f5
:1021f0000800be00ba120200000000000004be0089
:102200001f319700af3197007fb097008fb89700cc
:1022100028150200000000000001be000800be00fa
:10222000ba12020000000000020020000327240070
:1022300028150200000000008e0278002fb29700df
:102240000501780084017800781302000000000086
:102250000200200003372400ba1202000000000030
:1022600090979f00a1979f00f417020000000000c4
:102270003f8e9700cf8e97003f399700cf39970058
:10228000f2b79f0083bf9f003f849700cf849700e1
:102290003f359700cf3597000e012000110009004f
:1022a0000e00d800811f78000c03be006fb29700ab
:1022b000ffb297000801be000a00be005efa0700e8
:1022c000f417020000000000110009000e00d80001
:1022d000811f78003f839700cf8397003f3297009c
:1022e000cf3297000801be000a00be0052fa070074
:1022f000f417020000000000110009000e00d800d1
:10230000811f78002f8b9700bf8b97002f3a970083
:10231000bf3a97000c01be004fb09700dfb09700a6
:1023200045fa0700f4170200000000002f8e970006
:10233000bf8e97002f399700bf399700c2b79f0013
:10234000d3b79f002f849700bf8497002f35970045
:10235000bf359700110009000e00d800811f7800da
:102360000c03be003fb29700cfb297000801be0039
:102370000a00be0030fa0700f41702000000000057
:10238000110009000e00d800811f78002f839700ec
:10239000bf8397002f329700bf3297000801be001d
:1023a0000a00be0024fa0700f41702000000000033
:1023b000110009000e00d800811f78001f8b9700c4
:1023c000af8b97001f3a9700af3a97000c01be0001
:1023d0001fb09700afb0970017fa0700f41702007c
:1023e000000000001f8e9700af8e97001f399700e6
:1023f000af39970092b79f00a3b79f001f84970043
:10240000af8497001f359700af3597001100090082
:102410000e00d800811f78000c03be000fb2970099
:102420009fb297000801be000a00be0002fa070032
:10243000f417020000000000110009000e00d8008f
:10244000811f78001f839700af8397001f3297008a
:10245000af3297000801be000a00be00f6f907007f
:10246000f417020000000000110009000e00d8005f
:10247000811f78000f8b97009f8b97000f3a970072
:102480009f3a97000c01be006fa89700ffa8970025
:10249000e9f90700f4170200000000000f8e970012
:1024a0009f8e97000f3997009f399700e2af9f00ea
:1024b000f3af9f000f8497009f8497000f3597001c
:1024c0009f359700110009000e00d800811f780089
:1024d0000c03be005faa9700efaa97000801be0098
:1024e0000a00be00d4f90700f41702000000000043
:1024f000110009000e00d800811f78000f3b9700e3
:102500009f3b97000f2a97009f2a97000801be0063
:102510000a00be00c8f90700f4170200000000001e
:10252000110009000e00d800811f78007f3b970042
:102530008f8397007f2a97008f3297000c01be008f
:102540003fa89700cfa89700bbf90700f88757006e
:102550004f0778004f06be004f05be004f04be0077
:10256000ef0eb100000006000040da000000fe009f
:1025700003f0a200889fbe008a9fbe008c1f7800d7
:102580001b010700220133006450e1004f003200bc
:102590006420e1005200320003826c0007003b001f
:1025a0000905d0000306d000820f54000c065d0020
:1025b0000200390002003200890178000306780029
:1025c0008582550004003d000003fd008103fd00ed
:1025d0008502ea008b854200840f720002003b00f6
:1025e00060001000e08018006011b8000005eb00ea
:1025f0007a28e1000a00390006007800c75ddd0096
:10260000f707b200878075002d00370082817100c6
:102610000a017800610560008180d1000080d3004c
:102620008502e900f9ff3b0006044000878448006a
:1026300002003b0060041400e0841c000988a30031
:10264000070032008a81710082817100610164009b
:102650008904d1000884d3008b05e80017003700f7
:102660000978a30013003a000b00e00013003400c7
:102670008b05e9000804440089844c000a44740076
:102680000978a3000d003a000b00e00007003400b9
:102690008b05e9000804440089844c0001003a00dd
:1026a0000b0020000978a300f7ff32000001eb00c7
:1026b00002003700828171000a0178009100070052
:1026c0000cf0a70001f0a000da0037006420e10060
:1026d00002003a00838f6c00da0033000801be006c
:1026e0000200be00d30037000081eb000c01370070
:1026f000889fbe008a9fbe008c1f7800bc00070028
:10270000c300330003866c006450e1002e003200e9
:102710006420e100330032006150e1002f003200fc
:102720006120e1003100320085855500eb07b000e3
:1027300009002000080420000500370008044400b8
:1027400089844c000a0031000603430087834b0054
:102750000001530081815b00f8ff33000203be00db
:102760000800a0000804440089844c00f6ff3900ea
:10277000c639dd0083017300010032001300200020
:102780008904d1000884d3000998a3000500320011
:102790000800a7000300a0008904d1000884d3002a
:1027a0008b05e8008904d1000884d3000001eb0008
:1027b0000281d2005300070001f0a1000cf0a70035
:1027c00001f0a0009b0037006420e1009d00320072
:1027d0000801be000200be00f7ff37006120e100e3
:1027e000980032006000b800f3ff370000002000be
:1027f00001f82700f0ff3700f4ff2f003601370003
:102800000001be00650007000470a70003f0a100ee
:102810006509b100160032000d0035006828e1009e
:1028200006003500f0ff2f00f1ff27000300e00055
:1028300013003b00010028000000050000004000dc
:10284000818048008502e900fcff3a00080037005b
:10285000f88f420002003c008000eb000000050001
:102860008100d1000080d3008502e800fcff3a001f
:102870000300e00002003b0060001000e080180050
:10288000000006000001be00440007000470a7001d
:1028900003f0a10003f8a30013003a006509b1009a
:1028a00010003200090035006928e10002003500ff
:1028b0000100280000000500000040008180480061
:1028c0008502e900fcff3a0000000600f88f420094
:1028d000050035008100d1000080d3008502e800aa
:1028e000fcff3a00000006008000eb00000005003d
:1028f0004f89de0082017800140137006011b800b2
:102900002201370081002000618055000b003d004e
:102910000b00200061fe2f000100e1001d003400cb
:1029200082817100610164008904d1000884d300b0
:102930000000e800faff3a00710020006100640026
:1029400003007000020060000900320061044400ce
:10295000e0844c000988a500050032008b05e800e2
:102960006808e10002003a008904d1000884d3001d
:10297000f20f20000258e10005003d00c75ddd00b8
:10298000f907b20089807500080078000000060091
:102990000bf827008b00780000000500c70ade0056
:1029a000f107b200f50fb20008003200e1cf42009b
:1029b000020032000170a00024000500810f7000a9
:1029c000010032000408050044000500810f70007a
:1029d00002003a00140005008502e90000004000f2
:1029e00081c04800fcff3b000170a00024000500ee
:1029f0000004be00e9ff07000003be000405be009e
:102a00000200be00e5ff0700844f750000000600cd
:102a10000200be006450e100050036006420e100c1
:102a2000020036000968a30001003a000800be0059
:102a30000160a0004f0678004f05be004f04be00a5
:102a400000000600f0ff2f00f1ff2700f9ff37001c
:102a5000889fbe008a9fbe008c1f7800e4ff07009d
:102a6000ebff330003866c006450e1002400320069
:102a70006420e100270032006150e10022003200b2
:102a80006120e100210032008b854200eb07b1009c
:102a90000134b800003ab8000804420089844a00b2
:102aa000013ab8000030b8008880400009014a00af
:102ab000040033000000400081804800020149000a
:102ac0008b05e900c909dd008301700001003200b7
:102ad00013002000c814de004814dd004709de00a2
:102ae0001200b200c808de000884700085ff0700ed
:102af00001f0a1000cf0a70001f0a000cdff37000d
:102b00006120e100cfff32000801be000200be00dc
:102b1000f7ff37006150e100fcff3a00c9ff3700c2
:102b2000889fbe008a9fbe008c9fbe0082057800f1
:102b30000004be0099ff07000800be006420e10009
:102b40000700390002003a00f1ff2700f0ff2f00d4
:102b50000160a000120220004241880055003700a9
:102b60006120e10003003a000b00a70001f82300f8
:102b70005000370001f0a1000200210093642400fe
:102b8000700007000800be0004003500b2fd200000
:102b9000930c2400ac0007000004be000005eb000d
:102ba0000b00a6004f0dde0001f0a1000004be00e6
:102bb00032982f0023ea2300a5ff07000001eb0055
:102bc00003f023000b00a70003f8230069fe0700b1
:102bd0000bff07000000a7000a00a20044ff070047
:102be0000b00e000030032000200200003f023008d
:102bf0005ffe070001f0a2000006be0002002000f8
:102c00009304240092ff07000801be0059fe07004c
:102c1000809fbe000c00be0022a22a00d3a7230082
:102c20008bff07004f01be0052fe07000004be00ec
:102c300001f0a100020020000398230041000700da
:102c40000800be00190035000001be0080ff07002b
:102c50000006be00b2c52900e36223007cff070026
:102c600022222b00f3942b0042fe07000c01be0031
:102c700077ff0700e273280083c023003dfe0700b2
:102c80000c01be0072ff070042aa2a00a3e22b003b
:102c900038fe07000c01be006dff07000801be00f2
:102ca0006bff07000801be0032fe07000a00a70004
:102cb00001f0a2004f06be004f05be004f04be004b
:102cc000000006000001eb0095ff3700af00070091
:102cd0000400be0000000600889fbe008a9fbe0060
:102ce000841f780042ff07004f0078001100330076
:102cf000f0ff2f00838f6c0006003b000405650089
:102d00000a00a7000800370009f0a6001000200004
:102d100008003700820f5400838f5c0003003900e5
:102d20001000200001003e000000200009f0a70074
:102d30000000ea004f05be004f04be000000e000a6
:102d40000000060014002000e3ff3700881f780011
:102d5000030478000300e00007003d00600010005d
:102d6000e080180060011900e081190002003b00ba
:102d700001f02d00030037000400070008f0a70051
:102d800001f0a0004f04780000000600889fbe00fc
:102d90008a9fbe00008270000402710004827100ec
:102da000260032000004be000200be006011b80020
:102db0006b092000950220000182cf000a00390033
:102dc0000541b1000082cf00070039000541b10084
:102dd0000982cf00040039000541b1000882cf000c
:102de000010039000541b1000542520012003200d5
:102df0000a003b0082817100610164008100d10002
:102e00000080d3008984d3000884d3008b05e800b8
:102e10000442e800f7ff3a000700370008044400c6
:102e200089844c0000004800818048008b05e9003f
:102e30000442e900f9ff3a00b2fe07004f05be0068
:102e40004f04be0000000600040020000000370010
:102e5000889fbe008a9fbe008c1f78004f26dd0031
:102e6000e3fe0700eafe33006120e1004300320088
:102e70006250e10041003e003e0039006420e10064
:102e80003c003200058255000f003b000402e800c0
:102e900038003a00800f5300818f5b00350034000a
:102ea0000800be0003f0a10001f0a60003f0a0009e
:102eb0000cf0a700affd0700defe3700060343005d
:102ec00087834b000c4646000005530081855b005c
:102ed000020033000a03be000c00a0000402e90057
:102ee000f6ff3b00850578000602430087824b0011
:102ef00004003a006000b80009f0a70001f0a0004b
:102f0000ccfe37000002520081825a000704e00024
:102f1000040033000603430087834b008b05e90060
:102f2000faff3700090578000604be000203be0060
:102f30006011b80073fe0700e00f5200e08f5a00e6
:102f40000700350002003c000c08a300040032001a
:102f50000601be0003f0a0000cf0a70085fd0700ed
:102f60000a85680001f0a1000af0a70001f0a000a6
:102f7000b0fe37000800be00aefe37001002200091
:102f80000cf0a60040418800aefe37006022b80079
:102f9000060220000000d0008180d2000482d2000e
:102fa0008582d2000000a0000202520083825a00f3
:102fb000030031000202420083824a000000a100a7
:102fc0000603e900f3ff3a00000006008000eb0072
:102fd000b0598800c159880011c0b30040b3200027
:102fe000014878000000060040b320001004e00013
:102ff00002003a0010002000f4ff0700d2e624008f
:10300000631c2400b0598000c159800009000700ea
:103010009203230003002000000141008181490048
:10302000b2598800c35988000300780000f0a1005d
:1030300000000600020ab900001bb9000200b80037
:0c304000810042008100430000000600f7
:020000040000fa
:10304c004120000066610000746100006c200000eb
:10305c00657800006365000070650000746900000d
:10306c006f6e000020300000783200003444000005
:10307c002068000061730000206f00006363000093
:10308c00757200007265000064200000617400001d
:10309c0020300000304600004300000020090000f2
:1030ac002a2000004375000072720000656e00005b
:1030bc007420000061700000706c000069630000f7
:1030cc0061740000696f00006e20000077690000d9
:1030dc006c6c00002062000065200000746500002c
:1030ec00726d0000696e0000617400006564000080
:1030fc002e000000200900002a200000455200008c
:10310c00524f0000523a000020430000505500007e
:10311c002072000065660000757300006564000095
:10312c00207400006f2000006c6f000061640000d0
:10313c0020730000686900007420000064650000c2
:10314c006d6f00002e000000200900002a200000f6
:10315c00507200006573000073200000616e000067
:10316c00792000006b650000792000006f72000070
:10317c00206a00007573000074200000676900006d
:10318c00766500002075000070200000616c000066
:10319c007265000061640000792e000000200000c0
:1031ac00092a0000205000007265000073730000b3
:1031bc0020430000545200004c2000002b20000043
:1031cc00414c0000542000002b200000444500001e
:1031dc004c200000666f0000722000006675000035
:1031ec006e210000002a00002a2a00002053000053
:1031fc004849000054440000454d00004f2e00008b
:10320c0045580000452000002d2000002041000002
:10321c0064640000726500007373000020300000cd
:10322c00783400003944000055430000464100004a
:10323c0000500000726500007373000020610000f4
:10324c006e790000206b000065790000207400008e
:10325c006f200000636f00006e740000696e000048
:10326c00756500002e2e00002e000000574900004e
:10327c004e4400004f57000053000000484f000020
:10328c0050450000205900004f550000204500001b
:10329c004e4a00004f5900004544000020540000e5
:1032ac004841000054200000494e000054520000d8
:1032bc004f2000005343000052450000454e0000d3
:1032cc002e2e00002e0000002e2e00002e200000be
:1032dc00435500005a2000005745000027520000bb
:1032ec00452000004f550000542000004f460000c0
:1032fc0020500000524f000047520000414d00008a
:10330c00204d0000454d00004f5200005921000097
:10331c00002e00002e2e00004f4b0000202e00002f
:10332c002e2e0000414c00004d4f00005354000065
:10333c002e0000004c6f000061640000696e0000fc
:10334c006720000045610000676c000065200000ec
:10335c0050430000422e00002e2e0000004f0000b3
:10336c004b2e00002e2e000020540000484100007f
:10337c005420000057410000534e00002754000019
:10338c0020450000414700004c4500002050000043
:10339c00434200003a0000004a550000535400001c
:1033ac00205300004f4d0000452000004d4100000f
:1033bc00544800003a000000636f00006c6f00007e
:1033cc00722000003d200000287800005e7900008b
:1033dc00292000006d6f000064200000636f000066
:1033ec00756e0000743b0000006300006f750000f8
:1033fc006e7400002b2b00003b00000046490000bf
:10340c004e000000202000002020000020200000a2
:10341c0020200000202000002020000020200000a0
:10342c002020000020200000202000002020000090
:10343c002020000020200000202000002020000080
:10344c002020000020200000202000002020000070
:10345c002020000020200000202000002020000060
:10346c002020000047520000454500005453000046
:10347c00205400004f20000043480000415200003f
:10348c004c49000045580000207e000020430000fd
:10349c004f4900004e450000207e000020440000f3
:1034ac004154000041470000524100004d200000f3
:1034bc007e2000004653000050480000494c00009c
:1034cc00207e0000204800004f540000444f0000b4
:1034dc0047530000207e0000204a0000414d0000b0
:1034ec0049530000207e0000204a00004255000095
:1034fc004d2000007e2000004a4b0000494e000089
:10350c00472000007e2000004d4d0000434100008c
:10351c00207e0000204d00005231000033330000ab
:10352c003733000035370000202000002020000039
:10353c00202000002020000020200000202000007f
:10354c00202000002020000020200000202000006f
:10355c00202000002020000020200000202000005f
:10356c00202000002020000020200000202000004f
:10357c00202000002020000020200000202000003f
:10358c00202000002020000020200000202000002f
:10359c00202000002020000020200000202000001f
:1035ac00202000002020000020200000202000000f
:1035bc0020200000202000000000000000800000ff
:1035cc00278300004e86000073890000988c000051
:1035dc00ba8f0000da920000f795000011990000f4
:1035ec00279c0000389f000044a200004ca500005e
:1035fc004da8000048ab00003cae00002ab1000012
:10360c000fb40000edb60000c2b900008ebc000083
:10361c0050bf000009c20000b7c400005bc7000027
:10362c00f4c9000081cc000002cf000077d100006b
:10363c00e0d300003bd6000089d80000c9da0000b6
:10364c00fbdc00001edf000033e1000039e300006a
:10365c002fe5000016e70000ece80000b3ea0000dc
:10366c0068ec00000dee0000a1ef000023f100005b
:10367c0094f20000f3f3000040f500007af600002d
:10368c00a3f70000b8f80000bbf90000abfa00008b
:10369c0088fb000052fc000008fd0000abfd0000a0
:1036ac003bfe0000b7fe00001fff000073ff000090
:1036bc00b4ff0000e1ff0000f9ff0000feff000076
:1036cc00efff0000cdff000096ff00004bff000055
:1036dc00edfe00007bfe0000f6fd00005cfd00002e
:1036ec00b0fc0000effb00001cfb000036fa0000f1
:1036fc003cf9000030f8000011f70000dff5000085
:10370c009bf4000045f30000def1000064f00000c3
:10371c00d9ee00003ded00008feb0000d2e9000077
:10372c0003e8000025e6000036e4000038e2000063
:10373c002be000000fde0000e4db0000abd9000042
:10374c0063d700000fd50000add200003ed00000c2
:10375c00c3cd00003ccb0000a9c800000bc6000084
:10376c0061c30000aec00000f0bd000029bb00002a
:10377c0058b800007fb500009db20000b4af000047
:10378c00c3ac0000cba90000cda60000c9a300006b
:10379c00bfa00000b09d00009c9a0000859700001f
:1037ac00699400004b910000298e0000068b0000ec
:1037bc00e1870000ba840000938100006c7e000059
:1037cc00457b00001e780000f9740000d6710000e3
:1037dc00b46e0000966b00007a6800006365000010
:1037ec004f620000405f0000365c00003259000060
:1037fc00345600003c5300004b500000624d00005a
:10380c00804a0000a7470000d64400000f42000089
:10381c00513f00009e3c0000f43900005637000078
:10382c00c33400003c320000c12f0000522d0000b8
:10383c00f02a00009c280000542600001b240000e5
:10384c00f0210000d41f0000c71d0000c91b0000a0
:10385c00da190000fc1700002d160000701400008f
:10386c00c2120000261100009b0f0000210e000068
:10387c00ba0c0000640b0000200a0000ee080000e7
:10388c00cf070000c3060000c9050000e3040000d8
:10389c00100400004f030000a30200000902000006
:1038ac008401000012010000b40000006900000057
:1038bc0032000000100000000100000006000000b3
:1038cc001e0000004b0000008c000000e000000017
:1038dc0048010000c401000054020000f70200007f
:1038ec00ad030000770400005405000044060000fe
:1038fc00470700005c08000085090000bf0a0000b3
:10390c000c0c00006b0d0000dc0e00005e100000c3
:10391c00f2110000971300004c1500001317000063
:10392c00e9180000d01a0000c61c0000cc1e0000d4
:10393c00e12000000423000036250000762700005b
:10394c00c42900001f2c0000882e0000fd30000050
:10395c007e3300000b360000a4380000483b00000a
:10396c00f63d0000af400000714300003d460000f2
:10397c0012490000f04b0000d54e0000c35100006e
:10398c00b7540000b2570000b35a0000bb5d0000f2
:10399c00c7600000d8630000ee660000086a0000f3
:1039ac00256d000045700000677300008c760000e8
:0c39bc00b1790000d87c00000080000001
:020000040000fa
:1039c80000000000000000000000000000000000ef
:1039d80000000000000000000000000000000000df
:1039e80000000000000000000000000000000000cf
:1039f80000000000000000000000000000000000bf
:103a080000000000000000000000000000000000ae
:103a1800000000000000000000000000000000009e
:103a28000000000000010000020200000202000085
:103a3800020100000000000000000000000000007b
:103a4800000000000000000000000000000000006e
:103a5800000000000000000000000000000000005e
:103a6800000000000000000000000000010100004c
:103a7800010100000103000003030000030300002c
:103a88000302000001010000020000000000000025
:103a9800000000000000000000000000000000001e
:103aa800000000000000000000000000000000000e
:103ab80000000000000000000101000003030000f6
:103ac80003030000030300000303000003030000d6
:103ad80003030000030300000301000001000000cd
:103ae80000000000000000000001000000000000cd
:103af80000000000000000000000000000000000be
:103b080000000000000100000303000003030000a0
:103b18000303000003030000030200000303000086
:103b28000303000003030000030300000302000076
:103b38000000000000000000010300000000000079
:103b4800000000000000000000000000000000006d
:103b58000000000000000000000000000303000057
:103b68000303000003030000030300000303000035
:103b78000404000003030000020300000303000024
:103b88000303000000010000030300000000000020
:103b9800000000000000000000000000000000001d
:103ba800000000000000000000000000000100000c
:103bb80001010000030300000303000003020000ea
:103bc80004040000020300000202000002020000d8
:103bd80003030000020300000303000000000000cc
:103be80000000000000000000000000000000000cd
:103bf80000000000000000000000000000000000bd
:103c0800000000000103000003030000030400009b
:103c18000404000004020000030200000202000085
:103c2800020300000303000003030000000000007b
:103c3800000000000000000000000000000000007c
:103c4800000000000000000000000000000000006c
:103c5800000000000002000003030000030400004d
:103c68000404000004040000030200000202000033
:103c7800020200000303000003030000000000002c
:103c8800000000000000000000000000000000002c
:103c9800000000000000000000000000000000001c
:103ca80000000000030300000303000003040000f9
:103cb80004020000030300000202000002020000e8
:103cc80002020000020300000303000000000000dd
:103cd80000000000000000000000000000000000dc
:103ce80000000000000000000000000002030000c7
:103cf80003030000030300000303000003030000a4
:103d0800030300000302000002020000010100009a
:103d1800020200000303000003030000000000008b
:103d2800000000000000000000000000000000008b
:103d38000000000000000000020200000303000071
:103d48000303000003030000020200000203000056
:103d58000202000002020000030300000303000047
:103d68000302000002020000030300000201000039
:103d7800000000000000000000000000000000003b
:103d8800000000000002000003030000030300001d
:103d98000302000003030000030200000201000008
:103da80001020000020300000303000002020000f9
:103db80002020000020300000303000003010000e8
:103dc80000000000000000000000000000000000eb
:103dd80000000000020300000303000003020000cb
:103de80003030000030200000303000002050000b3
:103df80002030000030300000301000005050000a2
:103e08000502000003030000030300000200000095
:103e1800000000000000000000000000000000009a
:103e28000002000003030000030300000303000076
:103e38000303000003030000030300000302000063
:103e4800020300000303000001050000050500004f
:103e58000505000003030000030200000200000043
:103e6800000000000000000000000000000000004a
:103e78000003000003030000030300000303000025
:103e88000303000003030000030300000303000012
:103e980003030000030300000105000005050000fe
:103ea80005050000050300000303000001000000f1
:103eb80000000000000000000000000000000000fa
:103ec80000010000010100000101000001020000e2
:103ed80003030000030300000303000002030000c3
:103ee80003030000030300000105000005050000ae
:103ef80005050000060200000203000001000000a2
:103f080000000000000000000000000000000000a9
:103f18000000000000000000000000000001000098
:103f28000101000003030000030300000303000075
:103f38000203000003030000020100000505000061
:103f48000505000006060000020600000200000049
:103f58000000000000000000000000000000000059
:103f68000000000000000000000000000000000049
:103f78000000000003030000030300000303000027
:103f88000303000002020000020100000505000012
:103f980005050000060200000204000003020000fc
:103fa8000000000000000000000000000000000009
:103fb80000000000000000000000000000000000f9
:103fc80001030000030300000303000003030000d3
:103fd80003010000040400000404000001040000c0
:103fe80005050000050400000401000006060000a5
:103ff80002000000000000000000000000000000b7
:1040080000000000000000000000000000010000a7
:104018000303000003020000030300000303000081
:104028000404000004040000040400000404000068
:104038000101000004040000040600000606000058
:104048000100000000000000000000000000000067
:104058000000000000000000000000000103000054
:104068000303000003030000030300000303000030
:104078000404000004040000040400000404000018
:10408800040400000404000004060000010000000d
:104098000000000000000000000000000000000018
:1040a8000000000000000000000100000303000001
:1040b80003030000030300000303000003030000e0
:1040c80003040000040400000404000004040000c9
:1040d80004040000040400000404000000000000c0
:1040e80000000000000000000000000000000000c8
:1040f80000000000000000000003000003030000af
:104108000203000002020000030300000303000092
:104118000303000004040000040400000404000079
:104128000404000004040000040000000000000073
:104138000000000000000000000000000000000077
:10414800000000000000000000030000030200005f
:10415800000000000000000001030000030300004d
:10416800030300000303000004020000040400002d
:10417800040400000000000000000000000000002f
:104188000000000000000000000000000000000027
:104198000000000000000000000000000000000017
:1041a80000000000000200000303000003030000f9
:1041b80003030000030300000303000003030000df
:1041c80003000000000000000000000000000000e4
:1041d80000000000000000000000000000000000d7
:1041e80000000000000000000000000000000000c7
:1041f80000000000000200000303000003040000a8
:10420800040400000403000003030000040100008c
:10421800010400000000000001010000010000008e
:104228000000000000000000000000000000000086
:104238000000000000000000000000000000000076
:104248000000000001030000030300000404000054
:104258000404000003030000030400000404000039
:104268000504000002010000050100000101000032
:104278000000000000000000000000000000000036
:104288000000000000000000000000000000000026
:104298000000000003030000030400000404000001
:1042a80004020000030200000404000004050000ea
:1042b80005050000020200000505000001010000dc
:1042c80001000000000000000000000000000000e5
:1042d80000000000000000000000000000000000d6
:1042e80000000000030100000404000002010000b7
:1042f8000105000005050000040400000404000096
:104308000504000002020000010200000201000092
:104318000100000000000000000000000000000094
:104328000000000000000000000000000000000085
:104338000000000000000000010200000101000070
:10434800010100000505000001040000040400004c
:104358000404000002020000010200000101000044
:104368000100000000000000000000000000000044
:104378000000000000000000000000000000000035
:10438800000000000002000003020000010100001c
:1043980001010000050100000501000004040000ff
:1043a80004030000030200000201000001010000f4
:1043b80001000000000000000000000000000000f4
:1043c80000000000000000000000000000000000e5
:1043d80000000000000100000302000001010000cd
:1043e80001010000010100000101000002020000bb
:1043f80002010000020200000201000002020000a7
:1044080000000000000000000000000000000000a4
:104418000000000000000000000000000000000094
:10442800000000000000000002030000020100007c
:104438000101000001010000020200000203000067
:104448000300000002020000020200000201000056
:104458000000000000000000000000000000000054
:104468000000000000000000000000000000000044
:10447800000000000000000001020000020200002d
:104488000101000001020000020200000303000015
:10449800030000000002000003020000000000000a
:1044a8000000000000000000000000000000000004
:1044b80000000000000000000000000000000000f4
:1044c80000000000000000000001000003020000de
:1044d80002020000020200000305000001030000c0
:1044e80003000000000000000000000000000000c1
:1044f80000000000000000000000000000000000b4
:1045080000000000000000000000000000000000a3
:104518000000000000000000000000000002000091
:10452800020200000203000002050000020300006e
:104538000300000000000000000000000000000070
:104548000000000000000000000000000000000063
:104558000000000000000000000000000000000053
:104568000000000000000000000000000003000040
:10457800030300000201000005050000020300001b
:104588000300000000000000000000000000000020
:104598000000000000000000000000000000000013
:1045a8000000000000000000000000000000000003
:1045b80000000000000000000000000001030000ef
:1045c80003030000020500000505000003030000c6
:1045d80003010000000000000000000000000000cf
:1045e80000000000000000000000000000000000c3
:1045f80000000000000000000000000000000000b3
:10460800000000000000000000010000020100009e
:10461800030300000205000005010000020300007a
:10462800030100000000000000000000000000007e
:104638000000000000000000000000000000000072
:104648000000000000000000000000000000000062
:10465800000000000000000001020000010100004d
:104668000101000001010000020200000101000038
:104678000101000000000000000000000000000030
:104688000000000000000000000000000000000022
:104698000000000000000000000000000000000012
:1046a80000000000000000000103000002020000fa
:1046b80001010000010200000202000001010000e7
:1046c80001020000020000000000000000000000dd
:1046d80000000000000000000000000000000000d2
:1046e80000000000000000000000000000000000c2
:1046f800000000000000000001060000060600009f
:10470800060600000606000007020000010100007e
:104718000703000007070000070000000000000072
:104728000000000000000000000000000000000081
:104738000000000000000000000000000000000071
:10474800000000000000000002060000070700004b
:10475800070700000702000006020000020200002e
:104768000607000007070000070100000107000016
:104778000000000000000000000000000000000031
:104788000000000000000000000000000000000021
:1047980000000000000600000607000001050000f8
:1047a80005050000050500000707000007060000d2
:1047b80007070000070700000101000001070000cb
:1047c80007000000000000000000000000000000da
:1047d80000000000000000000000000000000000d1
:1047e80000000000000600000701000007070000a5
:1047f800070700000707000005070000060700007c
:10480800070700000201000001010000070700007f
:10481800070700000700000000000000000000007b
:104828000000000000000000000000000000000080
:10483800000000000006000007070000070700004e
:10484800070700000107000007070000060700002f
:104858000707000002010000010700000707000029
:104868000707000001070000070000000000000023
:104878000000000000000000000000000000000030
:1048880000000000000600000707000007070000fe
:1048980007070000070700000707000006070000d9
:1048a80007020000020200000107000007070000dd
:1048b80007070000070700000700000000000000cd
:1048c80000000000000000000000000000000000e0
:1048d80000000000000600000607000007070000af
:1048e800070700000707000007060000060700008a
:1048f800070200000202000002070000070700008c
:10490800070700000707000007070000070000006e
:10491800000000000000000000000000000000008f
:104928000000000000000000060600000606000067
:10493800060600000606000006060000060600003f
:10494800060600000606000006060000060600002f
:104958000606000006060000060600000600000025
:10496800000000000000000000000000000000003f
:10497800000000000000000000000000000000002f
:10498800000000000000000000000000000000001f
:10499800000000000000000000000000000000000f
:1049a80000000000000000000000000000000000ff
:1049b80000000000000000000000000000000000ef
:1049c80000000000000000000000000000000000df
:1049d80000000000000000000000000000000000cf
:1049e80000000000000000000000000000000000bf
:1049f80000000000000000000000000000000000af
:104a0800000000000000000000000000000000009e
:104a1800000000000000000000000000000000008e
:104a2800000000000000000000000000000000007e
:104a3800000000000000000000000000000000006e
:104a4800000000000000000000000000000000005e
:104a5800000000000000000000000000000000004e
:104a6800000000000000000000000000000000003e
:104a7800000000000000000000000000000000002e
:104a8800000000000000000000000000000000001e
:104a9800000000000000000000000000000000000e
:104aa80000000000000000000000000000000000fe
:104ab80000000000000000000100000000000000ed
:104ac80000000000000000000000000000000000de
:104ad80000000000000000000000000000000000ce
:104ae80000000000000000000000000000000000be
:104af80000000000000000000000000000000000ae
:104b0800000000000000000000000000000000009d
:104b1800000000000000000000000000000000008d
:104b2800000000000000000000000000000000007d
:104b3800000000000000000000000000000000006d
:104b4800000000000000000000000000000000005d
:104b5800000000000000000000000000000000004d
:104b6800000000000000000000000000000000003d
:104b7800000000000000000000000000000000002d
:104b8800000000000000000000000000000000001d
:104b9800000000000000000000000000000000000d
:104ba80000000000000000000000000000000000fd
:104bb80000000000000000000000000000000000ed
:104bc80000000000000000000000000000000000dd
:104bd80000000000000000000000000000000000cd
:104be80000000000000000000000000000000000bd
:104bf80000000000000000000000000000000000ad
:104c0800000000000000000000000000000000009c
:104c1800000000000000000000000000000000008c
:104c2800000000000000000000000000000000007c
:104c38000000000000010000010100000000000069
:104c4800000000000000000000000000000000005c
:104c5800000000000000000000000000000000004c
:104c6800020000000000000000000000000000003a
:104c7800000000000000000000000000000000002c
:104c8800000000000000000000000000000000001c
:104c9800000000000000000000000000000000000c
:104ca80000000000000000000000000000000000fc
:104cb80000000000000000000000000000000000ec
:104cc80000000000000000000000000000000000dc
:104cd80000000000000000000000000000000000cc
:104ce80000000000000000000000000000000000bc
:104cf80000000000000000000000000000000000ac
:104d0800000000000000000000000000000000009b
:104d1800000000000000000000000000000000008b
:104d2800000000000000000000000000000000007b
:104d3800000000000000000000000000000000006b
:104d4800000000000000000000000000000000005b
:104d5800000000000000000000000000000000004b
:104d6800000000000000000000000000000000003b
:104d7800000000000000000000000000000000002b
:104d8800000000000000000000000000000000001b
:104d9800000000000000000000000000000000000b
:104da80000000000000000000000000001010000f9
:104db80000000000000100000000000000000000ea
:104dc80000000000000000000000000000000000db
:104dd80000000000000000000202000000000000c7
:104de80000000000000000000000000000000000bb
:104df80001010000000000000000000000000000a9
:104e0800000000000000000000000000000000009a
:104e1800000000000000000000000000000000008a
:104e2800000000000000000000000000000000007a
:104e3800000000000000000000000000000000006a
:104e4800000000000000000000000000000000005a
:104e5800000000000000000000000000000000004a
:104e6800000000000000000000000000000000003a
:104e7800000000000000000000000000000000002a
:104e8800000000000000000000000000000000001a
:104e9800000000000000000000000000000000000a
:104ea80000000000000000000000000000000000fa
:104eb80000000000000000000000000000000000ea
:104ec80000000000000000000000000000000000da
:104ed80000000000000000000000000000000000ca
:104ee80000000000000000000000000000000000ba
:104ef80000000000000000000000000000000000aa
:104f08000000000000000000000000000000000099
:104f18000000000000000000000100000000000088
:104f28000000000000000000000000000000000079
:104f38000101000001010000000100000101000062
:104f48000100000000000000000000000000000058
:104f58000101000001010000000100000101000042
:104f68000101000001010000010100000000000033
:104f78000000000000000000000000000100000028
:104f88000000000000000000000000000000000019
:104f98000000000000000000000000000000000009
:104fa80000000000000000000000000000000000f9
:104fb80000000000000000000000000000000000e9
:104fc80000000000000000000000000000000000d9
:104fd80000000000000000000000000000000000c9
:104fe80000000000000000000000000000000000b9
:104ff80000000000000000000000000000000000a9
:105008000000000000000000000000000000000098
:105018000000000000000000000000000000000088
:105028000000000000000000000000000000000078
:105038000000000000000000000000000000000068
:105048000000000000000000000000000000000058
:105058000000000000000000000000000000000048
:105068000000000000000000000000000000000038
:105078000000000000000000000000000000000028
:105088000000000000000000000000000000000018
:105098000000000000000000000000000000000008
:1050a80000000000000000000001000000000000f7
:1050b80000000000000000000100000000000000e7
:1050c80001010000030100000301000001010000cc
:1050d80001010000010100000000000001000000c3
:1050e80000000000040400000404000004040000a0
:1050f800040400000200000000010000010100009b
:105108000000000000000000000100000101000094
:105118000000000000000000000000000000000087
:105128000000000000000000000000000000000077
:105138000000000000000000000000000000000067
:105148000000000000000000000000000000000057
:105158000000000000000000000000000000000047
:105168000000000000000000000000000000000037
:105178000000000000000000000000000000000027
:105188000000000000000000000000000000000017
:105198000000000000000000000000000000000007
:1051a80000000000000000000000000000000000f7
:1051b80000000000000000000000000000000000e7
:1051c80000000000000000000000000000000000d7
:1051d80000000000000000000000000000000000c7
:1051e80000000000000000000000000000000000b7
:1051f80000000000000000000000000000000000a7
:105208000000000000000000000000000000000096
:105218000000000000000000000000000000000086
:105228000000000000000000000000000000000076
:105238000000000000010000010000000000000064
:105248000000000000000000010100000103000050
:105258000103000001030000010100000303000036
:105268000101000001000000010100000000000031
:105278000000000005060000060600000706000002
:1052880007060000060600000604000006040000e9
:1052980002020000020000000200000000000000fe
:1052a80000000000000000000000000000000000f6
:1052b80000000000000000000000000000000000e6
:1052c80000000000000000000000000000000000d6
:1052d80000000000000000000000000000000000c6
:1052e80000000000000000000000000000000000b6
:1052f80000000000000000000000000000000000a6
:105308000000000000000000000000000000000095
:105318000000000000000000000000000000000085
:105328000000000000000000000000000000000075
:105338000000000000000000000000000000000065
:105348000000000000000000000000000000000055
:105358000000000000000000000000000000000045
:105368000000000000000000000000000000000035
:105378000000000000000000000000000000000025
:105388000000000000000000000000000000000015
