:020000040000fa
:080000000002040000000000f2
:020000040000fa
:04000800e002000012
:020000040000fa
:04000c00e00200000e
:020000040000fa
:04001000e00200000a
:020000040000fa
:04001400e002000006
:020000040000fa
:04001800e002000002
:020000040000fa
:04001c00e0020000fe
:020000040000fa
:04002000e0020000fa
:020000040000fa
:04002400e0020000f6
:020000040000fa
:04002800e0020000f2
:020000040000fa
:04002c00e0020000ee
:020000040000fa
:04003000e0020000ea
:020000040000fa
:04003400c2ef000017
:020000040000fa
:04003800e0020000e2
:020000040000fa
:04003c00e0020000de
:020000040000fa
:04004000e0020000da
:020000040000fa
:04004400e0020000d6
:020000040000fa
:04004800e0020000d2
:020000040000fa
:04004c00e0020000ce
:020000040000fa
:04005000e0020000ca
:020000040000fa
:04005400e0020000c6
:020000040000fa
:04005800e0020000c2
:020000040000fa
:04005c00e0020000be
:020000040000fa
:04006000e0020000ba
:020000040000fa
:04006400e0020000b6
:020000040000fa
:04006800e0020000b2
:020000040000fa
:04006c00e0020000ae
:020000040000fa
:04007000e0020000aa
:020000040000fa
:04007400e0020000a6
:020000040000fa
:04007800e0020000a2
:020000040000fa
:04007c00e00200009e
:020000040000fa
:04008000e00200009a
:020000040000fa
:04008400e002000096
:020000040000fa
:04008800e002000092
:020000040000fa
:04008c00e00200008e
:020000040000fa
:04009000e00200008a
:020000040000fa
:04009400e002000086
:020000040000fa
:04009800e002000082
:020000040000fa
:04009c00e00200007e
:020000040000fa
:0400a000e00200007a
:020000040000fa
:0400a400e002000076
:020000040000fa
:0400a800e002000072
:020000040000fa
:0400ac00e00200006e
:020000040000fa
:0400b000e00200006a
:020000040000fa
:0400b400e002000066
:020000040000fa
:0400b800e002000062
:020000040000fa
:0400bc00e00200005e
:020000040000fa
:0400c000e00200005a
:020000040000fa
:0400c400e002000056
:020000040000fa
:0400c800e002000052
:020000040000fa
:0400cc00e00200004e
:020000040000fa
:0400d000e00200004a
:020000040000fa
:0400d400e002000046
:020000040000fa
:0400d800e002000042
:020000040000fa
:0400dc00e00200003e
:020000040000fa
:0400e000e00200003a
:020000040000fa
:0400e400e002000036
:020000040000fa
:0400e800e002000032
:020000040000fa
:0400ec00e00200002e
:020000040000fa
:0400f000e00200002a
:020000040000fa
:0400f400e002000026
:020000040000fa
:0400f800e002000022
:020000040000fa
:0400fc00e00200001e
:020000040000fa
:04010000e002000019
:020000040000fa
:04010400e002000015
:020000040000fa
:04010800e002000011
:020000040000fa
:04010c00e00200000d
:020000040000fa
:04011000e002000009
:020000040000fa
:04011400e002000005
:020000040000fa
:04011800e002000001
:020000040000fa
:04011c00e0020000fd
:020000040000fa
:04012000e0020000f9
:020000040000fa
:04012400e0020000f5
:020000040000fa
:04012800e0020000f1
:020000040000fa
:04012c00e0020000ed
:020000040000fa
:04013000e0020000e9
:020000040000fa
:04013400e0020000e5
:020000040000fa
:04013800e0020000e1
:020000040000fa
:04013c00e0020000dd
:020000040000fa
:04014000e0020000d9
:020000040000fa
:04014400e0020000d5
:020000040000fa
:04014800e0020000d1
:020000040000fa
:04014c00e0020000cd
:020000040000fa
:04015000e0020000c9
:020000040000fa
:04015400e0020000c5
:020000040000fa
:04015800e0020000c1
:020000040000fa
:04015c00e0020000bd
:020000040000fa
:04016000e0020000b9
:020000040000fa
:04016400e0020000b5
:020000040000fa
:04016800e0020000b1
:020000040000fa
:04016c00e0020000ad
:020000040000fa
:04017000e0020000a9
:020000040000fa
:04017400e0020000a5
:020000040000fa
:04017800e0020000a1
:020000040000fa
:04017c00e00200009d
:020000040000fa
:04018000e002000099
:020000040000fa
:04018400e002000095
:020000040000fa
:04018800e002000091
:020000040000fa
:04018c00e00200008d
:020000040000fa
:04019000e002000089
:020000040000fa
:04019400e002000085
:020000040000fa
:04019800e002000081
:020000040000fa
:04019c00e00200007d
:020000040000fa
:0401a000e002000079
:020000040000fa
:0401a400e002000075
:020000040000fa
:0401a800e002000071
:020000040000fa
:0401ac00e00200006d
:020000040000fa
:0401b000e002000069
:020000040000fa
:0401b400e002000065
:020000040000fa
:0401b80022cc000055
:020000040000fa
:04020800e002000010
:020000040000fa
:04020c00e00200000c
:020000040000fa
:04021000e002000008
:020000040000fa
:04021400e002000004
:020000040000fa
:04021800e002000000
:020000040000fa
:04021c00e0020000fc
:020000040000fa
:04022000e0020000f8
:020000040000fa
:04022400e0020000f4
:020000040000fa
:04022800e0020000f0
:020000040000fa
:04022c00e0020000ec
:020000040000fa
:04023000e0020000e8
:020000040000fa
:04023400e0020000e4
:020000040000fa
:04023800e0020000e0
:020000040000fa
:04023c00e0020000dc
:020000040000fa
:04024000e0020000d8
:020000040000fa
:04024400e0020000d4
:020000040000fa
:04024800e0020000d0
:020000040000fa
:04024c00e0020000cc
:020000040000fa
:04025000e0020000c8
:020000040000fa
:04025400e0020000c4
:020000040000fa
:04025800e0020000c0
:020000040000fa
:04025c00e0020000bc
:020000040000fa
:04026000e0020000b8
:020000040000fa
:04026400e0020000b4
:020000040000fa
:04026800e0020000b0
:020000040000fa
:04026c00e0020000ac
:020000040000fa
:04027000e0020000a8
:020000040000fa
:04027400e0020000a4
:020000040000fa
:04027800e0020000a0
:020000040000fa
:04027c00e00200009c
:020000040000fa
:04028000e002000098
:020000040000fa
:04028400e002000094
:020000040000fa
:04028800e002000090
:020000040000fa
:04028c00e00200008c
:020000040000fa
:04029000e002000088
:020000040000fa
:04029400e002000084
:020000040000fa
:04029800e002000080
:020000040000fa
:04029c00e00200007c
:020000040000fa
:0402a000e002000078
:020000040000fa
:0402a400e002000074
:020000040000fa
:0402a800e002000070
:020000040000fa
:0402ac00e00200006c
:020000040000fa
:0402b000e002000068
:020000040000fa
:0402b400e002000064
:020000040000fa
:0402b800e002000060
:020000040000fa
:0402bc00e00200005c
:020000040000fa
:0402c000e002000058
:020000040000fa
:0402c400e002000054
:020000040000fa
:0402c800e002000050
:020000040000fa
:0402cc00e00200004c
:020000040000fa
:0402d000e002000048
:020000040000fa
:0402d400e002000044
:020000040000fa
:0402d800e002000040
:020000040000fa
:0402dc00e00200003c
:020000040000fa
:0402e000e002000038
:020000040000fa
:0402e400e002000034
:020000040000fa
:0402e800e002000030
:020000040000fa
:0402ec00e00200002c
:020000040000fa
:0402f000e002000028
:020000040000fa
:0402f400e002000024
:020000040000fa
:0402f800e002000020
:020000040000fa
:0402fc00e00200001c
:020000040000fa
:04030000e002000017
:020000040000fa
:04030400e002000013
:020000040000fa
:04030800e00200000f
:020000040000fa
:04030c00e00200000b
:020000040000fa
:04031000e002000007
:020000040000fa
:04031400e002000003
:020000040000fa
:04031800e0020000ff
:020000040000fa
:04031c00e0020000fb
:020000040000fa
:04032000e0020000f7
:020000040000fa
:04032400e0020000f3
:020000040000fa
:04032800e0020000ef
:020000040000fa
:04032c00e0020000eb
:020000040000fa
:04033000e0020000e7
:020000040000fa
:04033400e0020000e3
:020000040000fa
:04033800e0020000df
:020000040000fa
:04033c00e0020000db
:020000040000fa
:04034000e0020000d7
:020000040000fa
:04034400e0020000d3
:020000040000fa
:04034800e0020000cf
:020000040000fa
:04034c00e0020000cb
:020000040000fa
:04035000e0020000c7
:020000040000fa
:04035400e0020000c3
:020000040000fa
:04035800e0020000bf
:020000040000fa
:04035c00e0020000bb
:020000040000fa
:04036000e0020000b7
:020000040000fa
:04036400e0020000b3
:020000040000fa
:04036800e0020000af
:020000040000fa
:04036c00e0020000ab
:020000040000fa
:04037000e0020000a7
:020000040000fa
:04037400e0020000a3
:020000040000fa
:04037800e00200009f
:020000040000fa
:04037c00e00200009b
:020000040000fa
:04038000e002000097
:020000040000fa
:04038400e002000093
:020000040000fa
:04038800e00200008f
:020000040000fa
:04038c00e00200008b
:020000040000fa
:04039000e002000087
:020000040000fa
:04039400e002000083
:020000040000fa
:04039800e00200007f
:020000040000fa
:04039c00e00200007b
:020000040000fa
:0403a000e002000077
:020000040000fa
:0403a400e002000073
:020000040000fa
:0403a800e00200006f
:020000040000fa
:0403ac00e00200006b
:020000040000fa
:0403b000e002000067
:020000040000fa
:0403b400e002000063
:020000040000fa
:0403b800e00200005f
:020000040000fa
:100400004fa020008efe24000e0188000000000096
:10041000000020000000e000020032000001200087
:10042000200288000c00070000382e000100200088
:100430000f000700000020000000e0000200320072
:100440000000020000000000c2ed020000000000f9
:100450000040da000000fe00801120000000e000f3
:1004600002003200002020009001880000000600f9
:10047000a1028800800078000000eb001a0037001d
:10048000e280400054a0b4009101ba00e280400034
:1004900054a0b4009102ba00e280400054a0b4001d
:1004a0000002eb00472bde00f507b200a601880032
:1004b000602ce10008003a000049eb000201e8006e
:1004c000020039003420ec0002f0a0008301e900b2
:1004d000f9ff3e00040037006128e100010032000e
:1004e0000082eb000b00070011c3ba001101ba0033
:1004f0000604e00003003a000200e000e0ff3a00da
:1005000000000600f607b200a6028800820078000c
:10051000f5ff370004d0a300e20f49001c003900aa
:10052000810278003549ba000201e8000200390072
:100530003420ec0002f0a0008301e9000f0032003b
:100540002549ba000201e800020039003420ec001d
:1005500002f0a0008301e900080032000400e0007e
:100560000600320015c9ba000201e8000200390095
:100570003420ec0002f0a0008301e9008180e80053
:1005800054a0b4000300e000e2ff3a0000000600bf
:100590009102ba00055978008301e900f7ff3200a3
:1005a000c82ade00055978008301e900f3ff320014
:1005b0000400e000f1ff320011d9ba00eeff37006d
:1005c0000040da000000fe0003f0a200889fbe0099
:1005d0008a9fbe008c1f78001b0107002201330098
:1005e0006450e1004f0032006420e100520032000c
:1005f00003826c0007003b000905d0000306d00011
:10060000820f54000c065d00020039000200320027
:1006100089017800030678008582550004003d00ba
:100620000003fd008103fd008502ea008b85420086
:10063000840f720002003b0060001000e080180090
:100640006011b8000005eb007a28e1000a003900cb
:1006500006007800c75ddd00f707b20087807500ef
:100660002d003700828171000a0178006105600069
:100670008180d1000080d3008502e900f9ff3b00b2
:10068000060440008784480002003b006004140018
:10069000e0841c000988a300070032008a817100f1
:1006a00082817100610164008904d1000884d30053
:1006b0008b05e800170037000978a30013003a0003
:1006c0000b00e000130034008b05e900080444002f
:1006d00089844c000a4474000978a3000d003a0094
:1006e0000b00e000070034008b05e900080444001b
:1006f00089844c0001003a000b0020000978a30017
:10070000f7ff32000001eb00020037008281710028
:100710000a017800910007000cf0a70001f0a0008a
:10072000da0037006420e10002003a00838f6c0099
:10073000da0033000801be000200be00d30037001b
:100740000081eb000c013700889fbe008a9fbe002d
:100750008c1f7800bc000700c300330003866c00c8
:100760006450e1002e0032006420e10033003200ca
:100770006150e1002f0032006120e10031003200c1
:1007800085855500eb07b000090020000804200013
:10079000050037000804440089844c000a00310039
:1007a0000603430087834b000001530081815b00f7
:1007b000f8ff33000203be000800a0000804440054
:1007c00089844c00f6ff3900c639dd0083017300cf
:1007d00001003200130020008904d1000884d300f6
:1007e0000998a300050032000800a7000300a0003c
:1007f0008904d1000884d3008b05e8008904d10066
:100800000884d3000001eb000281d20053000700ee
:1008100001f0a1000cf0a70001f0a0009b00370040
:100820006420e1009d0032000801be000200be000d
:10083000f7ff37006120e100980032006000b80047
:10084000f3ff37000000200001f82700f0ff370019
:10085000f4ff2f00360137000001be0065000700dd
:100860000470a70003f0a1006509b1001600320072
:100870000d0035006828e10006003500f0ff2f006c
:10088000f1ff27000300e00013003b0001002800f7
:100890000000050000004000818048008502e9005a
:1008a000fcff3a0008003700f88f420002003c00cd
:1008b0008000eb00000005008100d1000080d30023
:1008c0008502e800fcff3a000300e00002003b0064
:1008d00060001000e0801800000006000001be006b
:1008e000440007000470a70003f0a10003f8a30070
:1008f00013003a006509b10010003200090035000c
:100900006928e10002003500010028000000050010
:1009100000004000818048008502e900fcff3a00a9
:1009200000000600f88f4200050035008100d1006c
:100930000080d3008502e800fcff3a0000000600ba
:100940008000eb00000005004f89de008201780086
:10095000140137006011b800220137008100200027
:10096000618055000b003d000b00200061fe2f0050
:100970000100e1001d00340082817100610164000a
:100980008904d1000884d3000000e800faff3a008f
:10099000710020006100640003007000020060002c
:1009a0000900320061044400e0844c000988a5007d
:1009b000050032008b05e8006808e10002003a00fb
:1009c0008904d1000884d300f20f20000258e1000e
:1009d00005003d00c75ddd00f907b20089807500a4
:1009e00008007800000006000bf827008b00780054
:1009f00000000500c70ade00f107b200f50fb200e3
:100a000008003200e1cf4200020032000170a00075
:100a100024000500810f7000010032000408050069
:100a200044000500810f700002003a001400050028
:100a30008502e9000000400081c04800fcff3b0047
:100a40000170a000240005000004be00e9ff0700bb
:100a50000003be000405be000200be00e5ff070063
:100a6000844f7500000006000200be006450e100e3
:100a7000050036006420e100020036000968a3008a
:100a800001003a000800be000160a0004f06780097
:100a90004f05be004f04be0000000600f0ff2f000f
:100aa000f1ff2700f9ff3700889fbe008a9fbe0034
:100ab0008c1f7800e4ff0700ebff330003866c0017
:100ac0006450e100240032006420e100270032007d
:100ad0006150e100220032006120e100210032007b
:100ae0008b854200eb07b1000134b800003ab80032
:100af0000804420089844a00013ab8000030b80076
:100b00008880400009014a000400330000004000d2
:100b100081804800020149008b05e900c909dd0018
:100b2000830170000100320013002000c814de00b1
:100b30004814dd004709de001200b200c808de00dc
:100b40000884700085ff070001f0a1000cf0a700e9
:100b500001f0a000cdff37006120e100cfff32009f
:100b60000801be000200be00f7ff37006150e1003f
:100b7000fcff3a00c9ff3700889fbe008a9fbe0075
:100b80008c9fbe00820578000004be0099ff07001c
:100b90000800be006420e1000700390002003a00ae
:100ba000f1ff2700f0ff2f000160a00012022000db
:100bb00032418800550037006120e10003003a000f
:100bc0000b00a70001f823005000370001f0a1003e
:100bd0000200210093642400700007000800be009a
:100be00004003500b2fd2000930c2400ac00070087
:100bf0000004be000005eb000b00a6004f0dde0058
:100c000001f0a1000004be0032982f0023ea230067
:100c1000a5ff07000001eb0003f023000b00a70075
:100c200003f8230069fe07000bff07000000a70080
:100c30000a00a20044ff07000b00e000030032009e
:100c40000200200003f023005ffe070001f0a20075
:100c50000006be00020020009304240092ff07005b
:100c60000801be0059fe0700809fbe000c00be00b8
:100c700022a22a00d3a723008bff07004f01be004a
:100c800052fe07000004be0001f0a1000200200097
:100c900003982300410007000800be00190035003a
:100ca0000001be0080ff07000006be00b2c529009b
:100cb000e36223007cff070022222b00f3942b0029
:100cc00042fe07000c01be0077ff0700e273280018
:100cd00083c023003dfe07000c01be0072ff070029
:100ce00042aa2a00a3e22b0038fe07000c01be0036
:100cf0006dff07000801be006bff07000801be0082
:100d000032fe07000a00a70001f0a2004f06be0055
:100d10004f05be004f04be00000006000001eb00be
:100d200095ff3700af0007000400be00000006007a
:100d3000889fbe008a9fbe00841f780042ff070084
:100d40004f00780011003300f0ff2f00838f6c00fc
:100d500006003b00040565000a00a70008003700f4
:100d600009f0a6001000200008003700820f540090
:100d7000838f5c00030039001000200001003e005a
:100d80000000200009f0a7000000ea004f05be00a7
:100d90004f04be000000e000000006001400200028
:100da000e3ff3700881f7800030478000300e000a9
:100db00007003d0060001000e0801800600119008d
:100dc000e081190002003b0001f02d000300370014
:100dd0000400070008f0a70001f0a0004f0478000d
:100de00000000600889fbe008a9fbe00008270003f
:100df0000402710004827100260032000004be006b
:100e00000200be006011b8006b09200095022000ae
:100e10000182cf000a0039000541b1000082cf00f5
:100e2000070039000541b1000982cf0004003900f4
:100e30000541b1000882cf00010039000541b10031
:100e400005425200120032000a003b00828171000c
:100e5000610164008100d1000080d3008984d30047
:100e60000884d3008b05e8000442e800f7ff3a004d
:100e7000070037000804440089844c000000480043
:100e8000818048008b05e9000442e900f9ff3a003f
:100e9000b2fe07004f05be004f04be000000060072
:100ea0000400200000003700889fbe008a9fbe001b
:100eb0008c1f78004f26dd00e3fe0700eafe3300ba
:100ec0006120e100430032006250e10041003e0039
:100ed0003e0039006420e1003c00320005825500ec
:100ee0000f003b000402e80038003a00800f530076
:100ef000818f5b00350034000800be0003f0a100c4
:100f000001f0a60003f0a0000cf0a700affd070061
:100f1000defe37000603430087834b000c46460085
:100f20000005530081855b00020033000a03be0008
:100f30000c00a0000402e900f6ff3b0085057800e4
:100f40000602430087824b0004003a006000b800ac
:100f500009f0a70001f0a000ccfe3700000252000b
:100f600081825a000704e0000400330006034300b6
:100f700087834b008b05e900faff370009057800ed
:100f80000604be000203be006011b80073fe070035
:100f9000e00f5200e08f5a000700350002003c00cd
:100fa0000c08a300040032000601be0003f0a000fc
:100fb0000cf0a70085fd07000a85680001f0a1007c
:100fc0000af0a70001f0a000b0fe37000800be0044
:100fd000aefe3700100220000cf0a6003041880061
:100fe000aefe37006022b800060220000000d000ec
:100ff0008180d2000482d2008582d2000000a0004d
:101000000202520083825a000300310002024200b1
:1010100083824a000000a1000603e900f3ff3a00c2
:10102000000006008000eb0000508800115088008e
:1010300011c0b300e09f20000148780000000600c6
:10104000e09f20001004e00002003a0010002000a1
:10105000f4ff0700d2e62400631c24000050800047
:1010600011508000090007009203230003002000b4
:10107000000141008181490002508800135088001e
:101080000300780000f0a10000000600020ab90089
:10109000001bb9000200b80081004200810043003b
:0410a0000000060046
:020000040000fa
:1010a4004120000066610000746100006c200000b3
:1010b40065780000636500007065000074690000d5
:1010c4006f6e0000203000007832000034440000cd
:1010d4002068000061730000206f0000636300005b
:1010e40075720000726500006420000061740000e5
:1010f40020300000304600004300000020090000ba
:101104002a2000004375000072720000656e000022
:101114007420000061700000706c000069630000be
:1011240061740000696f00006e20000077690000a0
:101134006c6c0000206200006520000074650000f3
:10114400726d0000696e0000617400006564000047
:101154002e000000200900002a2000004552000053
:10116400524f0000523a0000204300005055000046
:10117400207200006566000075730000656400005d
:10118400207400006f2000006f700000656e000086
:10119400207300006869000074200000646500008a
:1011a4006d6f0000732e000000200000092a00006b
:1011b400205000007265000073730000206100007d
:1011c4006e790000206b000065790000206f00003c
:1011d400722000006a75000073740000206700002c
:1011e4006976000065200000757000002061000031
:1011f4006c72000065610000647900002e0000003c
:10120400200900002a2000005072000065730000cd
:101214007320000043540000524c0000202b0000b7
:10122400204100004c540000202b0000204400000a
:10123400454c0000206600006f720000206600002c
:10124400756e0000210000002a2a00002a200000f8
:101254005348000049540000444500004d4f00002d
:101264002e45000058450000202d000020200000dd
:101274004164000064720000657300007320000084
:101284003078000034390000445500004346000023
:1012940041000000507200006573000073200000dc
:1012a400616e0000792000006b6500007920000069
:1012b400746f0000206300006f6e0000746900000a
:1012c4006e750000652e00002e2e00000000000048
:020000040000fa
:1012d4000100000001000000010000000100000006
:1012e40001000000010000000100000001000000f6
:1012f40001000000010000000100000001000000e6
:1013040001000000010000000100000001000000d5
:020000040000fa
:108a840064000000640000005e0000005e0000005e
:108a94005e0000005e0000005e0000005e0000005a
:108aa4005e0000005e0000005e0000005e0000004a
:108ab4005e0000005e0000005e0000005e0000003a
:108ac4005e0000005e0000005e0000005e0000002a
:108ad4006400000064000000640000006400000002
:108ae40064000000640000005e0000005e000000fe
:108af4005e0000005e0000005e0000005e000000fa
:108b04005e0000005e0000005e0000005e000000e9
:108b14005e0000005e0000005e0000005e000000d9
:108b24005e0000005e0000005e0000005e000000c9
:108d840064000000640000005e0000005e0000005b
:108d94005e0000005e0000005e0000005e00000057
:108da4005e0000005e0000005e0000005e00000047
:108db4005e0000005e0000005e0000005e00000037
:108dc4005e0000005e0000005e0000005e00000027
:108dd40064000000640000006400000064000000ff
:108de40064000000640000005e0000005e000000fb
:108df4005e0000005e0000005e0000005e000000f7
:108e04005e0000005e0000005e0000005e000000e6
:108e14005e0000005e0000005e0000005e000000d6
:108e24005e0000005e0000005e0000005e000000c6
:1090840064000000640000005e0000005e00000058
:109094005e0000005e0000005e0000005e00000054
:1090a4005e0000005e0000005e0000005e00000044
:1090b4005e0000005e0000005e0000005e00000034
:1090c4005e0000005e0000005e0000005e00000024
:1090d40064000000640000006400000064000000fc
:1090e40064000000640000005e0000005e000000f8
:1090f4005e0000005e0000005e0000005e000000f4
:109104005e0000005e0000005e0000005e000000e3
:109114005e0000005e0000005e0000005e000000d3
:109124005e0000005e0000005e0000005e000000c3
:1093840064000000640000005e0000005e00000055
:109394005e0000005e0000005e0000005e00000051
:1093a4005e0000005e0000005e0000005e00000041
:1093b4005e0000005e0000005e0000005e00000031
:1093c4005e0000005e0000005e0000005e00000021
:1093d40064000000640000006400000064000000f9
:1093e40064000000640000005e0000005e000000f5
:1093f4005e0000005e0000005e0000005e000000f1
:109404005e0000005e0000005e0000005e000000e0
:109414005e0000005e0000005e0000005e000000d0
:109424005e0000005e0000005e0000005e000000c0
:1096840064000000640000005e0000005e00000052
:109694005e0000005e0000005e0000005e0000004e
:1096a4005e0000005e0000005e0000005e0000003e
:1096b4005e0000005e0000005e0000005e0000002e
:1096c4005e0000005e0000005e0000005e0000001e
:1096d40064000000640000006400000064000000f6
:1096e40064000000640000005e0000005e000000f2
:1096f4005e0000005e0000005e0000005e000000ee
:109704005e0000005e0000005e0000005e000000dd
:109714005e0000005e0000005e0000005e000000cd
:109724005e0000005e0000005e0000005e000000bd
:10a194002c0100002c0100007b0100007b01000069
:10a1a4007b0100007b0100007b0100007b010000bb
:10a1b4001c0100001c0100001c0100001c01000027
:10a1c4001c0100001c0100001c0100001c01000017
:10a1d4001c0100001c0100001c0100001c01000007
:10a1e4001c0100001c0100001c0100001c010000f7
:10a1f4001c0100001c0100001c0100001c010000e7
:10a204001c0100001c0100001c0100001c010000d6
:10a214001c0100001c0100001c0100001c010000c6
:10a224001c0100001c0100001c0100001c010000b6
:10a234001c0100001c0100001c0100001c010000a6
:10a244001c0100001c0100001c0100001c01000096
:10a254001c0100001c0100001c0100001c01000086
:10a264001c0100001c0100001c0100001c01000076
:10a274001c0100001c0100001c0100001c01000066
:10a284001c0100001c0100001c0100001c01000056
:10a294001c0100001c0100001c0100001c01000046
:10a2a4001c0100001c0100001c0100001c01000036
:10a2b4001c0100001c0100001c0100001c01000026
:10a2c4001c0100001c0100001c0100001c01000016
:10a2d4001c0100001c0100001c0100001c01000006
:10a2e4001c0100001c0100001c0100001c010000f6
:10a2f4001c0100001c0100001c0100001c010000e6
:10a304001c0100001c0100001c0100001c010000d5
:10a314001c0100001c0100007b0100007b01000007
:10a324007b0100007b0100007b0100007b01000039
:10a33400e1000000e1000000e1000000e100000095
:10a34400e1000000e1000000e1000000e100000085
:10a35400e1000000e1000000e1000000e100000075
:10a61400fd000000fd0000001c0100001c01000002
:10a624001c0100001c0100001c0100001c010000b2
:10a634005e0000005e0000005e0000005e0000009e
:10a644005e0000005e0000005e0000005e0000008e
:10a654005e0000005e0000005e0000005e0000007e
:10a8840064000000640000005e0000005e00000040
:10a894005e0000005e0000005e0000005e0000003c
:10a8a4005e0000005e0000005e0000005e0000002c
:10a8b4005e0000005e0000005e0000005e0000001c
:10a8c4005e0000005e0000005e0000005e0000000c
:10a8d40064000000640000006400000064000000e4
:10a8e40064000000640000005e0000005e000000e0
:10a8f4005e0000005e0000005e0000005e000000dc
:10a904005e0000005e0000005e0000005e000000cb
:10a914005e0000005e0000005e0000005e000000bb
:10a924005e0000005e0000005e0000005e000000ab
:10ab840064000000640000005e0000005e0000003d
:10ab94005e0000005e0000005e0000005e00000039
:10aba4005e0000005e0000005e0000005e00000029
:10abb4005e0000005e0000005e0000005e00000019
:10abc4005e0000005e0000005e0000005e00000009
:10abd40064000000640000006400000064000000e1
:10abe40064000000640000005e0000005e000000dd
:10abf4005e0000005e0000005e0000005e000000d9
:10ac04005e0000005e0000005e0000005e000000c8
:10ac14005e0000005e0000005e0000005e000000b8
:10ac24005e0000005e0000005e0000005e000000a8
:10ae840064000000640000005e0000005e0000003a
:10ae94005e0000005e0000005e0000005e00000036
:10aea4005e0000005e0000005e0000005e00000026
:10aeb4005e0000005e0000005e0000005e00000016
:10aec4005e0000005e0000005e0000005e00000006
:10aed40064000000640000006400000064000000de
:10aee40064000000640000005e0000005e000000da
:10aef4005e0000005e0000005e0000005e000000d6
:10af04005e0000005e0000005e0000005e000000c5
:10af14005e0000005e0000005e0000005e000000b5
:10af24005e0000005e0000005e0000005e000000a5
:10b994002c0100002c0100007b0100007b01000051
:10b9a4007b0100007b0100007b0100007b010000a3
:10b9b4001c0100001c0100001c0100001c0100000f
:10b9c4001c0100001c0100001c0100001c010000ff
:10b9d4001c0100001c0100001c0100001c010000ef
:10b9e4001c0100001c0100001c0100001c010000df
:10b9f4001c0100001c0100001c0100001c010000cf
:10ba04001c0100001c0100001c0100001c010000be
:10ba14001c0100001c0100001c0100001c010000ae
:10ba24001c0100001c0100001c0100001c0100009e
:10ba34001c0100001c0100001c0100001c0100008e
:10ba44001c0100001c0100001c0100001c0100007e
:10ba54001c0100001c0100001c0100001c0100006e
:10ba64001c0100001c0100001c0100001c0100005e
:10ba74001c0100001c0100001c0100001c0100004e
:10ba84001c0100001c0100001c0100001c0100003e
:10ba94001c0100001c0100001c0100001c0100002e
:10baa4001c0100001c0100001c0100001c0100001e
:10bab4001c0100001c0100001c0100001c0100000e
:10bac4001c0100001c0100001c0100001c010000fe
:10bad4001c0100001c0100001c0100001c010000ee
:10bae4001c0100001c0100001c0100001c010000de
:10baf4001c0100001c0100001c0100001c010000ce
:10bb04001c0100001c0100001c0100001c010000bd
:10bb14001c0100001c0100007b0100007b010000ef
:10bb24007b0100007b0100007b0100007b01000021
:10bb3400e1000000e1000000e1000000e10000007d
:10bb4400e1000000e1000000e1000000e10000006d
:10bb5400e1000000e1000000e1000000e10000005d
:10be1400fd000000fd0000001c0100001c010000ea
:10be24001c0100001c0100001c0100001c0100009a
:10be34005e0000005e0000005e0000005e00000086
:10be44005e0000005e0000005e0000005e00000076
:10be54005e0000005e0000005e0000005e00000066
:10be64005e0000005e0000005e0000005e00000056
:10be74005e0000005e0000005e0000005e00000046
:10be84005e0000005e0000005e0000005e00000036
:10be94005e0000005e0000005e0000005e00000026
:10bea4005e0000005e0000005e0000005e00000016
:10beb4005e0000005e0000005e0000005e00000006
:10bec4005e0000005e0000006a0000006a000000de
:10bed4006a0000006a0000006a0000006a000000b6
:10bee4007e0000007e0000007e0000007e00000056
:10bef4007e0000007e0000007e0000007e00000046
:10bf04007e0000007e0000007e0000007e00000035
:10bf14006a0000006a0000006a0000006a00000075
:10bf24006a0000006a0000006a0000006a00000065
:10bf34006a0000006a0000006a0000006a00000055
:10bf44006a0000006a0000006a0000006a00000045
:10bf54006a0000006a0000006a0000006a00000035
:10bf64006a0000006a0000006a0000006a00000025
:10bf74005e0000005e0000005e0000005e00000045
:10bf84005e0000005e0000005e0000005e00000035
:10bf94005e0000005e0000005e0000005e00000025
:10bfa400540000005400000054000000540000003d
:10bfb4005400000054000000470000004700000047
:10bfc4004700000047000000470000004700000051
:10bfd4004700000047000000470000004700000041
:10bfe4004700000047000000540000005400000017
:10bff40054000000540000005400000054000000ed
:10c004004700000047000000470000004700000010
:10c014004700000047000000470000003f00000008
:10c024003f0000003f0000003f0000003f00000010
:10c034003f0000003500000035000000350000001e
:10c044003500000035000000350000002f0000001e
:10c054002f0000002f0000002f0000002f00000020
:10c064002f0000002f0000002f0000002f00000010
:10c074002f0000002f0000002f0000002f00000000
:10c084002f0000002f0000002f0000002f000000f0
:10c094002f0000002f0000002f0000002f000000e0
:10c0a4002f0000002f0000002f0000002f000000d0
:10c0b4002f0000002f0000002f0000002f000000c0
:10c0c4002f0000002f0000002f0000002f000000b0
:10c0d4002f0000002f0000002f0000002f000000a0
:10c0e4002f0000002f0000002f0000002f00000090
:10c0f4002f0000002f0000002f0000002f00000080
:10c104002f0000002f0000002f0000002f0000006f
:10c114002f0000002f0000002f0000002f0000005f
:10c124002f0000002f0000002f0000002f0000004f
:10c134002f0000002f0000002f0000002f0000003f
:10c144002f0000002f0000002f0000002f0000002f
:10c154002f0000002f0000002f0000002f0000001f
:10c164002f0000002f0000002f0000002f0000000f
:10c174002f0000002f0000002f0000002f000000ff
:10c184002f0000002f0000002f0000002f000000ef
:10c194002f0000002f0000002f0000002f000000df
:10c1a4002f0000002f0000002f0000002f000000cf
:10c1b4002f0000002f0000002f0000002f000000bf
:10c1c4002f0000002f0000002f0000002f000000af
:10c1d4002f0000002f0000002f0000002f0000009f
:10c1e4002f0000002f0000002f0000005e00000060
:10c1f4005e0000005e0000005e0000005e000000c3
:10c204005e0000005e0000005e0000005e000000b2
:10c214005e0000005e0000005e0000004b000000b5
:10c224004b0000004b0000004b0000004b000000de
:10c234004b0000004b0000004b0000004b000000ce
:10c244004b0000004b0000004b0000005e000000ab
:10c254005e0000005e0000005e0000005e00000062
:10c264005e0000005e0000005e0000005e00000052
:10c274005e0000005e0000005e0000004b00000055
:10c284004b0000004b0000004b0000004b0000007e
:10c294004b0000004b0000004b0000004b0000006e
:10c2a4004b0000004b0000004b0000005e0000004b
:10c2b4005e0000005e0000005e0000005e00000002
:10c2c4005e0000005e0000005e0000005e000000f2
:10c2d4005e0000005e0000005e0000004b000000f5
:10c2e4004b0000004b0000004b0000004b0000001e
:10c2f4004b0000004b0000004b0000004b0000000e
:10c304004b0000004b0000004b0000005e000000ea
:10c314005e0000005e0000005e0000005e000000a1
:10c324005e0000005e0000005e0000005e00000091
:10c334005e0000005e0000005e0000004b00000094
:10c344004b0000004b0000004b0000004b000000bd
:10c354004b0000004b0000004b0000004b000000ad
:10c364004b0000004b0000004b0000006400000084
:10c374006400000064000000640000006400000029
:10c384006400000064000000640000006400000019
:10c394006400000064000000640000004b00000022
:10c3a4004b0000004b0000004b0000004b0000005d
:10c3b4004b0000004b0000004b0000004b0000004d
:10c3c4004b0000004b0000004b0000006400000024
:10c3d40064000000640000006400000064000000c9
:10c3e40064000000640000006400000064000000b9
:10c3f4006400000064000000640000004b000000c2
:10c404004b0000004b0000004b0000004b000000fc
:10c414004b0000004b0000004b0000004b000000ec
:10c424004b0000004b0000004b00000064000000c3
:10c434006400000064000000640000006400000068
:10c44400640000005e0000005e0000005e0000006a
:10c454005e0000005e0000005e0000005e00000060
:10c464005e0000005e0000005e0000005e00000050
:10c474005e0000005e0000005e0000005e00000040
:10c484005e0000005e0000005e000000640000002a
:10c494006400000064000000640000006400000008
:10c4a400640000005e0000005e0000005e0000000a
:10c4b4005e0000005e0000005e0000005e00000000
:10c4c4005e0000005e0000005e0000005e000000f0
:10c4d4005e0000005e0000005e0000005e000000e0
:10c4e4005e0000005e0000005e0000005e000000d0
:10c4f4005e0000005e0000005e0000005e000000c0
:10c504005e0000005e0000005e0000005e000000af
:10c514005e0000005e0000005e0000004b000000b2
:10c524004b0000004b0000004b0000004b000000db
:10c534004b0000004b0000004b0000004b000000cb
:10c544004b0000004b0000004b0000005e000000a8
:10c554005e0000005e0000005e0000005e0000005f
:10c564005e0000005e0000005e0000005e0000004f
:10c574005e0000005e0000005e0000004b00000052
:10c584004b0000004b0000004b0000004b0000007b
:10c594004b0000004b0000004b0000004b0000006b
:10c5a4004b0000004b0000004b0000005e00000048
:10c5b4005e0000005e0000005e0000005e000000ff
:10c5c4005e0000005e0000005e0000005e000000ef
:10c5d4005e0000005e0000005e0000004b000000f2
:10c5e4004b0000004b0000004b0000004b0000001b
:10c5f4004b0000004b0000004b0000004b0000000b
:10c604004b0000004b0000004b0000005e000000e7
:10c614005e0000005e0000005e0000005e0000009e
:10c624005e0000005e0000005e0000005e0000008e
:10c634005e0000005e0000005e0000004b00000091
:10c644004b0000004b0000004b0000004b000000ba
:10c654004b0000004b0000004b0000004b000000aa
:10c664004b0000004b0000004b0000006400000081
:10c674006400000064000000640000006400000026
:10c684006400000064000000640000006400000016
:10c694006400000064000000640000004b0000001f
:10c6a4004b0000004b0000004b0000004b0000005a
:10c6b4004b0000004b0000004b0000004b0000004a
:10c6c4004b0000004b0000004b0000006400000021
:10c6d40064000000640000006400000064000000c6
:10c6e40064000000640000006400000064000000b6
:10c6f4006400000064000000640000004b000000bf
:10c704004b0000004b0000004b0000004b000000f9
:10c714004b0000004b0000004b0000004b000000e9
:10c724004b0000004b0000004b00000064000000c0
:10c734006400000064000000640000006400000065
:10c74400640000005e0000005e0000005e00000067
:10c754005e0000005e0000005e0000005e0000005d
:10c764005e0000005e0000005e0000005e0000004d
:10c774005e0000005e0000005e0000005e0000003d
:10c784005e0000005e0000005e0000006400000027
:10c794006400000064000000640000006400000005
:10c7a400640000005e0000005e0000005e00000007
:10c7b4005e0000005e0000005e0000005e000000fd
:10c7c4005e0000005e0000005e0000005e000000ed
:10c7d4005e0000005e0000005e0000005e000000dd
:10c7e4005e0000005e0000005e0000005e000000cd
:10c7f4005e0000005e0000005e0000005e000000bd
:10c804005e0000005e0000005e0000005e000000ac
:10c814005e0000005e0000005e0000004b000000af
:10c824004b0000004b0000004b0000004b000000d8
:10c834004b0000004b0000004b0000004b000000c8
:10c844004b0000004b0000004b0000005e000000a5
:10c854005e0000005e0000005e0000005e0000005c
:10c864005e0000005e0000005e0000005e0000004c
:10c874005e0000005e0000005e0000004b0000004f
:10c884004b0000004b0000004b0000004b00000078
:10c894004b0000004b0000004b0000004b00000068
:10c8a4004b0000004b0000004b0000005e00000045
:10c8b4005e0000005e0000005e0000005e000000fc
:10c8c4005e0000005e0000005e0000005e000000ec
:10c8d4005e0000005e0000005e0000004b000000ef
:10c8e4004b0000004b0000004b0000004b00000018
:10c8f4004b0000004b0000004b0000004b00000008
:10c904004b0000004b0000004b0000005e000000e4
:10c914005e0000005e0000005e0000005e0000009b
:10c924005e0000005e0000005e0000005e0000008b
:10c934005e0000005e0000005e0000004b0000008e
:10c944004b0000004b0000004b0000004b000000b7
:10c954004b0000004b0000004b0000004b000000a7
:10c964004b0000004b0000004b000000640000007e
:10c974006400000064000000640000006400000023
:10c984006400000064000000640000006400000013
:10c994006400000064000000640000004b0000001c
:10c9a4004b0000004b0000004b0000004b00000057
:10c9b4004b0000004b0000004b0000004b00000047
:10c9c4004b0000004b0000004b000000640000001e
:10c9d40064000000640000006400000064000000c3
:10c9e40064000000640000006400000064000000b3
:10c9f4006400000064000000640000004b000000bc
:10ca04004b0000004b0000004b0000004b000000f6
:10ca14004b0000004b0000004b0000004b000000e6
:10ca24004b0000004b0000004b00000064000000bd
:10ca34006400000064000000640000006400000062
:10ca4400640000005e0000005e0000005e00000064
:10ca54005e0000005e0000005e0000005e0000005a
:10ca64005e0000005e0000005e0000005e0000004a
:10ca74005e0000005e0000005e0000005e0000003a
:10ca84005e0000005e0000005e0000006400000024
:10ca94006400000064000000640000006400000002
:10caa400640000005e0000005e0000005e00000004
:10cab4005e0000005e0000005e0000005e000000fa
:10cac4005e0000005e0000005e0000005e000000ea
:10cad4005e0000005e0000005e0000005e000000da
:10cae4005e0000005e0000005e0000005e000000ca
:10d0e4000100000001000000010000007b010000bd
:10d0f4007b0100007b0100007b0100007b0100003c
:10d104007b0100007b0100007b0100007b0100002b
:10d114007b0100007b0100007b0100007b0100001b
:10d124007b0100007b0100007b0100007b0100000b
:10d134007b0100007b0100007b0100007b010000fb
:10d144007b0100007b0100007b0100007b010000eb
:10d154007b0100007b0100007b0100007b010000db
:10d164007b0100007b0100007b0100007b010000cb
:10d174007b0100007b0100007b0100007b010000bb
:10d184007b0100007b0100007b0100007b010000ab
:10d194007b0100007b0100007b0100007b0100009b
:10d1a4007b0100007b0100007b010000e100000026
:10d1b400e1000000e1000000e1000000e1000000e7
:10d1c400e1000000e1000000e1000000e1000000d7
:10d1d400e1000000e1000000e1000000e1000000c7
:10d1e400e1000000e1000000e1000000e1000000b7
:10d1f400e1000000e1000000e1000000e1000000a7
:10d20400e1000000e1000000e1000000e100000096
:10d21400e1000000e1000000e1000000e100000086
:10d22400e1000000e1000000e1000000e100000076
:10d23400e1000000e1000000e1000000e100000066
:10d24400e1000000e1000000e1000000e100000056
:10d25400e1000000e1000000e1000000e100000046
:10d26400e1000000e1000000e10000002c010000ea
:10d274002c0100002c0100002c0100002c010000f6
:10d284002c0100002c0100002c0100002c010000e6
:10d294002c0100002c0100002c0100002c010000d6
:10d2a4002c0100002c0100002c0100002c010000c6
:10d2b4002c0100002c0100002c0100002c010000b6
:10d2c4002c0100002c0100002c0100002c010000a6
:10d2d4002c0100002c0100002c0100002c01000096
:10d2e4002c0100002c0100002c0100002c01000086
:10d2f4002c0100002c0100002c0100002c01000076
:10d304002c0100002c0100002c0100002c01000065
:10d314002c0100002c0100002c0100002c01000055
:10d324002c0100002c0100002c0100001c01000055
:10d334001c0100001c0100001c0100001c01000075
:10d344001c0100001c0100001c0100001c01000065
:10d354001c0100001c0100001c0100001c01000055
:10d364001c0100001c0100001c0100001c01000045
:10d374001c0100001c0100001c0100001c01000035
:10d384001c0100001c0100001c0100001c01000025
:10d394001c0100001c0100001c0100001c01000015
:10d3a4001c0100001c0100001c0100001c01000005
:10d3b4001c0100001c0100001c0100001c010000f5
:10d3c4001c0100001c0100001c0100001c010000e5
:10d3d4001c0100001c0100001c0100001c010000d5
:10d3e4001c0100001c0100001c0100007b01000066
:10d3f4007b0100007b0100007b0100007b01000039
:10d404007b0100007b0100007b0100007b01000028
:10d414007b0100007b0100007b0100007b01000018
:10d424007b0100007b0100007b0100007b01000008
:10d434007b0100007b0100007b0100007b010000f8
:10d444007b0100007b0100007b0100007b010000e8
:10d454007b0100007b0100007b0100007b010000d8
:10d464007b0100007b0100007b0100007b010000c8
:10d474007b0100007b0100007b0100007b010000b8
:10d484007b0100007b0100007b0100007b010000a8
:10d494007b0100007b0100007b0100007b01000098
:10d4a4007b0100007b0100007b0100002c010000d7
:10d4b4002c0100002c0100002c0100002c010000b4
:10d4c4002c0100002c0100002c0100002c010000a4
:10d4d4002c0100002c0100002c0100002c01000094
:10d4e4002c0100002c0100002c0100002c01000084
:10d4f4002c0100002c0100002c0100002c01000074
:10d504002c0100002c0100002c0100002c01000063
:10d514002c0100002c0100002c0100002c01000053
:10d524002c0100002c0100002c0100002c01000043
:10d534002c0100002c0100002c0100002c01000033
:10d544002c0100002c0100002c0100002c01000023
:10d554002c0100007b0100007b0100007b01000026
:10d564007b0100007b0100007b0100001c01000026
:10d574001c0100001c0100001c0100001c01000033
:10d584001c0100001c0100001c0100001c01000023
:10d594001c0100001c0100001c0100001c01000013
:10d5a4001c0100001c0100001c0100001c01000003
:10d5b4001c0100001c0100001c0100001c010000f3
:10d5c4001c0100001c0100001c0100001c010000e3
:10d5d4001c0100001c0100001c0100001c010000d3
:10d5e4001c0100001c0100001c0100001c010000c3
:10d5f4001c0100001c0100001c0100001c010000b3
:10d604001c0100001c0100001c0100001c010000a2
:10d614001c0100001c0100001c0100001c01000092
:10d624001c0100001c0100001c0100001c01000082
:10d634001c0100001c0100001c0100001c01000072
:10d644001c0100001c0100001c0100001c01000062
:10d654001c0100001c0100001c0100001c01000052
:10d664001c0100001c0100001c0100001c01000042
:10d674001c0100001c0100001c0100001c01000032
:10d684001c0100001c0100001c0100001c01000022
:10d694001c0100001c0100001c0100001c01000012
:10d6a4001c0100001c0100001c0100001c01000002
:10d6b4001c0100001c0100001c0100001c010000f2
:10d6c4001c0100001c0100001c0100001c010000e2
:10d6d4001c0100007b0100007b0100007b010000b5
:10d6e4007b0100007b0100007b010000e1000000e1
:10d6f400e1000000e1000000e1000000e1000000a2
:10d70400e1000000e1000000e1000000e100000091
:10d71400e1000000e1000000e1000000e100000081
:10d72400e1000000e1000000e1000000e100000071
:10d73400e1000000e1000000e1000000e100000061
:10d74400e1000000e1000000e1000000e100000051
:10d75400e1000000e1000000e1000000e100000041
:10d76400e1000000e1000000e1000000e100000031
:10d77400e1000000e1000000e1000000e100000021
:10d78400e1000000e1000000e1000000e100000011
:10d79400e1000000e1000000e1000000e100000001
:10d7a400e1000000e1000000e1000000e1000000f1
:10d7b400e1000000e1000000e1000000e1000000e1
:10d7c400e1000000e1000000e1000000e1000000d1
:10d7d400e1000000e1000000e1000000e1000000c1
:10d7e400e1000000e1000000e1000000e1000000b1
:10d7f400e1000000e1000000e1000000e1000000a1
:10d80400e1000000e1000000e1000000e100000090
:10d81400e1000000e1000000e1000000e100000080
:10d82400e1000000e1000000e1000000e100000070
:10d83400e1000000e1000000e1000000e100000060
:10d84400e1000000e1000000e1000000e100000050
:10d85400e1000000e1000000e1000000e100000040
:10d86400e1000000e1000000e1000000fd00000014
:10d87400fd000000fd000000fd000000fd000000b0
:10d88400fd000000fd000000fd000000fd000000a0
:10d89400fd000000fd000000fd000000fd00000090
:10d8a400fd000000fd000000fd000000fd00000080
:10d8b400fd000000fd000000fd000000fd00000070
:10d8c400fd000000fd000000fd000000fd00000060
:10d8d400fd000000fd000000fd000000fd00000050
:10d8e400fd000000fd000000fd000000fd00000040
:10d8f400fd000000fd000000fd000000fd00000030
:10d90400fd000000fd000000fd000000fd0000001f
:10d91400fd000000fd000000fd000000fd0000000f
:10d92400fd000000fd000000fd000000fd000000ff
:10d93400fd000000fd000000fd000000fd000000ef
:10d94400fd000000fd000000fd000000fd000000df
:10d95400fd000000fd000000fd000000fd000000cf
:10d96400fd000000fd000000fd000000fd000000bf
:10d97400fd000000fd000000fd000000fd000000af
:10d98400fd000000fd000000fd000000fd0000009f
:10d99400fd000000fd000000fd000000fd0000008f
:10d9a400fd000000fd000000fd000000fd0000007f
:10d9b400fd000000fd000000fd000000fd0000006f
:10d9c400fd000000fd000000fd000000fd0000005f
:10d9d400fd0000001c0100001c0100001c010000ef
:10d9e4001c0100001c0100001c0100005e0000007e
:10d9f4005e0000005e0000005e0000005e000000ab
:10da04005e0000005e0000005e0000005e0000009a
:10da14005e0000005e0000005e0000004b0000009d
:10da24004b0000004b0000004b0000004b000000c6
:10da34004b0000004b0000004b0000004b000000b6
:10da44004b0000004b0000004b0000005e00000093
:10da54005e0000005e0000005e0000005e0000004a
:10da64005e0000005e0000005e0000005e0000003a
:10da74005e0000005e0000005e0000004b0000003d
:10da84004b0000004b0000004b0000004b00000066
:10da94004b0000004b0000004b0000004b00000056
:10daa4004b0000004b0000004b0000005e00000033
:10dab4005e0000005e0000005e0000005e000000ea
:10dac4005e0000005e0000005e0000005e000000da
:10dad4005e0000005e0000005e0000004b000000dd
:10dae4004b0000004b0000004b0000004b00000006
:10daf4004b0000004b0000004b0000004b000000f6
:10db04004b0000004b0000004b0000005e000000d2
:10db14005e0000005e0000005e0000005e00000089
:10db24005e0000005e0000005e0000005e00000079
:10db34005e0000005e0000005e0000004b0000007c
:10db44004b0000004b0000004b0000004b000000a5
:10db54004b0000004b0000004b0000004b00000095
:10db64004b0000004b0000004b000000640000006c
:10db74006400000064000000640000006400000011
:10db84006400000064000000640000006400000001
:10db94006400000064000000640000004b0000000a
:10dba4004b0000004b0000004b0000004b00000045
:10dbb4004b0000004b0000004b0000004b00000035
:10dbc4004b0000004b0000004b000000640000000c
:10dbd40064000000640000006400000064000000b1
:10dbe40064000000640000006400000064000000a1
:10dbf4006400000064000000640000004b000000aa
:10dc04004b0000004b0000004b0000004b000000e4
:10dc14004b0000004b0000004b0000004b000000d4
:10dc24004b0000004b0000004b00000064000000ab
:10dc34006400000064000000640000006400000050
:10dc4400640000005e0000005e0000005e00000052
:10dc54005e0000005e0000005e0000005e00000048
:10dc64005e0000005e0000005e0000005e00000038
:10dc74005e0000005e0000005e0000005e00000028
:10dc84005e0000005e0000005e0000006400000012
:10dc940064000000640000006400000064000000f0
:10dca400640000005e0000005e0000005e000000f2
:10dcb4005e0000005e0000005e0000005e000000e8
:10dcc4005e0000005e0000005e0000005e000000d8
:10dcd4005e0000005e0000005e0000005e000000c8
:10dce4005e0000005e0000005e0000005e000000b8
:10dcf4005e0000005e0000005e0000005e000000a8
:10dd04005e0000005e0000005e0000005e00000097
:10dd14005e0000005e0000005e0000004b0000009a
:10dd24004b0000004b0000004b0000004b000000c3
:10dd34004b0000004b0000004b0000004b000000b3
:10dd44004b0000004b0000004b0000005e00000090
:10dd54005e0000005e0000005e0000005e00000047
:10dd64005e0000005e0000005e0000005e00000037
:10dd74005e0000005e0000005e0000004b0000003a
:10dd84004b0000004b0000004b0000004b00000063
:10dd94004b0000004b0000004b0000004b00000053
:10dda4004b0000004b0000004b0000005e00000030
:10ddb4005e0000005e0000005e0000005e000000e7
:10ddc4005e0000005e0000005e0000005e000000d7
:10ddd4005e0000005e0000005e0000004b000000da
:10dde4004b0000004b0000004b0000004b00000003
:10ddf4004b0000004b0000004b0000004b000000f3
:10de04004b0000004b0000004b0000005e000000cf
:10de14005e0000005e0000005e0000005e00000086
:10de24005e0000005e0000005e0000005e00000076
:10de34005e0000005e0000005e0000004b00000079
:10de44004b0000004b0000004b0000004b000000a2
:10de54004b0000004b0000004b0000004b00000092
:10de64004b0000004b0000004b0000006400000069
:10de7400640000006400000064000000640000000e
:10de840064000000640000006400000064000000fe
:10de94006400000064000000640000004b00000007
:10dea4004b0000004b0000004b0000004b00000042
:10deb4004b0000004b0000004b0000004b00000032
:10dec4004b0000004b0000004b0000006400000009
:10ded40064000000640000006400000064000000ae
:10dee400640000006400000064000000640000009e
:10def4006400000064000000640000004b000000a7
:10df04004b0000004b0000004b0000004b000000e1
:10df14004b0000004b0000004b0000004b000000d1
:10df24004b0000004b0000004b00000064000000a8
:10df3400640000006400000064000000640000004d
:10df4400640000005e0000005e0000005e0000004f
:10df54005e0000005e0000005e0000005e00000045
:10df64005e0000005e0000005e0000005e00000035
:10df74005e0000005e0000005e0000005e00000025
:10df84005e0000005e0000005e000000640000000f
:10df940064000000640000006400000064000000ed
:10dfa400640000005e0000005e0000005e000000ef
:10dfb4005e0000005e0000005e0000005e000000e5
:10dfc4005e0000005e0000005e0000005e000000d5
:10dfd4005e0000005e0000005e0000005e000000c5
:10dfe4005e0000005e0000005e0000005e000000b5
:10dff4005e0000005e0000005e0000005e000000a5
:10e004005e0000005e0000005e0000005e00000094
:10e014005e0000005e0000005e0000004b00000097
:10e024004b0000004b0000004b0000004b000000c0
:10e034004b0000004b0000004b0000004b000000b0
:10e044004b0000004b0000004b0000005e0000008d
:10e054005e0000005e0000005e0000005e00000044
:10e064005e0000005e0000005e0000005e00000034
:10e074005e0000005e0000005e0000004b00000037
:10e084004b0000004b0000004b0000004b00000060
:10e094004b0000004b0000004b0000004b00000050
:10e0a4004b0000004b0000004b0000005e0000002d
:10e0b4005e0000005e0000005e0000005e000000e4
:10e0c4005e0000005e0000005e0000005e000000d4
:10e0d4005e0000005e0000005e0000004b000000d7
:10e0e4004b0000004b0000004b0000004b00000000
:10e0f4004b0000004b0000004b0000004b000000f0
:10e104004b0000004b0000004b0000005e000000cc
:10e114005e0000005e0000005e0000005e00000083
:10e124005e0000005e0000005e0000005e00000073
:10e134005e0000005e0000005e0000004b00000076
:10e144004b0000004b0000004b0000004b0000009f
:10e154004b0000004b0000004b0000004b0000008f
:10e164004b0000004b0000004b0000006400000066
:10e17400640000006400000064000000640000000b
:10e1840064000000640000006400000064000000fb
:10e194006400000064000000640000004b00000004
:10e1a4004b0000004b0000004b0000004b0000003f
:10e1b4004b0000004b0000004b0000004b0000002f
:10e1c4004b0000004b0000004b0000006400000006
:10e1d40064000000640000006400000064000000ab
:10e1e400640000006400000064000000640000009b
:10e1f4006400000064000000640000004b000000a4
:10e204004b0000004b0000004b0000004b000000de
:10e214004b0000004b0000004b0000004b000000ce
:10e224004b0000004b0000004b00000064000000a5
:10e23400640000006400000064000000640000004a
:10e24400640000005e0000005e0000005e0000004c
:10e254005e0000005e0000005e0000005e00000042
:10e264005e0000005e0000005e0000005e00000032
:10e274005e0000005e0000005e0000005e00000022
:10e284005e0000005e0000005e000000640000000c
:10e2940064000000640000006400000064000000ea
:10e2a400640000005e0000005e0000005e000000ec
:10e2b4005e0000005e0000005e0000005e000000e2
:10e2c4005e0000005e0000005e0000005e000000d2
:10e2d4005e0000005e0000005e0000005e000000c2
:10e2e4005e0000005e0000005e0000005e000000b2
:10e2f4005e0000005e0000005e0000005e000000a2
:10e304005e0000005e0000005e0000005e00000091
:10e314005e0000005e0000005e0000004b00000094
:10e324004b0000004b0000004b0000004b000000bd
:10e334004b0000004b0000004b0000004b000000ad
:10e344004b0000004b0000004b0000005e0000008a
:10e354005e0000005e0000005e0000005e00000041
:10e364005e0000005e0000005e0000005e00000031
:10e374005e0000005e0000005e0000004b00000034
:10e384004b0000004b0000004b0000004b0000005d
:10e394004b0000004b0000004b0000004b0000004d
:10e3a4004b0000004b0000004b0000005e0000002a
:10e3b4005e0000005e0000005e0000005e000000e1
:10e3c4005e0000005e0000005e0000005e000000d1
:10e3d4005e0000005e0000005e0000004b000000d4
:10e3e4004b0000004b0000004b0000004b000000fd
:10e3f4004b0000004b0000004b0000004b000000ed
:10e404004b0000004b0000004b0000005e000000c9
:10e414005e0000005e0000005e0000005e00000080
:10e424005e0000005e0000005e0000005e00000070
:10e434005e0000005e0000005e0000004b00000073
:10e444004b0000004b0000004b0000004b0000009c
:10e454004b0000004b0000004b0000004b0000008c
:10e464004b0000004b0000004b0000006400000063
:10e474006400000064000000640000006400000008
:10e4840064000000640000006400000064000000f8
:10e494006400000064000000640000004b00000001
:10e4a4004b0000004b0000004b0000004b0000003c
:10e4b4004b0000004b0000004b0000004b0000002c
:10e4c4004b0000004b0000004b0000006400000003
:10e4d40064000000640000006400000064000000a8
:10e4e4006400000064000000640000006400000098
:10e4f4006400000064000000640000004b000000a1
:10e504004b0000004b0000004b0000004b000000db
:10e514004b0000004b0000004b0000004b000000cb
:10e524004b0000004b0000004b00000064000000a2
:10e534006400000064000000640000006400000047
:10e54400640000005e0000005e0000005e00000049
:10e554005e0000005e0000005e0000005e0000003f
:10e564005e0000005e0000005e0000005e0000002f
:10e574005e0000005e0000005e0000005e0000001f
:10e584005e0000005e0000005e0000006400000009
:10e5940064000000640000006400000064000000e7
:10e5a400640000005e0000005e0000005e000000e9
:10e5b4005e0000005e0000005e0000005e000000df
:10e5c4005e0000005e0000005e0000005e000000cf
:10e5d4005e0000005e0000005e0000005e000000bf
:10e5e4005e0000005e0000005e0000005e000000af
:10e5f4005e0000005e0000005e0000005e0000009f
:10e604005e0000005e0000005e0000005e0000008e
:10e614005e0000005e0000005e0000004b00000091
:10e624004b0000004b0000004b0000004b000000ba
:10e634004b0000004b0000004b0000004b000000aa
:10e644004b0000004b0000004b0000005e00000087
:10e654005e0000005e0000005e0000005e0000003e
:10e664005e0000005e0000005e0000005e0000002e
:10e674005e0000005e0000005e0000004b00000031
:10e684004b0000004b0000004b0000004b0000005a
:10e694004b0000004b0000004b0000004b0000004a
:10e6a4004b0000004b0000004b0000005e00000027
:10e6b4005e0000005e0000005e0000005e000000de
:10e6c4005e0000005e0000005e0000005e000000ce
:10e6d4005e0000005e0000005e0000004b000000d1
:10e6e4004b0000004b0000004b0000004b000000fa
:10e6f4004b0000004b0000004b0000004b000000ea
:10e704004b0000004b0000004b0000005e000000c6
:10e714005e0000005e0000005e0000005e0000007d
:10e724005e0000005e0000005e0000005e0000006d
:10e734005e0000005e0000005e0000004b00000070
:10e744004b0000004b0000004b0000004b00000099
:10e754004b0000004b0000004b0000004b00000089
:10e764004b0000004b0000004b0000006400000060
:10e774006400000064000000640000006400000005
:10e7840064000000640000006400000064000000f5
:10e794006400000064000000640000004b000000fe
:10e7a4004b0000004b0000004b0000004b00000039
:10e7b4004b0000004b0000004b0000004b00000029
:10e7c4004b0000004b0000004b0000006400000000
:10e7d40064000000640000006400000064000000a5
:10e7e4006400000064000000640000006400000095
:10e7f4006400000064000000640000004b0000009e
:10e804004b0000004b0000004b0000004b000000d8
:10e814004b0000004b0000004b0000004b000000c8
:10e824004b0000004b0000004b000000640000009f
:10e834006400000064000000640000006400000044
:10e84400640000005e0000005e0000005e00000046
:10e854005e0000005e0000005e0000005e0000003c
:10e864005e0000005e0000005e0000005e0000002c
:10e874005e0000005e0000005e0000005e0000001c
:10e884005e0000005e0000005e0000006400000006
:10e8940064000000640000006400000064000000e4
:10e8a400640000005e0000005e0000005e000000e6
:10e8b4005e0000005e0000005e0000005e000000dc
:10e8c4005e0000005e0000005e0000005e000000cc
:10e8d4005e0000005e0000005e0000005e000000bc
:10e8e4005e0000005e0000005e0000005e000000ac
:10e8f4005e0000005e0000005e0000005e0000009c
:10e904005e0000005e0000005e0000005e0000008b
:10e914005e0000005e0000005e0000004b0000008e
:10e924004b0000004b0000004b0000004b000000b7
:10e934004b0000004b0000004b0000004b000000a7
:10e944004b0000004b0000004b0000005e00000084
:10e954005e0000005e0000005e0000005e0000003b
:10e964005e0000005e0000005e0000005e0000002b
:10e974005e0000005e0000005e0000004b0000002e
:10e984004b0000004b0000004b0000004b00000057
:10e994004b0000004b0000004b0000004b00000047
:10e9a4004b0000004b0000004b0000005e00000024
:10e9b4005e0000005e0000005e0000005e000000db
:10e9c4005e0000005e0000005e0000005e000000cb
:10e9d4005e0000005e0000005e0000004b000000ce
:10e9e4004b0000004b0000004b0000004b000000f7
:10e9f4004b0000004b0000004b0000004b000000e7
:10ea04004b0000004b0000004b0000005e000000c3
:10ea14005e0000005e0000005e0000005e0000007a
:10ea24005e0000005e0000005e0000005e0000006a
:10ea34005e0000005e0000005e0000004b0000006d
:10ea44004b0000004b0000004b0000004b00000096
:10ea54004b0000004b0000004b0000004b00000086
:10ea64004b0000004b0000004b000000640000005d
:10ea74006400000064000000640000006400000002
:10ea840064000000640000006400000064000000f2
:10ea94006400000064000000640000004b000000fb
:10eaa4004b0000004b0000004b0000004b00000036
:10eab4004b0000004b0000004b0000004b00000026
:10eac4004b0000004b0000004b00000064000000fd
:10ead40064000000640000006400000064000000a2
:10eae4006400000064000000640000006400000092
:10eaf4006400000064000000640000004b0000009b
:10eb04004b0000004b0000004b0000004b000000d5
:10eb14004b0000004b0000004b0000004b000000c5
:10eb24004b0000004b0000004b000000640000009c
:10eb34006400000064000000640000006400000041
:10eb4400640000005e0000005e0000005e00000043
:10eb54005e0000005e0000005e0000005e00000039
:10eb64005e0000005e0000005e0000005e00000029
:10eb74005e0000005e0000005e0000005e00000019
:10eb84005e0000005e0000005e0000006400000003
:10eb940064000000640000006400000064000000e1
:10eba400640000005e0000005e0000005e000000e3
:10ebb4005e0000005e0000005e0000005e000000d9
:10ebc4005e0000005e0000005e0000005e000000c9
:10ebd4005e0000005e0000005e0000005e000000b9
:10ebe4005e0000005e0000005e0000005e000000a9
:10ebf4005e0000005e0000005e0000005e00000099
:10ec04005e0000005e0000005e0000005e00000088
:10ec14005e0000005e0000005e0000004b0000008b
:10ec24004b0000004b0000004b0000004b000000b4
:10ec34004b0000004b0000004b0000004b000000a4
:10ec44004b0000004b0000004b0000005e00000081
:10ec54005e0000005e0000005e0000005e00000038
:10ec64005e0000005e0000005e0000005e00000028
:10ec74005e0000005e0000005e0000004b0000002b
:10ec84004b0000004b0000004b0000004b00000054
:10ec94004b0000004b0000004b0000004b00000044
:10eca4004b0000004b0000004b0000005e00000021
:10ecb4005e0000005e0000005e0000005e000000d8
:10ecc4005e0000005e0000005e0000005e000000c8
:10ecd4005e0000005e0000005e0000004b000000cb
:10ece4004b0000004b0000004b0000004b000000f4
:10ecf4004b0000004b0000004b0000004b000000e4
:10ed04004b0000004b0000004b0000005e000000c0
:10ed14005e0000005e0000005e0000005e00000077
:10ed24005e0000005e0000005e0000005e00000067
:10ed34005e0000005e0000005e0000004b0000006a
:10ed44004b0000004b0000004b0000004b00000093
:10ed54004b0000004b0000004b0000004b00000083
:10ed64004b0000004b0000004b000000640000005a
:10ed740064000000640000006400000064000000ff
:10ed840064000000640000006400000064000000ef
:10ed94006400000064000000640000004b000000f8
:10eda4004b0000004b0000004b0000004b00000033
:10edb4004b0000004b0000004b0000004b00000023
:0cedc4004b0000004b0000004b00000062
:020000040000fa
:10edd000010000000100000001000000010000002f
:10fc80005e0000005e00000096000000960000008c
:10fc9000960000009600000096000000960000000c
:10fca00096000000960000009600000096000000fc
:10fcb00096000000960000009600000096000000ec
:10fcc00096000000960000009600000096000000dc
:10ffe0005e0000005e00000064000000640000008d
:10fff0006400000064000000640000006400000071
:020000040001f9
:100000006400000064000000640000006400000060
:100010006400000064000000640000006400000050
:100020006400000064000000640000006400000040
:100030006400000064000000640000006400000030
:100040006400000064000000640000006400000020
:100050006400000064000000640000006400000010
:100060006400000064000000640000006400000000
:1000700064000000640000006400000064000000f0
:1000800064000000640000006400000064000000e0
:1000900064000000640000006400000064000000d0
:1000a0006400000064000000010000000100000086
:1000b000010000000100000001000000010000003c
:1000c000010000000100000001000000010000002c
:1000d000010000000100000001000000010000001c
:1000e000010000000100000001000000010000000c
:1000f00001000000010000000100000001000000fc
:1001000001000000010000000100000001000000eb
:1001100001000000010000000100000001000000db
:1001200001000000010000000100000001000000cb
:1001300001000000010000000100000001000000bb
:1001400001000000010000000100000001000000ab
:10015000010000000100000001000000010000009b
:1001600001000000010000005e0000005e000000d1
:100170005e0000005e0000005e0000005e00000007
:100180005e0000005e0000005e0000005e000000f7
:100190005e0000005e0000005e0000005e000000e7
:1001a0005e0000005e0000005e0000005e000000d7
:1001b0005e0000005e0000005e0000005e000000c7
:1001c0005e0000005e0000004b0000004b000000dd
:1001d0004b0000004b0000004b0000004b000000f3
:1001e0004b0000004b0000004b0000004b000000e3
:1001f0004b0000004b0000004b0000004b000000d3
:100200004b0000004b0000004b0000004b000000c2
:100210004b0000004b0000004b0000004b000000b2
:100220004b0000004b0000004b0000004b000000a2
:100230004b0000004b0000004b0000004b00000092
:100240004b0000004b0000004b0000004b00000082
:100250004b0000004b000000010000000100000006
:10026000010000000100000001000000010000008a
:1002700070000000700000007000000070000000be
:1002800070000000700000007000000070000000ae
:10029000700000007000000070000000700000009e
:1002a0004b0000004b0000004b0000004b00000022
:1002b0004b0000004b000000540000005400000000
:1002c00054000000540000005400000054000000de
:1002d0005e0000005e0000005e0000005e000000a6
:1002e0005e0000005e000000700000007000000072
:1002f000700000007000000070000000700000003e
:10030000700000007000000070000000700000002d
:10031000700000007000000070000000700000001d
:10032000700000007000000070000000700000000d
:1003300070000000700000007000000070000000fd
:1003400070000000700000004b0000004b00000037
:100350004b0000004b0000004b0000004b00000071
:100360004b0000004b0000004b0000004b00000061
:100370004b0000004b00000054000000540000003f
:10038000540000005400000054000000540000001d
:100390005e0000005e0000005e0000005e000000e5
:1003a0005e0000005e0000005e0000005e000000d5
:1003b0005e0000005e0000005e0000005e000000c5
:1003c0005e0000005e0000005e0000005e000000b5
:1003d0005e0000005e0000005e0000005e000000a5
:1003e0005e0000005e0000005e0000005e00000095
:1003f0005e0000005e0000005e0000005e00000085
:100400005e0000005e00000001000000010000002e
:1004100001000000010000000100000001000000d8
:1004200001000000010000000100000001000000c8
:1004300001000000010000000100000001000000b8
:1004400001000000010000000100000001000000a8
:100450009600000096000000960000009600000044
:100460009600000096000000960000009600000034
:100470009600000096000000960000009600000024
:100480009600000096000000960000009600000014
:100490009600000096000000960000009600000004
:1004a00096000000960000009600000096000000f4
:1004b00096000000960000009600000096000000e4
:1004c0009600000096000000e1000000e10000003e
:1004d000e1000000e1000000e1000000e100000098
:1004e000e1000000e1000000e1000000e100000088
:1004f000e1000000e1000000e1000000e100000078
:10050000e1000000e1000000e1000000e100000067
:10051000e1000000e1000000e1000000e100000057
:10052000e1000000e1000000e1000000e100000047
:10053000e1000000e1000000e1000000e100000037
:10054000e1000000e1000000e1000000e100000027
:10055000e1000000e1000000e1000000e100000017
:10056000e1000000e1000000e1000000e100000007
:10057000e1000000e1000000e1000000e1000000f7
:10058000e1000000e10000000100000001000000a7
:100590000100000001000000010000000100000057
:1005a0000100000001000000010000000100000047
:1005b0000100000001000000010000000100000037
:1005c0000100000001000000010000000100000027
:1005d00096000000960000009600000096000000c3
:1005e00096000000960000009600000096000000b3
:1005f00096000000960000009600000096000000a3
:100600009600000096000000960000009600000092
:100610009600000096000000960000009600000082
:100620009600000096000000960000009600000072
:100630009600000096000000960000009600000062
:100640009600000096000000960000009600000052
:100650009600000096000000960000009600000042
:100660009600000096000000960000009600000032
:100670009600000096000000e1000000e10000008c
:10068000e1000000e1000000e1000000e1000000e6
:10069000e1000000e1000000e1000000e1000000d6
:1006a000e1000000e1000000e1000000e1000000c6
:1006b000e1000000e1000000e1000000e1000000b6
:1006c000e1000000e1000000e1000000e1000000a6
:1006d000e1000000e10000008e0000008e0000003c
:1006e0008e0000008e0000008e0000008e000000d2
:1006f0008e0000008e0000008e0000008e000000c2
:100700008e0000008e0000008e0000008e000000b1
:100710008e0000008e0000008e0000008e000000a1
:100d600001000000010000008e0000008e00000065
:100d70008e0000008e0000008e0000008e0000003b
:100d80008e0000008e0000008e0000008e0000002b
:100d90008e0000008e0000008e0000008e0000001b
:100da0008e0000008e0000008e0000008e0000000b
:100db00096000000960000009600000096000000db
:100dc00096000000960000009600000096000000cb
:100dd00096000000960000009600000096000000bb
:100de00096000000960000009600000096000000ab
:100df0009600000096000000a8000000a800000077
:100e0000a8000000a8000000a8000000a800000042
:100e1000a8000000a8000000a8000000a800000032
:100e2000a8000000a8000000a8000000a800000022
:100e3000a8000000a8000000a8000000a800000012
:100e4000a8000000a8000000a8000000a800000002
:100e5000a8000000a8000000a8000000a8000000f2
:100e6000a8000000a8000000a8000000a8000000e2
:100e7000960000009600000096000000960000001a
:100e80009600000096000000a8000000a8000000e6
:100e9000a8000000a8000000a8000000a8000000b2
:100ea000bd000000bd000000bd000000bd0000004e
:100eb000bd000000bd000000bd000000bd0000003e
:100ec000bd000000bd000000bd000000bd0000002e
:100ed000bd000000bd000000bd000000bd0000001e
:100ee000bd000000bd000000a8000000a800000038
:100ef000a8000000a8000000a8000000a800000052
:100f00009600000096000000960000009600000089
:100f10009600000096000000960000009600000079
:100f20009600000096000000960000009600000069
:100f3000bd000000bd000000bd000000bd000000bd
:100f4000bd000000bd000000bd000000bd000000ad
:100f5000bd000000bd000000bd000000bd0000009d
:100f6000bd000000bd000000bd000000bd0000008d
:100f7000bd000000bd000000bd000000bd0000007d
:100f8000bd000000bd000000bd000000bd0000006d
:100f9000bd000000bd000000bd000000bd0000005d
:100fa000bd000000bd0000000100000001000000c5
:100fb000010000000100000001000000010000002d
:100fc000010000000100000001000000010000001d
:100fd000010000000100000001000000010000000d
:100fe00001000000010000000100000001000000fd
:1013600001000000010000005e0000005e000000bf
:101370005e0000005e0000005e0000005e000000f5
:101380004b0000004b0000004b0000004b00000031
:101390004b0000004b0000004b0000004b00000021
:1013a0004b0000004b0000004b0000004b00000011
:1013b0004b0000004b0000004b0000004b00000001
:1013c0004b0000004b0000005e0000005e000000cb
:1013d0005e0000005e0000005e0000005e00000095
:1013e0005e0000005e0000005e0000005e00000085
:1013f0005e0000005e0000005e0000005e00000075
:101400005e0000005e0000005e0000005e00000064
:101410005e0000005e0000005e0000005e00000054
:101420005e0000005e0000005e0000005e00000044
:101430005e0000005e0000005e0000005e00000034
:101440009600000096000000960000009600000044
:1014500096000000960000008e0000008e00000044
:101460008e0000008e0000008e0000008e00000044
:101470009600000096000000960000009600000014
:101480009600000096000000960000009600000004
:1014900096000000960000009600000096000000f4
:1014a00096000000960000009600000096000000e4
:1014b00096000000960000009600000096000000d4
:1014c00096000000960000009600000096000000c4
:1014d00096000000960000009600000096000000b4
:1014e00096000000960000000100000001000000ce
:1014f00001000000010000000100000001000000e8
:1015000001000000010000000100000001000000d7
:1015100001000000010000000100000001000000c7
:1015200001000000010000000100000001000000b7
:1015300001000000010000000100000001000000a7
:101540000100000001000000010000000100000097
:101550000100000001000000010000000100000087
:101560000100000001000000010000000100000077
:101570000100000001000000010000000100000067
:101580000100000001000000010000000100000057
:101590000100000001000000010000000100000047
:1015a0000100000001000000010000000100000037
:1015b0000100000001000000010000000100000027
:1015c0000100000001000000010000000100000017
:1015d0000100000001000000010000000100000007
:1015e00001000000010000000100000001000000f7
:1015f00001000000010000000100000001000000e7
:1016000001000000010000000100000001000000d6
:1016100001000000010000000100000001000000c6
:1016200001000000010000004b0000004b00000022
:101630004b0000004b0000004b0000004b0000007e
:101640004b0000004b0000004b0000004b0000006e
:101650004b0000004b0000004b0000004b0000005e
