:020000040000fa
:080000000002040000000000f2
:020000040000fa
:040008008410000060
:020000040000fa
:04000c00841000005c
:020000040000fa
:040010008410000058
:020000040000fa
:040014008410000054
:020000040000fa
:040018008410000050
:020000040000fa
:04001c00841000004c
:020000040000fa
:040020008410000048
:020000040000fa
:040024008410000044
:020000040000fa
:040028008410000040
:020000040000fa
:04002c00841000003c
:020000040000fa
:040030008410000038
:020000040000fa
:0400340066ef000073
:020000040000fa
:040038008410000030
:020000040000fa
:04003c00841000002c
:020000040000fa
:040040008410000028
:020000040000fa
:040044008410000024
:020000040000fa
:040048008410000020
:020000040000fa
:04004c00841000001c
:020000040000fa
:040050008410000018
:020000040000fa
:040054008410000014
:020000040000fa
:040058008410000010
:020000040000fa
:04005c00841000000c
:020000040000fa
:040060008410000008
:020000040000fa
:040064008410000004
:020000040000fa
:040068008410000000
:020000040000fa
:04006c0084100000fc
:020000040000fa
:0400700084100000f8
:020000040000fa
:0400740084100000f4
:020000040000fa
:0400780084100000f0
:020000040000fa
:04007c0084100000ec
:020000040000fa
:0400800084100000e8
:020000040000fa
:0400840084100000e4
:020000040000fa
:0400880084100000e0
:020000040000fa
:04008c0084100000dc
:020000040000fa
:0400900084100000d8
:020000040000fa
:0400940084100000d4
:020000040000fa
:0400980084100000d0
:020000040000fa
:04009c0084100000cc
:020000040000fa
:0400a00084100000c8
:020000040000fa
:0400a40084100000c4
:020000040000fa
:0400a80084100000c0
:020000040000fa
:0400ac0084100000bc
:020000040000fa
:0400b00084100000b8
:020000040000fa
:0400b40084100000b4
:020000040000fa
:0400b80084100000b0
:020000040000fa
:0400bc0084100000ac
:020000040000fa
:0400c00084100000a8
:020000040000fa
:0400c40084100000a4
:020000040000fa
:0400c80084100000a0
:020000040000fa
:0400cc00841000009c
:020000040000fa
:0400d0008410000098
:020000040000fa
:0400d4008410000094
:020000040000fa
:0400d8008410000090
:020000040000fa
:0400dc00841000008c
:020000040000fa
:0400e0008410000088
:020000040000fa
:0400e4008410000084
:020000040000fa
:0400e8008410000080
:020000040000fa
:0400ec00841000007c
:020000040000fa
:0400f0008410000078
:020000040000fa
:0400f4008410000074
:020000040000fa
:0400f8008410000070
:020000040000fa
:0400fc00841000006c
:020000040000fa
:040100008410000067
:020000040000fa
:040104008410000063
:020000040000fa
:04010800841000005f
:020000040000fa
:04010c00841000005b
:020000040000fa
:040110008410000057
:020000040000fa
:040114008410000053
:020000040000fa
:04011800841000004f
:020000040000fa
:04011c00841000004b
:020000040000fa
:040120008410000047
:020000040000fa
:040124008410000043
:020000040000fa
:04012800841000003f
:020000040000fa
:04012c00841000003b
:020000040000fa
:040130008410000037
:020000040000fa
:040134008410000033
:020000040000fa
:04013800841000002f
:020000040000fa
:04013c00841000002b
:020000040000fa
:040140008410000027
:020000040000fa
:040144008410000023
:020000040000fa
:04014800841000001f
:020000040000fa
:04014c00841000001b
:020000040000fa
:040150008410000017
:020000040000fa
:040154008410000013
:020000040000fa
:04015800841000000f
:020000040000fa
:04015c00841000000b
:020000040000fa
:040160008410000007
:020000040000fa
:040164008410000003
:020000040000fa
:0401680084100000ff
:020000040000fa
:04016c0084100000fb
:020000040000fa
:0401700084100000f7
:020000040000fa
:0401740084100000f3
:020000040000fa
:0401780084100000ef
:020000040000fa
:04017c0084100000eb
:020000040000fa
:0401800084100000e7
:020000040000fa
:0401840084100000e3
:020000040000fa
:0401880084100000df
:020000040000fa
:04018c0084100000db
:020000040000fa
:0401900084100000d7
:020000040000fa
:0401940084100000d3
:020000040000fa
:0401980084100000cf
:020000040000fa
:04019c0084100000cb
:020000040000fa
:0401a00084100000c7
:020000040000fa
:0401a40084100000c3
:020000040000fa
:0401a80084100000bf
:020000040000fa
:0401ac0084100000bb
:020000040000fa
:0401b00084100000b7
:020000040000fa
:0401b40084100000b3
:020000040000fa
:0401b800e002000061
:020000040000fa
:04020800841000005e
:020000040000fa
:04020c00841000005a
:020000040000fa
:040210008410000056
:020000040000fa
:040214008410000052
:020000040000fa
:04021800841000004e
:020000040000fa
:04021c00841000004a
:020000040000fa
:040220008410000046
:020000040000fa
:040224008410000042
:020000040000fa
:04022800841000003e
:020000040000fa
:04022c00841000003a
:020000040000fa
:040230008410000036
:020000040000fa
:040234008410000032
:020000040000fa
:04023800841000002e
:020000040000fa
:04023c00841000002a
:020000040000fa
:040240008410000026
:020000040000fa
:040244008410000022
:020000040000fa
:04024800841000001e
:020000040000fa
:04024c00841000001a
:020000040000fa
:040250008410000016
:020000040000fa
:040254008410000012
:020000040000fa
:04025800841000000e
:020000040000fa
:04025c00841000000a
:020000040000fa
:040260008410000006
:020000040000fa
:040264008410000002
:020000040000fa
:0402680084100000fe
:020000040000fa
:04026c0084100000fa
:020000040000fa
:0402700084100000f6
:020000040000fa
:0402740084100000f2
:020000040000fa
:0402780084100000ee
:020000040000fa
:04027c0084100000ea
:020000040000fa
:0402800084100000e6
:020000040000fa
:0402840084100000e2
:020000040000fa
:0402880084100000de
:020000040000fa
:04028c0084100000da
:020000040000fa
:0402900084100000d6
:020000040000fa
:0402940084100000d2
:020000040000fa
:0402980084100000ce
:020000040000fa
:04029c0084100000ca
:020000040000fa
:0402a00084100000c6
:020000040000fa
:0402a40084100000c2
:020000040000fa
:0402a80084100000be
:020000040000fa
:0402ac0084100000ba
:020000040000fa
:0402b00084100000b6
:020000040000fa
:0402b40084100000b2
:020000040000fa
:0402b80084100000ae
:020000040000fa
:0402bc0084100000aa
:020000040000fa
:0402c00084100000a6
:020000040000fa
:0402c40084100000a2
:020000040000fa
:0402c800841000009e
:020000040000fa
:0402cc00841000009a
:020000040000fa
:0402d0008410000096
:020000040000fa
:0402d4008410000092
:020000040000fa
:0402d800841000008e
:020000040000fa
:0402dc00841000008a
:020000040000fa
:0402e0008410000086
:020000040000fa
:0402e4008410000082
:020000040000fa
:0402e800841000007e
:020000040000fa
:0402ec00841000007a
:020000040000fa
:0402f0008410000076
:020000040000fa
:0402f4008410000072
:020000040000fa
:0402f800841000006e
:020000040000fa
:0402fc00841000006a
:020000040000fa
:040300008410000065
:020000040000fa
:040304008410000061
:020000040000fa
:04030800841000005d
:020000040000fa
:04030c008410000059
:020000040000fa
:040310008410000055
:020000040000fa
:040314008410000051
:020000040000fa
:04031800841000004d
:020000040000fa
:04031c008410000049
:020000040000fa
:040320008410000045
:020000040000fa
:040324008410000041
:020000040000fa
:04032800841000003d
:020000040000fa
:04032c008410000039
:020000040000fa
:040330008410000035
:020000040000fa
:040334008410000031
:020000040000fa
:04033800841000002d
:020000040000fa
:04033c008410000029
:020000040000fa
:040340008410000025
:020000040000fa
:040344008410000021
:020000040000fa
:04034800841000001d
:020000040000fa
:04034c008410000019
:020000040000fa
:040350008410000015
:020000040000fa
:040354008410000011
:020000040000fa
:04035800841000000d
:020000040000fa
:04035c008410000009
:020000040000fa
:040360008410000005
:020000040000fa
:040364008410000001
:020000040000fa
:0403680084100000fd
:020000040000fa
:04036c0084100000f9
:020000040000fa
:0403700084100000f5
:020000040000fa
:0403740084100000f1
:020000040000fa
:0403780084100000ed
:020000040000fa
:04037c0084100000e9
:020000040000fa
:0403800084100000e5
:020000040000fa
:0403840084100000e1
:020000040000fa
:0403880084100000dd
:020000040000fa
:04038c0084100000d9
:020000040000fa
:0403900084100000d5
:020000040000fa
:0403940084100000d1
:020000040000fa
:0403980084100000cd
:020000040000fa
:04039c0084100000c9
:020000040000fa
:0403a00084100000c5
:020000040000fa
:0403a40084100000c1
:020000040000fa
:0403a80084100000bd
:020000040000fa
:0403ac0084100000b9
:020000040000fa
:0403b00084100000b5
:020000040000fa
:0403b40084100000b1
:020000040000fa
:0403b80084100000ad
:020000040000fa
:10040000ef9f20008efe24000e01880000000000f7
:10041000000020000000e000020032000001200087
:10042000200288000c00070000302e000100200090
:100430000f000700000020000000e0000200320072
:10044000000002000000000048eb02000000000075
:100450000040da000000fe00801120000000e000f3
:1004600002003200002020009001880000000600f9
:10047000a1028800800078000000eb001a0037001d
:10048000e280400054a0b4009101ba00e280400034
:1004900054a0b4009102ba00e280400054a0b4001d
:1004a0000002eb00472bde00f507b200a601880032
:1004b000602ce10008003a000049eb000201e8006e
:1004c000020039003420ec0002f0a0008301e900b2
:1004d000f9ff3e00040037006128e100010032000e
:1004e0000082eb000b00070011c3ba001101ba0033
:1004f0000604e00003003a000200e000e0ff3a00da
:1005000000000600f607b200a6028800820078000c
:10051000f5ff370004d0a300e20f49001c003900aa
:10052000810278003549ba000201e8000200390072
:100530003420ec0002f0a0008301e9000f0032003b
:100540002549ba000201e800020039003420ec001d
:1005500002f0a0008301e900080032000400e0007e
:100560000600320015c9ba000201e8000200390095
:100570003420ec0002f0a0008301e9008180e80053
:1005800054a0b4000300e000e2ff3a0000000600bf
:100590009102ba00055978008301e900f7ff3200a3
:1005a000c82ade00055978008301e900f3ff320014
:1005b0000400e000f1ff320011d9ba00eeff37006d
:1005c0003200f8003400f800881f7800180020007e
:1005d000a801880008202000980188004f047800b6
:1005e0000a87ab00020032001628ef000a87a90034
:1005f0009080a9003400f9003200f90000400600a4
:100600004487a800f11f2000303a800080806000fd
:1006100000e0220001007000303a880000c0250090
:10062000c0388800603888008038880001142000b5
:10063000a1388800021e2000b238880020398000ce
:100640000000a0000010a1000020a10020398800b7
:100650003ea7ef0000802f00a438800084016000d6
:1006600083817000a3388800f17f2000a5388000c6
:1006700085816000e5388000050260000482710019
:10068000e4388800b4388000840160008301710080
:10069000b3388800b538800085806000f33880006a
:1006a0000301600002817000f23888000439800084
:1006b00084006000011bb300013988002207b600e6
:1006c0002021b3001039880026e7a9002647a90099
:1006d00026c7a9002627a8002607a80026a7a90044
:1006e0002687a90090c1b3002fe7b700f57220005c
:1006f00095427800907220000548780060c7b300ea
:100700002ee7b700e172200091407800827220004d
:1007100001497800a0c0b3002ce7b7007640400044
:100720002ae7b70050c0b3002de7b70000c3b300fd
:100730002be7b7002667a9002727a8002707a800ee
:10074000203880000050a1000060a0000070a100cf
:100750002038880020388000000eb200f1f12f0010
:100760002339800083806000810070002139880077
:1007700005e7a80000e823000100200064763700a8
:1007800031e7a8000000060030e7b7003107a800f5
:1007900091398800010024008239800002806000c5
:1007a000fdff3a003107a900000006000627ab0054
:1007b000feff3a0000a7ef00000025001038880077
:1007c000000000000627ab00feff3a000027ef0004
:1007d0000010250010388800000000000627ab003c
:1007e000feff3a0080ff240000388800002025002a
:1007f00010388800000000000627ab00feff3a001a
:100800000027ef000080250010388800000000005d
:100810000627ab00feff3a00001e200000388800cb
:1008200040912500103888000000000000000600fc
:10083000d4408000840f510001003600040178008c
:100840000627ab00feff3a004c0add0002027200f0
:1008500004388800c408de0002a0250001017100f0
:100860001238880000000000904078000104e00089
:10087000120032000001eb000000e80005382500fe
:10088000043025000627ab00feff3a008100fb0084
:10089000013888000304e00002003a0014388800a0
:1008a000010037001538880000000000e2407800a1
:1008b0000201e8000104e000f2ff3a000000060037
:1008c000003888000060260010388800000006000c
:1008d000003888000000250010388800000006005d
:1008e000003888000010250010388800000006003d
:1008f0000607ab00feff32006038880070388800c1
:10090000803888009038880000000600c0388800d1
:10091000d038880000000600303880003138800070
:10092000c708de0033388000c619de003238800088
:100930004511de008180710082807000e1806000de
:10094000610060000000a20001007000f2ff3a00a8
:1009500010002000b04088001608e200feff3a00b8
:10096000000006000627ab00feff3a00041420003a
:10097000048bb9008602400005388800040ab800dc
:1009800004004000e0804a00043026000482700029
:1009900014388800000000000627ab00feff3a0074
:1009a0004c10dd0003007000003888004411de00a8
:1009b000004026000200700010388800000000008f
:1009c0000627ab00feff3a00000620000038880032
:1009d00000702600103888000000000000000600ab
:1009e00004142000049bb9000411b80083014300e3
:1009f0000201400083814800023888000030260050
:100a000000807100103888006000210000388800e4
:100a100000402600103888000627ab00feff3a0091
:100a2000000620000038880000702600103888007a
:100a300000000000000006000000eb00a0ff07001f
:100a4000031e2000f21320006000b800c5ff37002d
:100a5000c0408000cf80de00808fd2008182d20033
:100a60000002780004f0a10000c025000100200071
:100a7000920180008001d0000403d0000680410074
:100a80004220a800858048004200a9004220ae0014
:100a90004200a8000080d300810178009301880003
:100aa00010407800920188000080fb008000eb007d
:100ab000808fd2008180d2000000780000f0a10079
:100ac0008bff0700c040800000f0a7000000ea0094
:100ad0000000e9004f00de00c0408800d6ff37006c
:100ae00077ff0700031e2000120020006000b800fe
:100af0009cff0700031e2000120020008000eb0076
:100b0000e013200097ff070013002000e2132000ed
:100b10006000b80093ff070013002000e2132000dc
:100b2000f11d20000000eb008eff37000000eb00fd
:100b300063ff0700031e2000120020008000eb006e
:100b4000f013200087ff3700bbff37008000eb0069
:100b50005206070002fd200093042400a4060700ab
:100b60000200200043332400c905070080017800fb
:100b70000101780003007800820078000000060080
:100b80000400fa00889fbe008a9fbe008c9fbe00b2
:100b90000204be0084bf9f0095bf9f000606be00f2
:100ba0000801be005a0507000005be000c01be008a
:100bb0003fb09700cfb09700550507000001be0079
:100bc0000a00be008a0607000005be000801be003c
:100bd0000fb897009fb897004d0507000001be00b1
:100be0000a00be00aa0507000c01be004905070067
:100bf000eb0507004f06be004f05be004f04be00c8
:100c00000080fa000000060000000600f48747009c
:100c1000889fbe008a9fbe008c9fbe008e1f7800fa
:100c200080b79f000107780082bf9f00f3b79f0045
:100c30000400be000604be000fb197008e017800cc
:100c40003305070080017800010178000306780071
:100c5000820678000c00be0001f0a100c0b79f0022
:100c6000d1b79f008fb897007fb09700010178003f
:100c7000800178000800be0025050700800178008b
:100c80000101780003057800820578000a04be009f
:100c900009f0a1000801be004fb09700dfb0970037
:100ca000bd0507000000e00004003400cfb097004d
:100cb000e1b79f005fb49700030037000800780099
:100cc000e0b79f00090478006fb1970088017800b1
:100cd0000c00be006e050700c0b79f00b1b79f00b3
:100ce0006fb19700880178000a00be006805070010
:100cf000a0b79f0091b79f00efb19700080178005f
:100d00000300780082007800a505070080067800bf
:100d10000d00e000390032000006eb00edb79f0047
:100d20008fb69700cfb097003fb0970001017800d1
:100d3000800178000d0278008e00780004037800ae
:100d4000810378000600be00f204070080067800e8
:100d5000010778000d0078008e00780090050700ec
:100d60006105b900afb097001fb09700010178008e
:100d7000800178000fba9700ffb097000403780055
:100d8000810378000600be00e204070080bf9f00d8
:100d9000f1b79f00f013200001002000800f5500e4
:100da000818f5d0011003e008fb997007fb19700e1
:100db0000300780082007800790507006104b9001b
:100dc000f01d200001002000800f5400818f5c0086
:100dd00006003e0030002000b9fe07006601440016
:100de000e0814c000a00be00fdfe07000c06e80092
:100df000efb09700810f5600caff39004f07780007
:100e00004f06be004f05be004f04be004f01b100ab
:100e1000000006000f10b000889fbe008a9fbe0031
:100e20008c9fbe008e1f78000204be000405be0029
:100e300092ff200093042400ed050700020020002b
:100e400043332400120507000006be0092ff200075
:100e5000930424000800be00e505070002002000fe
:100e6000433324000a05070000077800f1b79f000c
:100e700092ff2000930424000a00be00dc05070056
:100e8000020020004333240001050700a0b79f00a3
:100e900091b79f000c00be0072060700f0af9f00e4
:100ea00081b79f007fb197000e0078008200780024
:100eb0006c060700d0af9f00e1af9f00afb1970075
:100ec0001fb19700030078008200780065060700d4
:100ed0000004be000c0178008d007800020278004a
:100ee000810278000400be00e70407000006be008f
:100ef0000e017800ffb097000202780081027800ae
:100f00000400be00e00407000005be002fb19700fa
:100f10009fb0970002027800810278000400be00b2
:100f2000d90407000001be00b0b79f00c1b79f0001
:100f30000c00be00ae05070000077800c1af9f009f
:100f40005fa99700efa997007fa897008fb097003f
:100f5000a70507000801be00a50507000001be00a7
:100f6000cfaa97000e00780085007800690407007a
:100f7000a0b79f0091b79f0080017800c39f9f009a
:100f800001007800b09f9f000c00be0001f0a2009d
:100f90000801be0096050700f0b79f0081bf9f00c3
:100fa0007fa997008fb197003fb09700cfb097000f
:100fb0008f0507005fa99700efa997008c05070030
:100fc0000001be007fb097008fb897005104070062
:100fd000a0af9f0091af9f0080017800a39f9f006a
:100fe00001007800909f9f007fa997008fb1970024
:100ff0000a00be007e05070080af9f00f1a79f009a
:1010000080007800819f9f007fa19700f2979f004a
:101010000801be000a00be0075050700b0af9f00c2
:10102000c1a79f008001780083a79f00010078007e
:10103000f09f9f003fb19700cfb197000a00be001c
:101040006b050700b0a79f00a1a79f008000780054
:10105000e19f9f002fa19700d29f9f005fa897005c
:10106000efa8970001f0a200f0b79f0081bf9f009a
:101070003fb09700cfb0970001f0a2007fa9970082
:101080008fb197005a050700b0b79f00c1b79f0006
:101090005fa99700efa997000c00be005405070058
:1010a0000801be00520507000001be003fb09700d6
:1010b000cfb0970017040700b0b79f00e1a79f00cb
:1010c00080017800e3979f0001007800d0979f008f
:1010d0000801be007fa897008fb097004405070065
:1010e0000004be008e0078004fa897000101780030
:1010f000800178005fa89700efa897003c050700e3
:101100000001be000800be0002040700f0af9f000f
:10111000d1af9f0080007800c1979f005fa9970022
:10112000b2979f000a01be000c00be003005070008
:10113000c0af9f00d1a79f0080017800a3979f00b8
:101140000104780098979f002fbd9600bfbd9600c0
:101150002f0e9700bf0e97000a01be003fb2970006
:10116000efa297000400be00210507000004be00a6
:101170000c01be007faa9700dfaa97000400be0002
:101180001b0507000001be000800be00e1030700c8
:101190000004be002f199700bf1997004faa9700af
:1011a000dfa297000400be00110507000001be0089
:1011b0000800be00d703070002002000832c240093
:1011c000d403070000077800d1b79f000a01be00d2
:1011d0002fb297009fb297000400be0004050700dd
:1011e0000004be000c01be002faa97009faa970022
:1011f0000400be00fe0407000001be000800be009f
:10120000c40307000004be002f199700bf19970000
:101210000faa9700ffa297000400be00f404070085
:101220000001be000800be00ba0307000200200053
:1012300003122400ee0407005fb297000e0178004d
:101240008401780012040700020020000332240009
:10125000b003070000017800b28f9f008101780081
:10126000a38f9f00a22f9f00b32f9f000a01be00f3
:10127000bfaa97004fa2970005007800840078006d
:10128000db0407000004be000c01be00bfa29700f3
:101290002fa297000500780084007800d40407008e
:1012a0000001be000800be009a0307000004be0053
:1012b0002f199700bf1997007fb097008fb897003c
:1012c000cb0407000001be000800be009103070028
:1012d0000200200003272400c50407000e02780046
:1012e000dfb1970004037800830378000601be0095
:1012f000e7030700020020000337240085030700ee
:10130000d08f9f00c18f9f000001be00a23f9f00b1
:10131000b33f9f004fbd9600dfbd96004f0e970074
:10132000df0e97000a01be003fb29700efa29700c0
:101330000400be00ae0407000004be000c01be00a5
:101340007faa9700dfaa97000400be00a804070048
:101350000001be000800be006e0307000004be00ce
:101360004f199700df1997004faa9700dfa2970047
:101370000400be009e0407000001be000800be007d
:101380006403070002002000832c2400610307008f
:1013900000077800d1b79f000a01be002fb2970066
:1013a0009fb297000400be00910407000004be0035
:1013b0000c01be002faa97009faa97000400be0050
:1013c0008b0407000001be000800be0051030700a7
:1013d0000004be004f199700df1997000faa97006d
:1013e000ffa297000400be00810407000001be00b8
:1013f0000800be004703070002002000031224007b
:101400007b0407005fb297000e017800840178002a
:101410009f03070002002000033224003d03070061
:10142000c02f9f00d12f9f000a01be00bfaa9700c6
:101430004fa2970005007800840078006c04070034
:101440000004be000c01be00bfa297002fa29700af
:101450000500780084007800650407000001be00e4
:101460000800be002b0307000004be004f199700c0
:10147000df1997007fb097008fb897005c040700d2
:101480000001be000800be00220307000200200089
:1014900003272400560407000e027800dfb19700ee
:1014a00004037800830378000601be007803070078
:1014b000020020000337240016030700c03f9f00ee
:1014c000d13f9f006fbd9600ffbd96006f0e970045
:1014d000ff0e97000a01be003fb29700efa29700ef
:1014e0000400be00420407000004be000c01be0060
:1014f0007faa9700dfaa97000400be003c04070003
:101500000001be000800be00020307000004be0088
:101510006f199700ff1997004faa9700dfa2970055
:101520000400be00320407000001be000800be0037
:10153000f802070002002000832c2400f5020700b7
:1015400000077800d1b79f000a01be002fb29700b4
:101550009fb297000400be00250407000004be00ef
:101560000c01be002faa97009faa97000400be009e
:101570001f0407000001be000800be00e5020700ce
:101580000004be006f199700ff1997000faa97007b
:10159000ffa297000400be00150407000001be0072
:1015a0000800be00db020700020020000312240036
:1015b0000f0407005fb297000e01780084017800e5
:1015c000330307000200200003322400d102070089
:1015d000e02f9f00f12f9f000a01be00bfaa9700d5
:1015e0004fa29700050078008400780000040700ef
:1015f0000004be000c01be00bfa297002fa29700fe
:101600000500780084007800f90307000001be009f
:101610000800be00bf0207000004be006f1997005b
:10162000ff1997007fb097008fb89700f00307006d
:101630000001be000800be00b60207000200200044
:1016400003272400ea0307000e027800dfb19700a9
:1016500004037800830378000601be000c03070032
:101660000200200003372400aa020700e03f9f0089
:10167000f13f9f000f0597009f0597000f169700f9
:101680009f1697000a01be003fb29700efa2970095
:101690000400be00d60307000004be000c01be001b
:1016a0007faa9700dfaa97000400be00d0030700be
:1016b0000001be000800be00960207000004be0044
:1016c0000f2197009f2197004faa9700dfa2970054
:1016d0000400be00c60307000001be000800be00f3
:1016e0008c02070002002000832c240089020700de
:1016f00000077800d1b79f000a01be002fb2970003
:101700009fb297000400be00b90307000004be00aa
:101710000c01be002faa97009faa97000400be00ec
:10172000b30307000001be000800be0079020700f5
:101730000004be000f2197009f2197000faa970079
:10174000ffa297000400be00a90307000001be002d
:101750000800be006f0207000200200003122400f0
:10176000a30307005fb297000e01780084017800a0
:10177000c7020700020020000332240065020700b0
:1017800080379f0091379f000a01be00bfaa9700d3
:101790004fa29700050078008400780094030700aa
:1017a0000004be000c01be00bfa297002fa297004c
:1017b00005007800840078008d0307000001be005a
:1017c0000800be00530207000004be000f2197006e
:1017d0009f2197007fb097008fb897008403070080
:1017e0000001be000800be004a02070002002000ff
:1017f000032724007e0307000e027800dfb1970064
:1018000004037800830378000601be00a0020700ed
:1018100002002000033724003e02070080879f005b
:1018200091879f002f059700bf0597002f169700ff
:10183000bf1697000a01be003fb29700efa29700c3
:101840000400be006a0307000004be000c01be00d5
:101850007faa9700dfaa97000400be006403070078
:101860000001be000800be002a0207000004be00fe
:101870002f219700bf2197004faa9700dfa2970062
:101880000400be005a0307000001be000800be00ad
:101890002002070002002000832c24001d02070004
:1018a0000007780091a79f000a01be002fb29700a1
:1018b0009fb297000400be004d0307000004be0065
:1018c0000c01be002faa97009faa97000400be003b
:1018d000470307000001be000800be000d0207001c
:1018e0000004be002f219700bf2197000faa970088
:1018f000ffa297000400be003d0307000001be00e8
:101900000800be00030207000200200003122400aa
:10191000370307001fa297000e01780084017800aa
:101920005b0207000200200003322400f9010700d7
:10193000e08f9f00e1b79f000001be00a2379f002b
:10194000b3379f000a01be00bfaa97004fa29700bd
:101950000500780084007800250307000004be001d
:101960000c01be00bfa297002fa2970005007800cf
:10197000840078001e0307000001be000800be00be
:10198000e40107000004be002f219700bf2197004b
:101990007fb097008fb89700150307000001be00c5
:1019a0000800be00db01070002002000032724001e
:1019b0000f0307000e0278009fa197000403780030
:1019c000830378000601be003102070002002000f8
:1019d00003372400cf0107000001780082979f00a1
:1019e00081017800f38f9f00a2879f00b3879f003b
:1019f0004f059700df0597004f169700df169700f9
:101a00000a01be003fb29700efa297000400be009b
:101a1000f70207000004be000c01be007faa970079
:101a2000dfaa97000400be00f10207000001be001b
:101a30000800be00b70107000004be004f21970058
:101a4000df2197004faa9700dfa297000400be0095
:101a5000e70207000001be000800be00ad0107005c
:101a600002002000832c2400aa0107000007780050
:101a700091a79f000a01be002fb297009fb2970066
:101a80000400be00da0207000004be000c01be0024
:101a90002faa97009faa97000400be00d402070057
:101aa0000001be000800be009a0107000004be004d
:101ab0004f219700df2197000faa9700ffa2970000
:101ac0000400be00ca0207000001be000800be00fc
:101ad000900107000200200003122400c402070046
:101ae0001fa297000e01780084017800e80107002a
:101af000020020000332240086010700c0379f0047
:101b0000d1379f000a01be00bfaa97004fa29700dd
:101b10000500780084007800b50207000004be00cc
:101b20000c01be00bfa297002fa29700050078000d
:101b300084007800ae0207000001be000800be006d
:101b4000740107000004be004f219700df219700b9
:101b50007fb097008fb89700a50207000001be0074
:101b60000800be006b0107000200200003272400cc
:101b70009f0207000e0278009fa1970004037800df
:101b8000830378000601be00c101070002002000a7
:101b9000033724005f010700c0879f00d1879f00a3
:101ba0006f059700ff0597006f169700ff169700c7
:101bb0000a01be003fb29700efa297000400be00ea
:101bc0008b0207000004be000c01be007faa970034
:101bd000dfaa97000400be00850207000001be00d6
:101be0000800be004b0107000004be006f219700f3
:101bf000ff2197004faa9700dfa297000400be00c4
:101c00007b0207000001be000800be004101070082
:101c100002002000832c24003e010700000778000a
:101c2000b1b79f000a01be002fb297009fb2970084
:101c30000400be006e0207000004be000c01be00de
:101c40002faa97009faa97000400be006802070011
:101c50000001be000800be002e0107000004be0007
:101c60006f219700ff2197000faa9700ffa297000e
:101c70000400be005e0207000001be000800be00b6
:101c8000240107000200200003122400580207006c
:101c90003fb297000e017800840178007c010700b4
:101ca00002002000033224001a010700e0379f00e1
:101cb000f1379f000a01be008fa297007f9a97001c
:101cc0000500780084007800490207000004be0087
:101cd0000c01be00ef9a97005f9a9700050078000c
:101ce00084007800420207000001be000800be0028
:101cf000080107000004be006f219700ff21970034
:101d00007fb097008fb89700390207000001be002e
:101d10000800be00ff000700020020000327240087
:101d2000330207000e027800bfb197000403780069
:101d3000830378000601be00550107000200200061
:101d400003372400f3000700e0879f00f1879f001e
:101d50000f0d97009f0d97000f1e97009f1e970075
:101d60000a01be006f929700df9297000400be0048
:101d70001f0207000004be000c01be004f92970036
:101d8000bf9297000400be00190207000001be00c8
:101d90000800be00df0007000004be000f29970006
:101da0009f2997002f9297009f9297000400be00f2
:101db0000f0207000001be000800be00d5000700aa
:101dc00002002000832c2400d200070000077800c6
:101dd00091b79f000a01be004f9a9700bf9a9700e3
:101de0000400be00020207000004be000c01be0099
:101df0002f9a97009f9a97000400be00fc010700ed
:101e00000001be000800be00c20007000004be00c2
:101e10000f2997009f2997000f9a9700ff9297002c
:101e20000400be00f20107000001be000800be0071
:101e3000b80007000200200003122400ec01070094
:101e40001fb297000e01780084017800100107008e
:101e50000200200003322400ae000700803f9f00f4
:101e6000913f9f000a01be008fa297007f9a9700c2
:101e70000500780084007800dd0107000004be0042
:101e80000c01be00ef9a97005f9a9700050078005a
:101e900084007800d60107000001be000800be00e3
:101ea0009c0007000004be000f2997009f2997009f
:101eb0007fb097008fb89700cd0107000001be00ea
:101ec0000800be0093000700020020000327240042
:101ed000c70107000e0278009fb197000403780045
:101ee000830378000601be00e9000700020020001d
:101ef0000337240087000700808f9f00918f9f0089
:101f00008f959700ff8e97006f8f97005f8c9700db
:101f10004f8d97003f8e9700af8c97000b03780092
:101f20008d0378000e027800efb297000801780068
:101f30008a0178000c0078008900780033fb0700e4
:101f40004f3b9700df3b97004f2a9700df2a97000f
:101f5000080178008a0178000c0078008900780078
:101f60002afb07004f839700df8397004f329700cb
:101f7000df3297000b0178008d0178000e007800a9
:101f8000efb0970021fb07004f869700df86970090
:101f90004f309700df309700f0b79f0081bf9f0060
:101fa0004f3c9700df3c97004f2d9700df2d9700a7
:101fb0000c03be000002be000801be000a00be0005
:101fc00012fb07006f3b9700ff3b97006f2a9700bb
:101fd000ff2a97000801be000a00be000bfb0700a5
:101fe0006f839700ff8397006f329700ff3297004f
:101ff0000c01be007fb097008fb8970003fb07006d
:102000006f869700ff8697006f319700ff3197002a
:10201000f2b79f0083bf9f006f3c9700ff3c970083
:102020006f2d9700ff2d97000c03be000202be002b
:102030000801be000a00be00f4fa07000f839700f3
:102040009f8397000f3297009f3297000801be00d0
:102050000a00be00edfa07000f8b97009f8b9700d8
:102060000f3a97009f3a97000c01be007fb097008f
:102070008fb89700e5fa07000f8e97009f8e9700a4
:102080000f3897009f389700f0b79f0081bf9f00df
:102090000f8497009f8497000f3597009f35970016
:1020a0000c03be000002be000801be000a00be0014
:1020b000d6fa07002f3b9700bf3b97002f2a9700c7
:1020c000bf2a97000801be000a00be00cffa070031
:1020d0002f839700bf8397002f329700bf3297005e
:1020e0000c01be007fb097008fb89700c7fa0700b9
:1020f0004f0778004f06be004f05be004f04be00dc
:102100000f10b100000006000040da000000fe00e1
:1021100003f0a200889fbe008a9fbe008c1f78003b
:102120001b010700220133006450e1004f00320020
:102130006420e1005200320003826c0007003b0083
:102140000905d0000306d000820f54000c065d0084
:10215000020039000200320089017800030678008d
:102160008582550004003d000003fd008103fd0051
:102170008502ea008b854200840f720002003b005a
:1021800060001000e08018006011b8000005eb004e
:102190007a28e1000a00390006007800c75ddd00fa
:1021a000f707b200878075002d003700828171002b
:1021b0000a017800610560008180d1000080d300b1
:1021c0008502e900f9ff3b000604400087844800cf
:1021d00002003b0060041400e0841c000988a30096
:1021e000070032008a817100828171006101640000
:1021f0008904d1000884d3008b05e800170037005c
:102200000978a30013003a000b00e000130034002b
:102210008b05e9000804440089844c000a447400da
:102220000978a3000d003a000b00e000070034001d
:102230008b05e9000804440089844c0001003a0041
:102240000b0020000978a300f7ff32000001eb002b
:1022500002003700828171000a01780091000700b6
:102260000cf0a70001f0a000da0037006420e100c4
:1022700002003a00838f6c00da0033000801be00d0
:102280000200be00d30037000081eb000c013700d4
:10229000889fbe008a9fbe008c1f7800bc0007008c
:1022a000c300330003866c006450e1002e0032004e
:1022b0006420e100330032006150e1002f00320061
:1022c0006120e1003100320085855500eb07b00048
:1022d000090020000804200005003700080444001d
:1022e00089844c000a0031000603430087834b00b9
:1022f0000001530081815b00f8ff33000203be0040
:102300000800a0000804440089844c00f6ff39004e
:10231000c639dd0083017300010032001300200084
:102320008904d1000884d3000998a3000500320075
:102330000800a7000300a0008904d1000884d3008e
:102340008b05e8008904d1000884d3000001eb006c
:102350000281d2005300070001f0a1000cf0a70099
:1023600001f0a0009b0037006420e1009d003200d6
:102370000801be000200be00f7ff37006120e10047
:10238000980032006000b800f3ff37000000200022
:1023900001f82700f0ff3700f4ff2f003601370067
:1023a0000001be00650007000470a70003f0a10053
:1023b0006509b100160032000d0035006828e10003
:1023c00006003500f0ff2f00f1ff27000300e000ba
:1023d00013003b0001002800000005000000400041
:1023e000818048008502e900fcff3a0008003700c0
:1023f000f88f420002003c008000eb000000050066
:102400008100d1000080d3008502e800fcff3a0083
:102410000300e00002003b0060001000e0801800b4
:10242000000006000001be00440007000470a70081
:1024300003f0a10003f8a30013003a006509b100fe
:1024400010003200090035006928e1000200350063
:1024500001002800000005000000400081804800c5
:102460008502e900fcff3a0000000600f88f4200f8
:10247000050035008100d1000080d3008502e8000e
:10248000fcff3a00000006008000eb0000000500a1
:102490004f89de0082017800140137006011b80016
:1024a0002201370081002000618055000b003d00b3
:1024b0000b00200061fe2f000100e1001d00340030
:1024c00082817100610164008904d1000884d30015
:1024d0000000e800faff3a0071002000610064008b
:1024e0000300700002006000090032006104440033
:1024f000e0844c000988a500050032008b05e80047
:102500006808e10002003a008904d1000884d30081
:10251000f20f20000258e10005003d00c75ddd001c
:10252000f907b200898075000800780000000600f5
:102530000bf827008b00780000000500c70ade00ba
:10254000f107b200f50fb20008003200e1cf4200ff
:10255000020032000170a00024000500810f70000d
:10256000010032000408050044000500810f7000de
:1025700002003a00140005008502e9000000400056
:1025800081c04800fcff3b000170a0002400050052
:102590000004be00e9ff07000003be000405be0002
:1025a0000200be00e5ff0700844f75000000060032
:1025b0000200be006450e100050036006420e10026
:1025c000020036000968a30001003a000800be00be
:1025d0000160a0004f0678004f05be004f04be000a
:1025e00000000600f0ff2f00f1ff2700f9ff370081
:1025f000889fbe008a9fbe008c1f7800e4ff070002
:10260000ebff330003866c006450e10024003200cd
:102610006420e100270032006150e1002200320016
:102620006120e100210032008b854200eb07b10000
:102630000134b800003ab8000804420089844a0016
:10264000013ab8000030b8008880400009014a0013
:10265000040033000000400081804800020149006e
:102660008b05e900c909dd0083017000010032001b
:1026700013002000c814de004814dd004709de0006
:102680001200b200c808de000884700085ff070051
:1026900001f0a1000cf0a70001f0a000cdff370071
:1026a0006120e100cfff32000801be000200be0041
:1026b000f7ff37006150e100fcff3a00c9ff370027
:1026c000889fbe008a9fbe008c9fbe008205780056
:1026d0000004be0099ff07000800be006420e1006e
:1026e0000700390002003a00f1ff2700f0ff2f0039
:1026f0000160a0001202200002418800550037004e
:102700006120e10003003a000b00a70001f823005c
:102710005000370001f0a100020021009364240062
:10272000700007000800be0004003500b2fd200064
:10273000930c2400ac0007000004be000005eb0071
:102740000b00a6004f0dde0001f0a1000004be004a
:1027500032982f0023ea2300a5ff07000001eb00b9
:1027600003f023000b00a70003f8230069fe070015
:102770000bff07000000a7000a00a20044ff0700ab
:102780000b00e000030032000200200003f02300f1
:102790005ffe070001f0a2000006be00020020005c
:1027a0009304240092ff07000801be0059fe0700b1
:1027b000809fbe000c00be0022a22a00d3a72300e7
:1027c0008bff07004f01be0052fe07000004be0051
:1027d00001f0a1000200200003982300410007003f
:1027e0000800be00190035000001be0080ff070090
:1027f0000006be00b2c52900e36223007cff07008b
:1028000022222b00f3942b0042fe07000c01be0095
:1028100077ff0700e273280083c023003dfe070016
:102820000c01be0072ff070042aa2a00a3e22b009f
:1028300038fe07000c01be006dff07000801be0056
:102840006bff07000801be0032fe07000a00a70068
:1028500001f0a2004f06be004f05be004f04be00af
:10286000000006000001eb0095ff3700af000700f5
:102870000400be0000000600889fbe008a9fbe00c4
:10288000841f780042ff07004f00780011003300da
:10289000f0ff2f00838f6c0006003b0004056500ed
:1028a0000a00a7000800370009f0a6001000200069
:1028b00008003700820f5400838f5c00030039004a
:1028c0001000200001003e000000200009f0a700d9
:1028d0000000ea004f05be004f04be000000e0000b
:1028e0000000060014002000e3ff3700881f780076
:1028f000030478000300e00007003d0060001000c2
:10290000e080180060011900e081190002003b001e
:1029100001f02d00030037000400070008f0a700b5
:1029200001f0a0004f04780000000600889fbe0060
:102930008a9fbe0000827000040271000482710050
:10294000260032000004be000200be006011b80084
:102950006b092000950220000182cf000a00390097
:102960000541b1000082cf00070039000541b100e8
:102970000982cf00040039000541b1000882cf0070
:10298000010039000541b100054252001200320039
:102990000a003b0082817100610164008100d10066
:1029a0000080d3008984d3000884d3008b05e8001d
:1029b0000442e800f7ff3a0007003700080444002b
:1029c00089844c0000004800818048008b05e900a4
:1029d0000442e900f9ff3a00b2fe07004f05be00cd
:1029e0004f04be0000000600040020000000370075
:1029f000889fbe008a9fbe008c1f78004f26dd0096
:102a0000e3fe0700eafe33006120e10043003200ec
:102a10006250e10041003e003e0039006420e100c8
:102a20003c003200058255000f003b000402e80024
:102a300038003a00800f5300818f5b00350034006e
:102a40000800be0003f0a10001f0a60003f0a00002
:102a50000cf0a700affd0700defe370006034300c1
:102a600087834b000c4646000005530081855b00c0
:102a7000020033000a03be000c00a0000402e900bb
:102a8000f6ff3b00850578000602430087824b0075
:102a900004003a006000b80009f0a70001f0a000af
:102aa000ccfe37000002520081825a000704e00089
:102ab000040033000603430087834b008b05e900c5
:102ac000faff3700090578000604be000203be00c5
:102ad0006011b80073fe0700e00f5200e08f5a004b
:102ae0000700350002003c000c08a300040032007f
:102af0000601be0003f0a0000cf0a70085fd070052
:102b00000a85680001f0a1000af0a70001f0a0000a
:102b1000b0fe37000800be00aefe370010022000f5
:102b20000cf0a60000418800aefe37006022b8001d
:102b3000060220000000d0008180d2000482d20072
:102b40008582d2000000a0000202520083825a0057
:102b5000030031000202420083824a000000a1000b
:102b60000603e900f3ff3a00000006008000eb00d6
:102b7000d04f8800e14f880011c0b300809f200033
:102b80000148780000000600809f20001004e0004b
:102b900002003a0010002000f4ff0700d2e62400f3
:102ba000631c2400d04f8000e14f80000900070023
:102bb00092032300030020000001410081814900ad
:102bc000d24f8800e34f88000300780000f0a10096
:102bd00000000600020ab900001bb9000200b8009c
:0c2be0008100420081004300000006005c
:020000040000fa
:102bec004120000066610000746100006c20000050
:102bfc006578000063650000706500007469000072
:102c0c006f6e000020300000783200003444000069
:102c1c002068000061730000206f000063630000f7
:102c2c007572000072650000642000006174000081
:102c3c002030000030460000430000002009000056
:102c4c002a2000004375000072720000656e0000bf
:102c5c007420000061700000706c0000696300005b
:102c6c0061740000696f00006e200000776900003d
:102c7c006c6c000020620000652000007465000090
:102c8c00726d0000696e00006174000065640000e4
:102c9c002e000000200900002a20000045520000f0
:102cac00524f0000523a00002043000050550000e3
:102cbc0020720000656600007573000065640000fa
:102ccc00207400006f2000006f700000656e000023
:102cdc002073000068690000742000006465000027
:102cec006d6f0000732e000000200000092a000008
:102cfc00205000007265000073730000206100001a
:102d0c006e790000206b000065790000206f0000d8
:102d1c00722000006a7500007374000020670000c8
:102d2c0069760000652000007570000020610000cd
:102d3c006c72000065610000647900002e000000d8
:102d4c00200900002a20000050720000657300006a
:102d5c007320000043540000524c0000202b000054
:102d6c00204100004c540000202b000020440000a7
:102d7c00454c0000206600006f72000020660000c9
:102d8c00756e0000210000002a2a00002a20000095
:102d9c005348000049540000444500004d4f0000ca
:102dac002e45000058450000202d0000202000007a
:102dbc004164000064720000657300007320000021
:102dcc0030780000343900004455000043460000c0
:102ddc004100000050720000657300007320000079
:102dec00616e0000792000006b6500007920000006
:102dfc00746f0000206300006f6e000074690000a7
:102e0c006e750000652e00002e2e000000000000e4
:020000040000fa
:102e1c0001000000010000000100000001000000a2
:102e2c000100000001000000010000000100000092
:102e3c000100000001000000010000000100000082
:102e4c000100000001000000010000000100000072
:020000040000fa
:10a5cc0064000000640000005e0000005e000000fb
:10a5dc005e0000005e0000005e0000005e000000f7
:10a5ec005e0000005e0000005e0000005e000000e7
:10a5fc005e0000005e0000005e0000005e000000d7
:10a60c005e0000005e0000005e0000005e000000c6
:10a61c00640000006400000064000000640000009e
:10a62c0064000000640000005e0000005e0000009a
:10a63c005e0000005e0000005e0000005e00000096
:10a64c005e0000005e0000005e0000005e00000086
:10a65c005e0000005e0000005e0000005e00000076
:10a66c005e0000005e0000005e0000005e00000066
:10a8cc0064000000640000005e0000005e000000f8
:10a8dc005e0000005e0000005e0000005e000000f4
:10a8ec005e0000005e0000005e0000005e000000e4
:10a8fc005e0000005e0000005e0000005e000000d4
:10a90c005e0000005e0000005e0000005e000000c3
:10a91c00640000006400000064000000640000009b
:10a92c0064000000640000005e0000005e00000097
:10a93c005e0000005e0000005e0000005e00000093
:10a94c005e0000005e0000005e0000005e00000083
:10a95c005e0000005e0000005e0000005e00000073
:10a96c005e0000005e0000005e0000005e00000063
:10abcc0064000000640000005e0000005e000000f5
:10abdc005e0000005e0000005e0000005e000000f1
:10abec005e0000005e0000005e0000005e000000e1
:10abfc005e0000005e0000005e0000005e000000d1
:10ac0c005e0000005e0000005e0000005e000000c0
:10ac1c006400000064000000640000006400000098
:10ac2c0064000000640000005e0000005e00000094
:10ac3c005e0000005e0000005e0000005e00000090
:10ac4c005e0000005e0000005e0000005e00000080
:10ac5c005e0000005e0000005e0000005e00000070
:10ac6c005e0000005e0000005e0000005e00000060
:10aecc0064000000640000005e0000005e000000f2
:10aedc005e0000005e0000005e0000005e000000ee
:10aeec005e0000005e0000005e0000005e000000de
:10aefc005e0000005e0000005e0000005e000000ce
:10af0c005e0000005e0000005e0000005e000000bd
:10af1c006400000064000000640000006400000095
:10af2c0064000000640000005e0000005e00000091
:10af3c005e0000005e0000005e0000005e0000008d
:10af4c005e0000005e0000005e0000005e0000007d
:10af5c005e0000005e0000005e0000005e0000006d
:10af6c005e0000005e0000005e0000005e0000005d
:10b1cc0064000000640000005e0000005e000000ef
:10b1dc005e0000005e0000005e0000005e000000eb
:10b1ec005e0000005e0000005e0000005e000000db
:10b1fc005e0000005e0000005e0000005e000000cb
:10b20c005e0000005e0000005e0000005e000000ba
:10b21c006400000064000000640000006400000092
:10b22c0064000000640000005e0000005e0000008e
:10b23c005e0000005e0000005e0000005e0000008a
:10b24c005e0000005e0000005e0000005e0000007a
:10b25c005e0000005e0000005e0000005e0000006a
:10b26c005e0000005e0000005e0000005e0000005a
:10bcdc002c0100002c0100007b0100007b01000006
:10bcec007b0100007b0100007b0100007b01000058
:10bcfc001c0100001c0100001c0100001c010000c4
:10bd0c001c0100001c0100001c0100001c010000b3
:10bd1c001c0100001c0100001c0100001c010000a3
:10bd2c001c0100001c0100001c0100001c01000093
:10bd3c001c0100001c0100001c0100001c01000083
:10bd4c001c0100001c0100001c0100001c01000073
:10bd5c001c0100001c0100001c0100001c01000063
:10bd6c001c0100001c0100001c0100001c01000053
:10bd7c001c0100001c0100001c0100001c01000043
:10bd8c001c0100001c0100001c0100001c01000033
:10bd9c001c0100001c0100001c0100001c01000023
:10bdac001c0100001c0100001c0100001c01000013
:10bdbc001c0100001c0100001c0100001c01000003
:10bdcc001c0100001c0100001c0100001c010000f3
:10bddc001c0100001c0100001c0100001c010000e3
:10bdec001c0100001c0100001c0100001c010000d3
:10bdfc001c0100001c0100001c0100001c010000c3
:10be0c001c0100001c0100001c0100001c010000b2
:10be1c001c0100001c0100001c0100001c010000a2
:10be2c001c0100001c0100001c0100001c01000092
:10be3c001c0100001c0100001c0100001c01000082
:10be4c001c0100001c0100001c0100001c01000072
:10be5c001c0100001c0100007b0100007b010000a4
:10be6c007b0100007b0100007b0100007b010000d6
:10be7c00e1000000e1000000e1000000e100000032
:10be8c00e1000000e1000000e1000000e100000022
:10be9c00e1000000e1000000e1000000e100000012
:10c15c00fd000000fd0000001c0100001c0100009f
:10c16c001c0100001c0100001c0100001c0100004f
:10c17c005e0000005e0000005e0000005e0000003b
:10c18c005e0000005e0000005e0000005e0000002b
:10c19c005e0000005e0000005e0000005e0000001b
:10c3cc0064000000640000005e0000005e000000dd
:10c3dc005e0000005e0000005e0000005e000000d9
:10c3ec005e0000005e0000005e0000005e000000c9
:10c3fc005e0000005e0000005e0000005e000000b9
:10c40c005e0000005e0000005e0000005e000000a8
:10c41c006400000064000000640000006400000080
:10c42c0064000000640000005e0000005e0000007c
:10c43c005e0000005e0000005e0000005e00000078
:10c44c005e0000005e0000005e0000005e00000068
:10c45c005e0000005e0000005e0000005e00000058
:10c46c005e0000005e0000005e0000005e00000048
:10c6cc0064000000640000005e0000005e000000da
:10c6dc005e0000005e0000005e0000005e000000d6
:10c6ec005e0000005e0000005e0000005e000000c6
:10c6fc005e0000005e0000005e0000005e000000b6
:10c70c005e0000005e0000005e0000005e000000a5
:10c71c00640000006400000064000000640000007d
:10c72c0064000000640000005e0000005e00000079
:10c73c005e0000005e0000005e0000005e00000075
:10c74c005e0000005e0000005e0000005e00000065
:10c75c005e0000005e0000005e0000005e00000055
:10c76c005e0000005e0000005e0000005e00000045
:10c9cc0064000000640000005e0000005e000000d7
:10c9dc005e0000005e0000005e0000005e000000d3
:10c9ec005e0000005e0000005e0000005e000000c3
:10c9fc005e0000005e0000005e0000005e000000b3
:10ca0c005e0000005e0000005e0000005e000000a2
:10ca1c00640000006400000064000000640000007a
:10ca2c0064000000640000005e0000005e00000076
:10ca3c005e0000005e0000005e0000005e00000072
:10ca4c005e0000005e0000005e0000005e00000062
:10ca5c005e0000005e0000005e0000005e00000052
:10ca6c005e0000005e0000005e0000005e00000042
:10d4dc002c0100002c0100007b0100007b010000ee
:10d4ec007b0100007b0100007b0100007b01000040
:10d4fc001c0100001c0100001c0100001c010000ac
:10d50c001c0100001c0100001c0100001c0100009b
:10d51c001c0100001c0100001c0100001c0100008b
:10d52c001c0100001c0100001c0100001c0100007b
:10d53c001c0100001c0100001c0100001c0100006b
:10d54c001c0100001c0100001c0100001c0100005b
:10d55c001c0100001c0100001c0100001c0100004b
:10d56c001c0100001c0100001c0100001c0100003b
:10d57c001c0100001c0100001c0100001c0100002b
:10d58c001c0100001c0100001c0100001c0100001b
:10d59c001c0100001c0100001c0100001c0100000b
:10d5ac001c0100001c0100001c0100001c010000fb
:10d5bc001c0100001c0100001c0100001c010000eb
:10d5cc001c0100001c0100001c0100001c010000db
:10d5dc001c0100001c0100001c0100001c010000cb
:10d5ec001c0100001c0100001c0100001c010000bb
:10d5fc001c0100001c0100001c0100001c010000ab
:10d60c001c0100001c0100001c0100001c0100009a
:10d61c001c0100001c0100001c0100001c0100008a
:10d62c001c0100001c0100001c0100001c0100007a
:10d63c001c0100001c0100001c0100001c0100006a
:10d64c001c0100001c0100001c0100001c0100005a
:10d65c001c0100001c0100007b0100007b0100008c
:10d66c007b0100007b0100007b0100007b010000be
:10d67c00e1000000e1000000e1000000e10000001a
:10d68c00e1000000e1000000e1000000e10000000a
:10d69c00e1000000e1000000e1000000e1000000fa
:10d95c00fd000000fd0000001c0100001c01000087
:10d96c001c0100001c0100001c0100001c01000037
:10d97c005e0000005e0000005e0000005e00000023
:10d98c005e0000005e0000005e0000005e00000013
:10d99c005e0000005e0000005e0000005e00000003
:10d9ac005e0000005e0000005e0000005e000000f3
:10d9bc005e0000005e0000005e0000005e000000e3
:10d9cc005e0000005e0000005e0000005e000000d3
:10d9dc005e0000005e0000005e0000005e000000c3
:10d9ec005e0000005e0000005e0000005e000000b3
:10d9fc005e0000005e0000005e0000005e000000a3
:10da0c005e0000005e0000006a0000006a0000007a
:10da1c006a0000006a0000006a0000006a00000052
:10da2c007e0000007e0000007e0000007e000000f2
:10da3c007e0000007e0000007e0000007e000000e2
:10da4c007e0000007e0000007e0000007e000000d2
:10da5c006a0000006a0000006a0000006a00000012
:10da6c006a0000006a0000006a0000006a00000002
:10da7c006a0000006a0000006a0000006a000000f2
:10da8c006a0000006a0000006a0000006a000000e2
:10da9c006a0000006a0000006a0000006a000000d2
:10daac006a0000006a0000006a0000006a000000c2
:10dabc005e0000005e0000005e0000005e000000e2
:10dacc005e0000005e0000005e0000005e000000d2
:10dadc005e0000005e0000005e0000005e000000c2
:10daec0054000000540000005400000054000000da
:10dafc0054000000540000004700000047000000e4
:10db0c0047000000470000004700000047000000ed
:10db1c0047000000470000004700000047000000dd
:10db2c0047000000470000005400000054000000b3
:10db3c005400000054000000540000005400000089
:10db4c0047000000470000004700000047000000ad
:10db5c004700000047000000470000003f000000a5
:10db6c003f0000003f0000003f0000003f000000ad
:10db7c003f000000350000003500000035000000bb
:10db8c003500000035000000350000002f000000bb
:10db9c002f0000002f0000002f0000002f000000bd
:10dbac002f0000002f0000002f0000002f000000ad
:10dbbc002f0000002f0000002f0000002f0000009d
:10dbcc002f0000002f0000002f0000002f0000008d
:10dbdc002f0000002f0000002f0000002f0000007d
:10dbec002f0000002f0000002f0000002f0000006d
:10dbfc002f0000002f0000002f0000002f0000005d
:10dc0c002f0000002f0000002f0000002f0000004c
:10dc1c002f0000002f0000002f0000002f0000003c
:10dc2c002f0000002f0000002f0000002f0000002c
:10dc3c002f0000002f0000002f0000002f0000001c
:10dc4c002f0000002f0000002f0000002f0000000c
:10dc5c002f0000002f0000002f0000002f000000fc
:10dc6c002f0000002f0000002f0000002f000000ec
:10dc7c002f0000002f0000002f0000002f000000dc
:10dc8c002f0000002f0000002f0000002f000000cc
:10dc9c002f0000002f0000002f0000002f000000bc
:10dcac002f0000002f0000002f0000002f000000ac
:10dcbc002f0000002f0000002f0000002f0000009c
:10dccc002f0000002f0000002f0000002f0000008c
:10dcdc002f0000002f0000002f0000002f0000007c
:10dcec002f0000002f0000002f0000002f0000006c
:10dcfc002f0000002f0000002f0000002f0000005c
:10dd0c002f0000002f0000002f0000002f0000004b
:10dd1c002f0000002f0000002f0000002f0000003b
:10dd2c002f0000002f0000002f0000005e000000fc
:10dd3c005e0000005e0000005e0000005e0000005f
:10dd4c005e0000005e0000005e0000005e0000004f
:10dd5c005e0000005e0000005e0000004b00000052
:10dd6c004b0000004b0000004b0000004b0000007b
:10dd7c004b0000004b0000004b0000004b0000006b
:10dd8c004b0000004b0000004b0000005e00000048
:10dd9c005e0000005e0000005e0000005e000000ff
:10ddac005e0000005e0000005e0000005e000000ef
:10ddbc005e0000005e0000005e0000004b000000f2
:10ddcc004b0000004b0000004b0000004b0000001b
:10dddc004b0000004b0000004b0000004b0000000b
:10ddec004b0000004b0000004b0000005e000000e8
:10ddfc005e0000005e0000005e0000005e0000009f
:10de0c005e0000005e0000005e0000005e0000008e
:10de1c005e0000005e0000005e0000004b00000091
:10de2c004b0000004b0000004b0000004b000000ba
:10de3c004b0000004b0000004b0000004b000000aa
:10de4c004b0000004b0000004b0000005e00000087
:10de5c005e0000005e0000005e0000005e0000003e
:10de6c005e0000005e0000005e0000005e0000002e
:10de7c005e0000005e0000005e0000004b00000031
:10de8c004b0000004b0000004b0000004b0000005a
:10de9c004b0000004b0000004b0000004b0000004a
:10deac004b0000004b0000004b0000006400000021
:10debc0064000000640000006400000064000000c6
:10decc0064000000640000006400000064000000b6
:10dedc006400000064000000640000004b000000bf
:10deec004b0000004b0000004b0000004b000000fa
:10defc004b0000004b0000004b0000004b000000ea
:10df0c004b0000004b0000004b00000064000000c0
:10df1c006400000064000000640000006400000065
:10df2c006400000064000000640000006400000055
:10df3c006400000064000000640000004b0000005e
:10df4c004b0000004b0000004b0000004b00000099
:10df5c004b0000004b0000004b0000004b00000089
:10df6c004b0000004b0000004b0000006400000060
:10df7c006400000064000000640000006400000005
:10df8c00640000005e0000005e0000005e00000007
:10df9c005e0000005e0000005e0000005e000000fd
:10dfac005e0000005e0000005e0000005e000000ed
:10dfbc005e0000005e0000005e0000005e000000dd
:10dfcc005e0000005e0000005e00000064000000c7
:10dfdc0064000000640000006400000064000000a5
:10dfec00640000005e0000005e0000005e000000a7
:10dffc005e0000005e0000005e0000005e0000009d
:10e00c005e0000005e0000005e0000005e0000008c
:10e01c005e0000005e0000005e0000005e0000007c
:10e02c005e0000005e0000005e0000005e0000006c
:10e03c005e0000005e0000005e0000005e0000005c
:10e04c005e0000005e0000005e0000005e0000004c
:10e05c005e0000005e0000005e0000004b0000004f
:10e06c004b0000004b0000004b0000004b00000078
:10e07c004b0000004b0000004b0000004b00000068
:10e08c004b0000004b0000004b0000005e00000045
:10e09c005e0000005e0000005e0000005e000000fc
:10e0ac005e0000005e0000005e0000005e000000ec
:10e0bc005e0000005e0000005e0000004b000000ef
:10e0cc004b0000004b0000004b0000004b00000018
:10e0dc004b0000004b0000004b0000004b00000008
:10e0ec004b0000004b0000004b0000005e000000e5
:10e0fc005e0000005e0000005e0000005e0000009c
:10e10c005e0000005e0000005e0000005e0000008b
:10e11c005e0000005e0000005e0000004b0000008e
:10e12c004b0000004b0000004b0000004b000000b7
:10e13c004b0000004b0000004b0000004b000000a7
:10e14c004b0000004b0000004b0000005e00000084
:10e15c005e0000005e0000005e0000005e0000003b
:10e16c005e0000005e0000005e0000005e0000002b
:10e17c005e0000005e0000005e0000004b0000002e
:10e18c004b0000004b0000004b0000004b00000057
:10e19c004b0000004b0000004b0000004b00000047
:10e1ac004b0000004b0000004b000000640000001e
:10e1bc0064000000640000006400000064000000c3
:10e1cc0064000000640000006400000064000000b3
:10e1dc006400000064000000640000004b000000bc
:10e1ec004b0000004b0000004b0000004b000000f7
:10e1fc004b0000004b0000004b0000004b000000e7
:10e20c004b0000004b0000004b00000064000000bd
:10e21c006400000064000000640000006400000062
:10e22c006400000064000000640000006400000052
:10e23c006400000064000000640000004b0000005b
:10e24c004b0000004b0000004b0000004b00000096
:10e25c004b0000004b0000004b0000004b00000086
:10e26c004b0000004b0000004b000000640000005d
:10e27c006400000064000000640000006400000002
:10e28c00640000005e0000005e0000005e00000004
:10e29c005e0000005e0000005e0000005e000000fa
:10e2ac005e0000005e0000005e0000005e000000ea
:10e2bc005e0000005e0000005e0000005e000000da
:10e2cc005e0000005e0000005e00000064000000c4
:10e2dc0064000000640000006400000064000000a2
:10e2ec00640000005e0000005e0000005e000000a4
:10e2fc005e0000005e0000005e0000005e0000009a
:10e30c005e0000005e0000005e0000005e00000089
:10e31c005e0000005e0000005e0000005e00000079
:10e32c005e0000005e0000005e0000005e00000069
:10e33c005e0000005e0000005e0000005e00000059
:10e34c005e0000005e0000005e0000005e00000049
:10e35c005e0000005e0000005e0000004b0000004c
:10e36c004b0000004b0000004b0000004b00000075
:10e37c004b0000004b0000004b0000004b00000065
:10e38c004b0000004b0000004b0000005e00000042
:10e39c005e0000005e0000005e0000005e000000f9
:10e3ac005e0000005e0000005e0000005e000000e9
:10e3bc005e0000005e0000005e0000004b000000ec
:10e3cc004b0000004b0000004b0000004b00000015
:10e3dc004b0000004b0000004b0000004b00000005
:10e3ec004b0000004b0000004b0000005e000000e2
:10e3fc005e0000005e0000005e0000005e00000099
:10e40c005e0000005e0000005e0000005e00000088
:10e41c005e0000005e0000005e0000004b0000008b
:10e42c004b0000004b0000004b0000004b000000b4
:10e43c004b0000004b0000004b0000004b000000a4
:10e44c004b0000004b0000004b0000005e00000081
:10e45c005e0000005e0000005e0000005e00000038
:10e46c005e0000005e0000005e0000005e00000028
:10e47c005e0000005e0000005e0000004b0000002b
:10e48c004b0000004b0000004b0000004b00000054
:10e49c004b0000004b0000004b0000004b00000044
:10e4ac004b0000004b0000004b000000640000001b
:10e4bc0064000000640000006400000064000000c0
:10e4cc0064000000640000006400000064000000b0
:10e4dc006400000064000000640000004b000000b9
:10e4ec004b0000004b0000004b0000004b000000f4
:10e4fc004b0000004b0000004b0000004b000000e4
:10e50c004b0000004b0000004b00000064000000ba
:10e51c00640000006400000064000000640000005f
:10e52c00640000006400000064000000640000004f
:10e53c006400000064000000640000004b00000058
:10e54c004b0000004b0000004b0000004b00000093
:10e55c004b0000004b0000004b0000004b00000083
:10e56c004b0000004b0000004b000000640000005a
:10e57c0064000000640000006400000064000000ff
:10e58c00640000005e0000005e0000005e00000001
:10e59c005e0000005e0000005e0000005e000000f7
:10e5ac005e0000005e0000005e0000005e000000e7
:10e5bc005e0000005e0000005e0000005e000000d7
:10e5cc005e0000005e0000005e00000064000000c1
:10e5dc00640000006400000064000000640000009f
:10e5ec00640000005e0000005e0000005e000000a1
:10e5fc005e0000005e0000005e0000005e00000097
:10e60c005e0000005e0000005e0000005e00000086
:10e61c005e0000005e0000005e0000005e00000076
:10e62c005e0000005e0000005e0000005e00000066
:10ec2c000100000001000000010000007b01000059
:10ec3c007b0100007b0100007b0100007b010000d8
:10ec4c007b0100007b0100007b0100007b010000c8
:10ec5c007b0100007b0100007b0100007b010000b8
:10ec6c007b0100007b0100007b0100007b010000a8
:10ec7c007b0100007b0100007b0100007b01000098
:10ec8c007b0100007b0100007b0100007b01000088
:10ec9c007b0100007b0100007b0100007b01000078
:10ecac007b0100007b0100007b0100007b01000068
:10ecbc007b0100007b0100007b0100007b01000058
:10eccc007b0100007b0100007b0100007b01000048
:10ecdc007b0100007b0100007b0100007b01000038
:10ecec007b0100007b0100007b010000e1000000c3
:10ecfc00e1000000e1000000e1000000e100000084
:10ed0c00e1000000e1000000e1000000e100000073
:10ed1c00e1000000e1000000e1000000e100000063
:10ed2c00e1000000e1000000e1000000e100000053
:10ed3c00e1000000e1000000e1000000e100000043
:10ed4c00e1000000e1000000e1000000e100000033
:10ed5c00e1000000e1000000e1000000e100000023
:10ed6c00e1000000e1000000e1000000e100000013
:10ed7c00e1000000e1000000e1000000e100000003
:10ed8c00e1000000e1000000e1000000e1000000f3
:10ed9c00e1000000e1000000e1000000e1000000e3
:10edac00e1000000e1000000e10000002c01000087
:10edbc002c0100002c0100002c0100002c01000093
:10edcc002c0100002c0100002c0100002c01000083
:10eddc002c0100002c0100002c0100002c01000073
:10edec002c0100002c0100002c0100002c01000063
:10edfc002c0100002c0100002c0100002c01000053
:10ee0c002c0100002c0100002c0100002c01000042
:10ee1c002c0100002c0100002c0100002c01000032
:10ee2c002c0100002c0100002c0100002c01000022
:10ee3c002c0100002c0100002c0100002c01000012
:10ee4c002c0100002c0100002c0100002c01000002
:10ee5c002c0100002c0100002c0100002c010000f2
:10ee6c002c0100002c0100002c0100001c010000f2
:10ee7c001c0100001c0100001c0100001c01000012
:10ee8c001c0100001c0100001c0100001c01000002
:10ee9c001c0100001c0100001c0100001c010000f2
:10eeac001c0100001c0100001c0100001c010000e2
:10eebc001c0100001c0100001c0100001c010000d2
:10eecc001c0100001c0100001c0100001c010000c2
:10eedc001c0100001c0100001c0100001c010000b2
:10eeec001c0100001c0100001c0100001c010000a2
:10eefc001c0100001c0100001c0100001c01000092
:10ef0c001c0100001c0100001c0100001c01000081
:10ef1c001c0100001c0100001c0100001c01000071
:10ef2c001c0100001c0100001c0100007b01000002
:10ef3c007b0100007b0100007b0100007b010000d5
:10ef4c007b0100007b0100007b0100007b010000c5
:10ef5c007b0100007b0100007b0100007b010000b5
:10ef6c007b0100007b0100007b0100007b010000a5
:10ef7c007b0100007b0100007b0100007b01000095
:10ef8c007b0100007b0100007b0100007b01000085
:10ef9c007b0100007b0100007b0100007b01000075
:10efac007b0100007b0100007b0100007b01000065
:10efbc007b0100007b0100007b0100007b01000055
:10efcc007b0100007b0100007b0100007b01000045
:10efdc007b0100007b0100007b0100007b01000035
:10efec007b0100007b0100007b0100002c01000074
:10effc002c0100002c0100002c0100002c01000051
:10f00c002c0100002c0100002c0100002c01000040
:10f01c002c0100002c0100002c0100002c01000030
:10f02c002c0100002c0100002c0100002c01000020
:10f03c002c0100002c0100002c0100002c01000010
:10f04c002c0100002c0100002c0100002c01000000
:10f05c002c0100002c0100002c0100002c010000f0
:10f06c002c0100002c0100002c0100002c010000e0
:10f07c002c0100002c0100002c0100002c010000d0
:10f08c002c0100002c0100002c0100002c010000c0
:10f09c002c0100007b0100007b0100007b010000c3
:10f0ac007b0100007b0100007b0100001c010000c3
:10f0bc001c0100001c0100001c0100001c010000d0
:10f0cc001c0100001c0100001c0100001c010000c0
:10f0dc001c0100001c0100001c0100001c010000b0
:10f0ec001c0100001c0100001c0100001c010000a0
:10f0fc001c0100001c0100001c0100001c01000090
:10f10c001c0100001c0100001c0100001c0100007f
:10f11c001c0100001c0100001c0100001c0100006f
:10f12c001c0100001c0100001c0100001c0100005f
:10f13c001c0100001c0100001c0100001c0100004f
:10f14c001c0100001c0100001c0100001c0100003f
:10f15c001c0100001c0100001c0100001c0100002f
:10f16c001c0100001c0100001c0100001c0100001f
:10f17c001c0100001c0100001c0100001c0100000f
:10f18c001c0100001c0100001c0100001c010000ff
:10f19c001c0100001c0100001c0100001c010000ef
:10f1ac001c0100001c0100001c0100001c010000df
:10f1bc001c0100001c0100001c0100001c010000cf
:10f1cc001c0100001c0100001c0100001c010000bf
:10f1dc001c0100001c0100001c0100001c010000af
:10f1ec001c0100001c0100001c0100001c0100009f
:10f1fc001c0100001c0100001c0100001c0100008f
:10f20c001c0100001c0100001c0100001c0100007e
:10f21c001c0100007b0100007b0100007b01000051
:10f22c007b0100007b0100007b010000e10000007d
:10f23c00e1000000e1000000e1000000e10000003e
:10f24c00e1000000e1000000e1000000e10000002e
:10f25c00e1000000e1000000e1000000e10000001e
:10f26c00e1000000e1000000e1000000e10000000e
:10f27c00e1000000e1000000e1000000e1000000fe
:10f28c00e1000000e1000000e1000000e1000000ee
:10f29c00e1000000e1000000e1000000e1000000de
:10f2ac00e1000000e1000000e1000000e1000000ce
:10f2bc00e1000000e1000000e1000000e1000000be
:10f2cc00e1000000e1000000e1000000e1000000ae
:10f2dc00e1000000e1000000e1000000e10000009e
:10f2ec00e1000000e1000000e1000000e10000008e
:10f2fc00e1000000e1000000e1000000e10000007e
:10f30c00e1000000e1000000e1000000e10000006d
:10f31c00e1000000e1000000e1000000e10000005d
:10f32c00e1000000e1000000e1000000e10000004d
:10f33c00e1000000e1000000e1000000e10000003d
:10f34c00e1000000e1000000e1000000e10000002d
:10f35c00e1000000e1000000e1000000e10000001d
:10f36c00e1000000e1000000e1000000e10000000d
:10f37c00e1000000e1000000e1000000e1000000fd
:10f38c00e1000000e1000000e1000000e1000000ed
:10f39c00e1000000e1000000e1000000e1000000dd
:10f3ac00e1000000e1000000e1000000fd000000b1
:10f3bc00fd000000fd000000fd000000fd0000004d
:10f3cc00fd000000fd000000fd000000fd0000003d
:10f3dc00fd000000fd000000fd000000fd0000002d
:10f3ec00fd000000fd000000fd000000fd0000001d
:10f3fc00fd000000fd000000fd000000fd0000000d
:10f40c00fd000000fd000000fd000000fd000000fc
:10f41c00fd000000fd000000fd000000fd000000ec
:10f42c00fd000000fd000000fd000000fd000000dc
:10f43c00fd000000fd000000fd000000fd000000cc
:10f44c00fd000000fd000000fd000000fd000000bc
:10f45c00fd000000fd000000fd000000fd000000ac
:10f46c00fd000000fd000000fd000000fd0000009c
:10f47c00fd000000fd000000fd000000fd0000008c
:10f48c00fd000000fd000000fd000000fd0000007c
:10f49c00fd000000fd000000fd000000fd0000006c
:10f4ac00fd000000fd000000fd000000fd0000005c
:10f4bc00fd000000fd000000fd000000fd0000004c
:10f4cc00fd000000fd000000fd000000fd0000003c
:10f4dc00fd000000fd000000fd000000fd0000002c
:10f4ec00fd000000fd000000fd000000fd0000001c
:10f4fc00fd000000fd000000fd000000fd0000000c
:10f50c00fd000000fd000000fd000000fd000000fb
:10f51c00fd0000001c0100001c0100001c0100008b
:10f52c001c0100001c0100001c0100005e0000001a
:10f53c005e0000005e0000005e0000005e00000047
:10f54c005e0000005e0000005e0000005e00000037
:10f55c005e0000005e0000005e0000004b0000003a
:10f56c004b0000004b0000004b0000004b00000063
:10f57c004b0000004b0000004b0000004b00000053
:10f58c004b0000004b0000004b0000005e00000030
:10f59c005e0000005e0000005e0000005e000000e7
:10f5ac005e0000005e0000005e0000005e000000d7
:10f5bc005e0000005e0000005e0000004b000000da
:10f5cc004b0000004b0000004b0000004b00000003
:10f5dc004b0000004b0000004b0000004b000000f3
:10f5ec004b0000004b0000004b0000005e000000d0
:10f5fc005e0000005e0000005e0000005e00000087
:10f60c005e0000005e0000005e0000005e00000076
:10f61c005e0000005e0000005e0000004b00000079
:10f62c004b0000004b0000004b0000004b000000a2
:10f63c004b0000004b0000004b0000004b00000092
:10f64c004b0000004b0000004b0000005e0000006f
:10f65c005e0000005e0000005e0000005e00000026
:10f66c005e0000005e0000005e0000005e00000016
:10f67c005e0000005e0000005e0000004b00000019
:10f68c004b0000004b0000004b0000004b00000042
:10f69c004b0000004b0000004b0000004b00000032
:10f6ac004b0000004b0000004b0000006400000009
:10f6bc0064000000640000006400000064000000ae
:10f6cc00640000006400000064000000640000009e
:10f6dc006400000064000000640000004b000000a7
:10f6ec004b0000004b0000004b0000004b000000e2
:10f6fc004b0000004b0000004b0000004b000000d2
:10f70c004b0000004b0000004b00000064000000a8
:10f71c00640000006400000064000000640000004d
:10f72c00640000006400000064000000640000003d
:10f73c006400000064000000640000004b00000046
:10f74c004b0000004b0000004b0000004b00000081
:10f75c004b0000004b0000004b0000004b00000071
:10f76c004b0000004b0000004b0000006400000048
:10f77c0064000000640000006400000064000000ed
:10f78c00640000005e0000005e0000005e000000ef
:10f79c005e0000005e0000005e0000005e000000e5
:10f7ac005e0000005e0000005e0000005e000000d5
:10f7bc005e0000005e0000005e0000005e000000c5
:10f7cc005e0000005e0000005e00000064000000af
:10f7dc00640000006400000064000000640000008d
:10f7ec00640000005e0000005e0000005e0000008f
:10f7fc005e0000005e0000005e0000005e00000085
:10f80c005e0000005e0000005e0000005e00000074
:10f81c005e0000005e0000005e0000005e00000064
:10f82c005e0000005e0000005e0000005e00000054
:10f83c005e0000005e0000005e0000005e00000044
:10f84c005e0000005e0000005e0000005e00000034
:10f85c005e0000005e0000005e0000004b00000037
:10f86c004b0000004b0000004b0000004b00000060
:10f87c004b0000004b0000004b0000004b00000050
:10f88c004b0000004b0000004b0000005e0000002d
:10f89c005e0000005e0000005e0000005e000000e4
:10f8ac005e0000005e0000005e0000005e000000d4
:10f8bc005e0000005e0000005e0000004b000000d7
:10f8cc004b0000004b0000004b0000004b00000000
:10f8dc004b0000004b0000004b0000004b000000f0
:10f8ec004b0000004b0000004b0000005e000000cd
:10f8fc005e0000005e0000005e0000005e00000084
:10f90c005e0000005e0000005e0000005e00000073
:10f91c005e0000005e0000005e0000004b00000076
:10f92c004b0000004b0000004b0000004b0000009f
:10f93c004b0000004b0000004b0000004b0000008f
:10f94c004b0000004b0000004b0000005e0000006c
:10f95c005e0000005e0000005e0000005e00000023
:10f96c005e0000005e0000005e0000005e00000013
:10f97c005e0000005e0000005e0000004b00000016
:10f98c004b0000004b0000004b0000004b0000003f
:10f99c004b0000004b0000004b0000004b0000002f
:10f9ac004b0000004b0000004b0000006400000006
:10f9bc0064000000640000006400000064000000ab
:10f9cc00640000006400000064000000640000009b
:10f9dc006400000064000000640000004b000000a4
:10f9ec004b0000004b0000004b0000004b000000df
:10f9fc004b0000004b0000004b0000004b000000cf
:10fa0c004b0000004b0000004b00000064000000a5
:10fa1c00640000006400000064000000640000004a
:10fa2c00640000006400000064000000640000003a
:10fa3c006400000064000000640000004b00000043
:10fa4c004b0000004b0000004b0000004b0000007e
:10fa5c004b0000004b0000004b0000004b0000006e
:10fa6c004b0000004b0000004b0000006400000045
:10fa7c0064000000640000006400000064000000ea
:10fa8c00640000005e0000005e0000005e000000ec
:10fa9c005e0000005e0000005e0000005e000000e2
:10faac005e0000005e0000005e0000005e000000d2
:10fabc005e0000005e0000005e0000005e000000c2
:10facc005e0000005e0000005e00000064000000ac
:10fadc00640000006400000064000000640000008a
:10faec00640000005e0000005e0000005e0000008c
:10fafc005e0000005e0000005e0000005e00000082
